:100000000C942F030C9457030C9457030C94BB29A6
:100010000C9457030C941D2A0C9457030C9457030B
:100020000C9457030C9457030C9457030C945703E8
:100030000C9457030C9457030C9457030C945703D8
:100040000C94FE270C9457030C946E280C944828AB
:100050000C9457030C9457030C9457030C945703B8
:100060000C94A0280C9457032074696D65206C656E
:10007000667400696E6720666F7200576169746903
:100080006E6720666F72207065616B0057616974DE
:1000900020746F2000436F6F6C00486561740044EA
:1000A0006F6F72206F70656E0054656D702E2063E7
:1000B0006F6E74726F6C204F46460049646C00622C
:1000C000656572536C6F706546696C740062656536
:1000D00072536C6F7746696C740062656572466135
:1000E000737446696C7400667269646765536C6FFB
:1000F000706546696C7400667269646765536C6FFD
:100100007746696C740066726964676546617374EA
:1001100046696C74006873006C6168006D617843B7
:100120006F6F6C54696D65466F72457374006D61D5
:10013000784865617454696D65466F7245737400E3
:10014000636F6F6C5461726765744C00636F6F6CA2
:1001500054617267657448006865617454617267C0
:1001600065744C0068656174546172676574480019
:1001700069646C6552616E67654C0069646C6552B8
:10018000616E67654800694D6178457272004B6425
:10019000004B69004B70007069644D6178007465B4
:1001A0006D705365744D61780074656D705365743E
:1001B0004D696E0074656D70466F726D617400708C
:1001C0006F735065616B006E65675065616B0070A1
:1001D0006F735065616B457374006E656750656140
:1001E0006B457374006573745065616B00640069DE
:1001F00000700062656572536C6F706500646966BB
:1002000066496E74656772616C0062656572446907
:10021000666600222563223A256400202D2D2E2DAE
:100220002000526F6F6D2020004D6F646500496E95
:1002300076616C6964206D6F6465002A2A205465BC
:100240007374696E67202A2A004F66660050726FC9
:1002500066696C6500426565722000436F6E737459
:100260002E00467269646765200025646825303277
:10027000646D253032640000556E6B6E6F776E20B2
:100280007374617475732100222573220025640044
:100290002C2256223A5B006C6F674944006C6F67F2
:1002A000547970650020202020202020202020204C
:1002B00020200054656D7020636F6E74726F6C2027
:1002C0007475726E6564206F666620696E206D6558
:1002D0006E752E004368616E67656420746F2070D0
:1002E000726F66696C65206D6F646520696E206D44
:1002F000656E752E002020202020200025532074BC
:10030000656D702073657420746F20257320696E8D
:10031000204D656E752E0046726964676500426502
:100320006572006E756C6C00222573220053746137
:10033000746500526F6F6D54656D7000467269642C
:100340006765416E6E004672696467655365740047
:1003500046726964676554656D70004265657241F7
:100360006E6E004265657253657400426565725435
:10037000656D7000636F6F6C4573740068656174C0
:1003800045737400667269646765536574006265DD
:100390006572536574006D6F646500257500B40166
:1003A0000004A90101019E010301970125039401A5
:1003B0000502910107028E01090286010B037B01F0
:1003C0000D0370010F0364011103580113034C0165
:1003D0001503400117032E0119051C011B05060119
:1003E0001D00F7001E00E7001F00DA002000CD000E
:1003F0002100BF00220018012300150124004D6FC9
:1004000064650062792070726F66696C6500426590
:10041000657200627920776562004672696467657B
:100420000025532073657420746F20257320255395
:100430000066616C73650074727565009603000058
:10044000BB1B8E030000031C84030000861B7C037F
:1004500000032A14740302032A14B4010000482183
:10046000A9019903CF149E019B03CF149701BD03EB
:10047000CA1394019D032A1491019F032A148E012B
:10048000A1032A148601A303CA137B01A503CA137F
:100490007001A703CA136401A903CA135801AB036F
:1004A000CA134C01AD03CA134001AF03CA132E0196
:1004B000B1031D121C01B3031D121801BB03D81494
:1004C0001501BC03D814060100005A12F700010000
:1004D0005A12E70002005A12DA0003005A12CD0045
:1004E00004005A12BF0005005A1200020400030063
:1004F00001100302000003020100060004000605CB
:10050000002006050400030201002300010013027D
:10051000000003050400030304100305032000008A
:100520000000636C6F736564006F70656E656400D6
:1005300046726964676520646F6F722025530043BB
:1005400000A200DC000A800000030001000200FE9F
:100550009A009AFF660066FF5802B0040104030384
:100560000404000000146E756C6C0025642E2530A8
:1005700033640025642E253032640025642E253036
:100580003164006E756C6C000A020003FD01020309
:10059000F3010603F1010802EF010A02ED010C026A
:1005A000E5010E01DA011001CF011201C7011401AA
:1005B000BF011601257500222573220032323866EC
:1005C0006337396500302E322E3133004E3A7B22AC
:1005D00076223A222553222C226E223A22255322B9
:1005E0002C2273223A25642C2279223A25642C226B
:1005F00062223A222563222C226C223A222564228E
:100600007D0000000000240027002A0000000000F8
:10061000250028002B000000000800020100000354
:10062000040700000000000000000000000023009C
:100630002600290004040404040404040202020243
:100640000202030303030303010204081020408095
:100650000102040810200102040810202E2A11248F
:100660001FBECFEFD8E0DEBFCDBF12E0A0E0B1E00B
:10067000E0EEFDE602C005900D92A234B107D9F775
:1006800024E0A2E4B2E001C01D92A93EB207E1F766
:1006900013E0CFE2D3E004C02197FE010E947E3533
:1006A000CE32D107C9F70E94BB2A0C94EE360C94C7
:1006B0000000CF93DF93FB01DC019B01205F3F4FE4
:1006C0009D9192959F709A3098F0995C9083ED017E
:1006D000219798819F709A3068F0995C9183329647
:1006E000E217F30769F7FB01108ADF91CF910895B4
:1006F000905DECCF905DF2CF833081F028F48130B3
:1007000099F08230A9F008958730A9F08830C9F0B7
:100710008430B1F4809180008F7D03C0809180008F
:100720008F7780938000089584B58F7784BD089576
:1007300084B58F7DFBCF8091B0008F778093B00020
:1007400008958091B0008F7DF9CFCF93DF93282F4C
:1007500030E0F901EA5EF94F8491F901E85BF94F65
:10076000D491F901EC5CF94FC491CC23A1F0811133
:100770000E947C03EC2FF0E0EE0FFF1FE65DF94FC7
:10078000A591B491EC91ED2381E090E009F480E033
:10079000DF91CF91089580E090E0FACF1F93CF933F
:1007A000DF93282F30E0F901EA5EF94F8491F901D7
:1007B000E85BF94FD491F901EC5CF94FC491CC237B
:1007C000A9F0162F81110E947C03EC2FF0E0EE0FB0
:1007D000FF1FE45FF94FA591B4918FB7F894EC91A6
:1007E000111108C0D095DE23DC938FBFDF91CF912C
:1007F0001F910895DE2BF8CFCF93DF9390E0FC019B
:10080000E85BF94F24918C5C994FFC01849188231B
:10081000C9F090E0880F991FFC01EE5FF94FA59198
:10082000B491FC01E45FF94FC591D49161110DC001
:100830009FB7F8948C91209582238C9388812823EC
:1008400028839FBFDF91CF910895623051F49FB705
:10085000F8943C91822F809583238C93E8812E2BF2
:10086000EFCF8FB7F894EC912E2B2C938FBFEACF5C
:100870003FB7F8948091930390919403A0919503CE
:10088000B091960326B5A89B05C02F3F19F001969D
:10089000A11DB11D3FBFBA2FA92F982F8827BC01DA
:1008A000CD01620F711D811D911D42E0660F771F02
:1008B000881F991F4A95D1F708958F929F92AF9202
:1008C000BF92CF92DF92EF92FF926B017C010E9468
:1008D00038044B015C01C114D104E104F104B9F006
:1008E0000E943804681979098A099B09683E734097
:1008F0008105910580F321E0C21AD108E108F108D1
:1009000088EE880E83E0981EA11CB11CE4CFFF90F6
:10091000EF90DF90CF90BF90AF909F908F90089511
:100920002FB7F89460918F03709190038091910399
:10093000909192032FBF08950E94900428EE33E017
:1009400040E050E00E943D35C9010895CF93DF9308
:10095000EC010E949C048C1B9D0BDF91CF910895AC
:1009600080918304909184040E94A60420919703AF
:10097000222341F0CD9730F080917B0484608093F6
:100980007B04089580917B048B7FF9CFDC01ED918E
:10099000FC910190F081E02D0994AF92BF92CF922B
:1009A000DF92EF92FF920F931F93CF93DF936C012F
:1009B0007B018B01040F151FEB015E01AE18BF0810
:1009C000C017D10759F06991D601ED91FC910190C2
:1009D000F081E02DC6010995892B79F7C501DF91DA
:1009E000CF911F910F91FF90EF90DF90CF90BF902C
:1009F000AF900895FC01538D448D252F30E0842F56
:100A000090E0821B930B541710F0CF960895019736
:100A10000895FC01918D828D981761F0A28DAE0F23
:100A2000BF2FB11D5D968C91928D9F5F9F73928FAA
:100A300090E008958FEF9FEF0895FC01918D828DD6
:100A4000981731F0828DE80FF11D858D90E00895A3
:100A50008FEF9FEF0895FC01918D228D892F90E0FB
:100A6000805C9F4F821B91098F73992708958FEBAC
:100A700093E00E942B0521E0892B09F420E0822FCE
:100A80000895FC01A48DA80FB92FB11DA35ABF4F23
:100A90002C91848D90E001968F739927848FA6897D
:100AA000B7892C93A089B1898C91837080648C93D1
:100AB000938D848D981306C00288F389E02D808180
:100AC0008F7D80830895EF92FF920F931F93CF93B2
:100AD000DF93EC0181E0888F9B8D8C8D98131AC079
:100AE000E889F989808185FF15C09FB7F894EE8960
:100AF000FF896083E889F9898081837080648083BD
:100B00009FBF81E090E0DF91CF911F910F91FF9007
:100B1000EF900895F62E0B8D10E00F5F1F4F0F73AF
:100B20001127E02E8C8D8E110CC00FB607FCFACF6A
:100B3000E889F989808185FFF5CFCE010E944105C2
:100B4000F1CFEB8DEC0FFD2FF11DE35AFF4FF0823B
:100B50009FB7F8940B8FEA89FB8980818062CFCFA1
:100B6000CF93DF93EC01888D8823B9F0AA89BB89E4
:100B7000E889F9898C9185FD03C0808186FD0DC0CF
:100B80000FB607FCF7CF8C9185FFF2CF808185FFF0
:100B9000EDCFCE010E944105E9CFDF91CF910895BD
:100BA00080E090E0892B29F00E94370581110C9498
:100BB0000000089520914403260F3327331F21326C
:100BC0003105ECF420916803FC0190E080E02430D2
:100BD00069F082E00895A09144032191AC014C5D3D
:100BE0005C4FA40FB52FB11D2C930196861798F377
:100BF00080914403680F6093440380E0089581E08E
:100C0000089508958FEF9FEF08958FEF9FEF089558
:100C100080911D0390E09195819591090895CF935E
:100C2000DF93CB01EA01642F0E94DA05CE01DF9148
:100C3000CF910895CF93DF931F92CDB7DEB769832D
:100C400061E0CE0101960E94DA0581E090E00F900C
:100C5000DF91CF9108950895CF92DF92EF92FF92A6
:100C60000F931F93CF93DF937C01FB0191838083CC
:100C7000D0E0C0E0CC24C39420E030E0A9010081A2
:100C80001181D801DC90DD20C9F1B0E2DB1216C081
:100C9000209769F1C11007C0509540953095219576
:100CA0003F4F4F4F5F4FCA01B901DF91CF911F9165
:100CB0000F91FF90EF90DF90CF9008958DE2D816BE
:100CC000D9F080ED8D0D8A30C8F4AAE0B0E00E9422
:100CD000A2352D2DDD0C330B20533109032E000CD2
:100CE000440B550B260F371F481F591F21960F5FC6
:100CF0001F4F11830083C3CFC12CF9CFCD2B51F6E9
:100D0000F182E082C7CF0F931F932091980326347E
:100D1000B9F49B01AC0122573C474F4F5F4FAAE506
:100D2000B0E00E94A235675E7F4F8F4F9F4F22E356
:100D300030E040E050E00E945F35E0E0F1E009C0C3
:100D40009B01AC01305A4F4F5F4FE0E0FFEF57FF80
:100D5000F4CFAAE0B0E00E94A2358F01FF0F220B72
:100D6000330B600F711F821F931F20E032E040E0C1
:100D700050E00E945F35C9011F910F9108959C01B9
:100D8000FB019081892F8F7D19F081E09E3231F433
:100D900081E06217730711F080E0089508950097CD
:100DA00039F0DC01ED91FC910480F581E02D09948E
:100DB00080E00895209117033091180381E02430DA
:100DC000310529F02830310511F080E008950895AB
:100DD0008091FE029091FF020895E091DB02F09174
:100DE000DC02808191810E94CF06882349F0E09146
:100DF000DB02F091DC02EE5BFF4F8281938108956C
:100E000080E090E808958091FC029091FD020895A1
:100E1000E091D002F091D102808191810E94CF06B1
:100E2000882349F0E091D002F091D102EE5BFF4FB0
:100E300082819381089580E090E808958091CE02A8
:100E40009091CF020C94A6048091CC029091CD0297
:100E50000C94A604CF92DF92EF92FF92CF93DF9390
:100E60004817590708F4CA019C01DB010E949B3511
:100E700020E13EE040E050E00E945F356901E90179
:100E80000E94DA06882321F0CC27DD27CC19DD0962
:100E9000E091DB02F091DC02EE5BFF4F80819181FB
:100EA000A281B381CA0FDB1FD093EE02C093ED0283
:100EB000DF91CF91FF90EF90DF90CF9008952F9228
:100EC0003F924F925F926F927F928F929F92AF92DA
:100ED000BF92CF92DF92EF92FF920F931F93CF9327
:100EE000DF938091FB02823659F0803749F08636D5
:100EF000A9F481E090E89093FD028093FC020EC07B
:100F0000E091FC02F091FD02CF0190580297C8F4E5
:100F100081E090E89093FF028093FE02DF91CF91F1
:100F20001F910F91FF90EF90DF90CF90BF90AF9007
:100F30009F908F907F906F905F904F903F902F90F9
:100F400008958091D0029091D102DC01AC57BF4F3F
:100F50001C964D915D916D917C911F979F01261B71
:100F6000370BB9013093E0022093DF028E529F4F7E
:100F7000DC011C96CD90DD90ED90FC901F976701F1
:100F8000FF24D7FCF094EF2CD092E602C092E50249
:100F9000A091DB02B091DC02AE5BBF4F4D905D9043
:100FA0006D907C908091C70291E0980F9093C7025A
:100FB000C0919B03D0919C032090990330909A0399
:100FC0000091BD031091BE038C3309F065C0809081
:100FD000E1029090E202A090E302B090E40210924D
:100FE000C7028091170390911803892B09F034C12F
:100FF00037FF04C022273327261B370B8091A3031A
:101000009091A403281739070CF00EC191E0161631
:1010100017060CF090E081E0181419041A041B0460
:101020000CF080E09813FCC04091FE025091FF024A
:10103000CB014C175D0714F090E080E024163506D4
:1010400014F090E080E09A012E1B3F0B201731072F
:1010500014F090E080E09F01241B350B201731072E
:1010600014F090E080E0161617060CF4F0C05C5FF8
:10107000461557050CF4F0C0092E000CAA0BBB0B4B
:10108000880D991DAA1DBB1D8093E1029093E20279
:10109000A093E302B093E402A0919D03B0919E035C
:1010A0009B010E948435DC01CB0129E0B595A79511
:1010B000979587952A95D1F772E0A72E70E8B72EFD
:1010C000823020E892072FEFA207B20754F05C01AC
:1010D00081159048A105B10524F0AA24AA946FE7D0
:1010E000B62EB092E802A092E702A0919F03B091C1
:1010F000A0032091E1023091E2024091E30250917D
:10110000E4020E94AD35DC01CB0159E0B595A7950D
:10111000979587955A95D1F742E0842E40E8942E12
:10112000823020E892072FEFA207B20754F04C015B
:1011300081159048A105B10524F088248A943FE7E1
:10114000932E9092EA028092E902A091A103B091BD
:10115000A203A70196010E94AD3529E095958795D8
:10116000779567952A95D1F76230A0E87A07AFEFB7
:101170008A079A070CF465C06115B0E87B07810502
:1011800091050CF061C07093EC026093EB02C50115
:10119000BB0CAA0BBB0B6F010F2E000CEE08FF0857
:1011A0008C0D9D1DAE1DBF1D092C000CAA08BB088F
:1011B000880D991DAA1DBB1D4B01770FAA08BB08FE
:1011C000880E991EAA1EBB1EC1019101200F311F5E
:1011D0002E173F071CF4CF01801B910B9E01201B93
:1011E000310BE217F3071CF4EF01C00FD11F22E00F
:1011F000821620E892062FEFA206B20684F181142F
:1012000030E89306A104B1044CF4881699060CF456
:1012100081CEC401C815D9050CF07CCECE017ACEA2
:10122000CB01880F991F28CFD501C40133E0B595B4
:10123000A795979587953A95D1F7919581959109BD
:101240001BCF62E070E89FCF6FEF7FE79CCF5450D9
:10125000641675060CF010CF90E080E00DCF83305F
:10126000A0E89A070CF056CECE01C330D0480CF45B
:1012700051CE82E090E84ECE6817790768F4861B5D
:10128000970B2091C8023091C9022817390720F422
:101290009093C9028093C8020895CF93DF93EC0125
:1012A00060E08AE00E94CE038C818EBD0DB407FE03
:1012B000FDCF61E08AE0DF91CF910C94CE030E94D4
:1012C0009C0490938404809383040E94B00487E775
:1012D00094E00C944D092FB7F8948091D602909128
:1012E000D7022FBF0895CF930E946B092091C502AA
:1012F0003091C6022817390761F09093C602809397
:10130000C5020E945F090E94B004C1E08C2FCF91FA
:101310000895C091D902CC23C9F30E945F090E94AD
:10132000B004F4CF62E088E00E94FC0362E089E050
:101330000E94FC0362E087E00E94FC03E8E6F0E024
:10134000808185608083EBE6F0E08081836080832C
:10135000EDE6F0E080818068808308950F931F930D
:10136000CF93DF93C0E1D7E20BE811E08FEB93E07E
:101370000E942B05892B61F4C8010197F1F7219791
:10138000A9F78FEF9FEFDF91CF911F910F910895F4
:101390008FEB93E0DF91CF911F910F910C94090592
:1013A0000F931F93CF93DF938C01FC011082C0E059
:1013B0000E94AE09CD31B9F08D379105A1F08F3F74
:1013C000980789F08C329105C1F08A339105A9F014
:1013D0009C012D7F2032310559F3F801EC0FF11DEE
:1013E0008083CF5FE5CF80E0C00FD12FD11D188261
:1013F000DF91CF911F910F91089581E0F5CF682F74
:101400008FEB93E00E94C6046AE38FEB93E00E94A7
:10141000C60481E08093C3020895809102019091F7
:101420000301DC01ED91FC910084F185E02D09942C
:10143000DC012C911196ED91FC91F8948181822B25
:1014400081839281322F30959323928387E090E0BD
:101450000197F1F781818323818383E290E00197F3
:10146000F1F790817894EFECF0E03197F1F7922367
:1014700081E009F480E00895FC012081A181B2811E
:1014800087E3EAE0611102C085E0E1E4F894129696
:101490003C911297922F9095932312969C931297BA
:1014A00011969C911197922B11969C93119794E011
:1014B000E99FF001112435973197F1F712969C912D
:1014C0001297922B12969C937894E4E08E9FC00121
:1014D000112405970197F1F70895EF92FF920F936A
:1014E0001F93CF93DF937C01062FC8E0D0E011E07B
:1014F00061E0802F812309F460E0C7010E943C0A6B
:10150000110F2197A9F7DF91CF911F910F91FF90B4
:10151000EF900895FC0190810180F281E02DF89414
:101520008181292F20958223818378943DE743E0B0
:1015300050E0315029F1DA011197F1F780818923C8
:10154000C1F3F8948281822382838181892B8183F4
:101550007894ABE7B7E01197F1F7F8948181822393
:101560008183A3E1B1E01197F1F78081982381E0B5
:1015700009F080E07894E3E6F6E03197F1F708951A
:1015800080E00895EF92FF920F931F93CF93DF9324
:101590007B018C01055F1F4F65E5C8010E946D0A44
:1015A000E70188E0E80EF11C6991C8010E946D0A0C
:1015B000CE15DF05C9F7DF91CF911F910F91FF90F5
:1015C000EF9008958F929F92AF92BF92CF92DF9249
:1015D000EF92FF920F931F93CF93DF936C017B01E8
:1015E0004A0159010E949C048C01C0E0C8010E947C
:1015F000A6040A9798F50E947309882301F10E94B6
:101600009C048C01F6010995F7010995C0E0D09181
:10161000D902DD23D9F01092D902F7010995F5011D
:1016200009958D2FDF91CF911F910F91FF90EF9032
:10163000DF90CF90BF90AF909F908F900895CC2374
:1016400019F3C03821F7F4010995E1CFCF5F63E0CA
:1016500070E080E090E00E945D04C8CFD0E0E1CF70
:101660002F923F924F925F926F927F928F929F92B2
:10167000AF92BF92CF92DF92EF92FF920F931F93A0
:10168000CF93DF9300D000D000D0CDB7DEB7FC0100
:1016900084809580A680B78080869186A286B38656
:1016A0004080518062807380448255826682778256
:1016B000408351836283738380899189A289B3892E
:1016C000848B958BA68BB78BC484D584E684F784F2
:1016D000C08AD18AE28AF38A218C308C032D10E0F3
:1016E0001E830D8397018601081B190B2A0B3B0BE8
:1016F0000C0D1D1D2E1D3F1D022C04C0F594E794FA
:10170000D794C7940A94D2F70C191D092E093F09E2
:10171000680179018C019D0104C0359527951795C5
:1017200007952A94D2F70C0D1D1D2E1D3F1D032C6D
:1017300004C075956795579547950A94D2F7400F61
:10174000511F621F731F2D813E812150310904C03A
:1017500075946794579447942A95D2F7440E551E72
:10176000661E771E04C0B594A794979487943A9404
:10177000D2F7840C951CA61CB71C2D813E812250EB
:1017800031093A832983098004C0B595A7959795B7
:1017900087950A94D2F795018401081B190B2A0B2F
:1017A0003B0BC901B80164877587868797872696A2
:1017B0000FB6F894DEBF0FBECDBFDF91CF911F9162
:1017C0000F91FF90EF90DF90CF90BF90AF909F90E0
:1017D0008F907F906F905F904F903F902F900895E3
:1017E000AB01770F660B770BBA0155274427FC0135
:1017F000825B9F4F4083518362837383448355830D
:1018000066837783408751876287738744875587CC
:1018100066877787408B518B628B738B448B558B9C
:10182000668B778B7A96E817F90721F70895EF9280
:10183000FF920F931F93CF93DF93FC01A081B1819F
:10184000109709F442C0EC01ED91FC9111970680CC
:10185000F781E02DCD0109958823B9F17E01F1EFE3
:10186000EF0EF11CD7018C918D3378F1888199812D
:10187000DC01ED91FC910084F185E02D09958C014E
:101880008115B0E89B0709F1BC01CE0102960E94C8
:10189000F00BB801CE01805B9F4F0E94F00B70E00F
:1018A00060E0CE0182569F4F0E94F00BFE01E35193
:1018B000FF4FCC57DF4F8C859D85AE85BF858083DC
:1018C0009183A283B383F7011082DF91CF911F919F
:1018D0000F91FF90EF9008950F931F93CF93DF9395
:1018E000AB01770F660B770BBA0155274427EC0144
:1018F0008C01025B1F4FCE010E94300BAB01BC017B
:101900006A96C017D107B9F7DF91CF911F910F9158
:1019100008958F929F92AF92BF92CF92DF92EF92F3
:10192000FF920F931F93CF93DF93EC0188819981EE
:101930000097E1F4FE01EF50FF4F80818F3F09F0E7
:1019400044C0888199810E94CF06811183C0CE0155
:10195000DF91CF911F910F91FF90EF90DF90CF908B
:10196000BF90AF909F908F900C94170CDC01ED917D
:10197000FC910084F185E02D09958C018115B0E87A
:101980009B07C1F2BC01CE0102960E946C0CB8010B
:10199000CE01805B9F4F0E946C0C7E01ECEEEE0E40
:1019A000F11CD7018C9181508C93843089F4FE0115
:1019B000EC57FF4F84859585A685B785E759FF4F7E
:1019C00080839183A283B383BCCF8F5F8083B9CFA1
:1019D0008111B7CFFE01EC57FF4F84849584A68414
:1019E000B7846E01BDEECB0ED11CF60180819181D2
:1019F000A281B381A5019401281B390B4A0B5B0B13
:101A00004C31510514F5453EFFEF5F0724F420E00B
:101A100030E045EE5FEFA0EBB4E00E94A2358E010E
:101A200002561F4FAB01BC01C8010E94300B065E7D
:101A30001F4F0E151F05B1F7D6018D929D92AD92E5
:101A4000BC92139783E0F801C1CF20E030E04BE176
:101A500050E0E1CFDF91CF911F910F91FF90EF9078
:101A6000DF90CF90BF90AF909F908F90089580911E
:101A7000D0029091D1020E94890C8091DB0290915A
:101A8000DC020E94890C8091020190910301DC012B
:101A9000ED91FC910084F185E02D09958115904828
:101AA00059F48091020190910301DC01ED91FC91C8
:101AB0000680F781E02D09940895FC0182E0860FED
:101AC000880F808F618F82AB63ABDF01A45BBF4F58
:101AD0008C93E35BFF4F60830895CF93DF93C8E956
:101AE000D3E08091DB029091DC026D8D02960E9422
:101AF0005D0D8091DB029091DC026E8D805B9F4FCB
:101B00000E945D0D8091DB029091DC026F8D825608
:101B10009F4F0E945D0D8091D0029091D10268A1EB
:101B200002960E945D0D8091D0029091D10269A130
:101B3000805B9F4F0E945D0D8091D0029091D102F9
:101B40006AA182569F4FDF91CF910C945D0DFC01ED
:101B500098E0908F82E0818F92AB83ABDF01A45B32
:101B6000BF4F9C93E35BFF4F80830895089590E0FF
:101B700080E0089580E00895089508950895FC0197
:101B80008081823088F48181823070F482819381F7
:101B900001978930910540F4880F991FFC01EC5B97
:101BA000FE4F80819181089590E080E008950F9329
:101BB0001F93CF93DF938C010E94BF0DEC01892B03
:101BC000F1F0D80112962D913C91C90101978C300A
:101BD0009105A8F48C549E4FFC018081823089F1DC
:101BE0008330D9F0813059F4E881F981263031050C
:101BF000D1F18081918121E08030920729F4DF9139
:101C0000CF911F910F91089520E031E0318320831F
:101C1000EF50FF4F2FEF20832FC088819981B4E0D0
:101C2000893D9B0761F3009739F0DC01ED91FC9150
:101C30000680F781E02D099589ED94E099838883EA
:101C4000DECF88819981B4E08C3D9B07C1F200977B
:101C500039F0DC01ED91FC910480F581E02D0995CE
:101C60008CED94E0EBCFB1E0E030FB0741F280E097
:101C700091E099838883CF01009709F2DC01ED910F
:101C8000FC910280F381E02DDF91CF911F910F91A4
:101C900009940F931F93CF93DF93CDB7DEB764976B
:101CA0000FB6F894DEBF0FBECDBF81E089838A8373
:101CB00010E000E01C830B83CE0101960E94D70D3B
:101CC0000F5F1F4F00311105A9F764960FB6F89406
:101CD000DEBF0FBECDBFDF91CF911F910F91089551
:101CE000CF93DF93EC018B810E94A5033A8121E021
:101CF0003817190609F420E0822FDF91CF9108955B
:101D0000CF93DF93EC018B810E94A50321E0892B07
:101D100009F420E08A818227DF91CF910895FC01A8
:101D20002281622783810C94CE03FC01878508956C
:101D300080E090E80895DC01ED91FC910084F1854C
:101D4000E02D099521E08115904809F420E0822FCB
:101D500008959C016130710541F42250310981E000
:101D60002230310548F080E007C06230710529F467
:101D700081E021303105B9F70895672BA1F781E0A3
:101D8000232BD1F3F0CF0B960E948A0A91E08111A8
:101D900001C090E0892F08950F931F93CF93DF9395
:101DA000EC018B01888199810E94C30EB801888162
:101DB00099810E94C20A8881998164E40B96DF911F
:101DC000CF911F910F910C946D0AEF92FF921F9388
:101DD000CF93DF93EC017B01142F888199810E94BE
:101DE000C30EB701888199810E94C20A88819981B6
:101DF000612F0B96DF91CF911F91FF90EF900C9484
:101E00006D0A2F923F924F925F926F927F928F92C4
:101E10009F92AF92BF92CF92DF92EF92FF920F9379
:101E20001F93CF93DF9300D01F92CDB7DEB78C0105
:101E30005B015B834A8382E089832A01E9E04E0EDD
:101E4000511C4EEBB501C8010E94E50E6A807B80F3
:101E50007301F801C080D180FBE0CF0ED11C98E067
:101E6000892E912C312C22242394C6010E94180A19
:101E700081113228220C81E0881A9108B1F7F7010C
:101E800031927F014E165F0621F7F8018081918122
:101E90000E94C30E99E080E09150B1F0F30151919E
:101EA0003F0148E0682F6527282F30E035952795BA
:101EB000822F60FF02C08CE882275695415091F72F
:101EC000EBCFF1E0F983BDCFEA81FB8190859817D4
:101ED000D1F0F981F130A9F780E00F900F900F90C9
:101EE000DF91CF911F910F91FF90EF90DF90CF90F6
:101EF000BF90AF909F908F907F906F905F904F902A
:101F00003F902F90089581E0E8CFCF93DF93CDB736
:101F1000DEB729970FB6F894DEBF0FBECDBFAE0176
:101F20004F5F5F4F0E94010F882371F08B818823E0
:101F300059F089819A8129960FB6F894DEBF0FBEB9
:101F4000CDBFDF91CF91089580E090E8F4CF0F935B
:101F50001F93CF938C01C62FDC01ED91FC91028081
:101F6000F381E02D09958C1749F0F801C283809127
:101F7000B000CC2339F080628093B000CF911F91E4
:101F80000F9108958F7DF8CF08959C018FEF8F5F9B
:101F9000F901E80FF11D87FDFA959081992319F059
:101FA0009613F5CF08958FEF0895FC01828108956F
:101FB00008951F93CF93DF93EC01162F68878E81CE
:101FC0009F81DC01ED91FC910190F081E02D09955C
:101FD000112321F00E949C049B838A83DF91CF917F
:101FE0001F910895FC0180850895FC016283089586
:101FF0001F93CF93DF9385ED8093BC0080912003E6
:1020000090912103A0912203B09123030796A11D73
:10201000B11D23E0B695A795979587952A95D1F799
:102020002091BC0024FD03C01092680352C040916F
:102030002003509121036091220370912303452BCB
:10204000462B472B69F30097A105B10541F025E325
:102050002A95F1F700000197A109B109E1CF80911C
:102060001F03C1E0C0931E03882399F1D091B800EB
:102070001091BA008091BC008A7B8093BC0060E024
:1020800082E10E94CE0360E083E10E94CE031092C1
:102090006803C0936A031092690361E082E10E94C1
:1020A000CE0361E083E10E94CE038091B9008E7F70
:1020B0008093B9008091B9008D7F8093B90088E446
:1020C0008093B80085E48093BC001093BA00D0934D
:1020D000B800DF91CF911F9108956115710579F0D6
:1020E000FB0101900020E9F73197AF01461B570B28
:1020F000DC01ED91FC910280F381E02D099490E0E8
:1021000080E00895CF93DF93CDB7DEB765970FB624
:10211000F894DEBF0FBECDBFBC01CE0101960E9478
:10212000CF31BE016F5F7F4F87E794E00E946D1053
:1021300065960FB6F894DEBF0FBECDBFDF91CF918D
:10214000089542E050E06CE072E08FEB93E00C9475
:10215000CD046DE78FEB93E00E94C6040C94A110B0
:10216000EF92FF921F93CF93DF937B01EA01FC0173
:1021700060818FE092E00E94C50F182F87FD08C094
:10218000C7010E949631C10FD11D17FDDA956883F2
:10219000DF91CF911F91FF90EF900895EF92FF9202
:1021A0001F93CF93DF937B01EA01FC01608185E1FE
:1021B00092E00E94C50F182F87FD08C0C7010E943A
:1021C0009631C10FD11D17FDDA956883DF91CF914C
:1021D0001F91FF90EF900895EF92FF920F931F933E
:1021E000CF93DF93CDB7DEB7A0970FB6F894DEBFDD
:1021F0000FBECDBF8C01F62EE42E211103C06CE280
:102200000E94C6048E2D0E2C000C990B9F93EF920A
:102210008F2D0F2C000C990B9F93FF9283E192E07E
:102220009F938F93CE0101967C019F938F930E9481
:10223000EB31B701C8010E946D100FB6F894DEBFF4
:102240000FBECDBFA0960FB6F894DEBF0FBECDBFB8
:10225000DF91CF911F910F91FF90EF90089549E08A
:1022600050E06EE270E08BEF92E00E94D0348091FB
:10227000FC029091FD029093FA028093F902089576
:102280009091FB02981309C0209117033091180315
:102290002550310923303105A0F410921803109213
:1022A00017038093FB028F3651F481E090E89093FE
:1022B000FD028093FC029093FF028093FE020C9437
:1022C0002F116111EECF089560E08FE60E9440115A
:1022D000EBEFF2E081E090E8928381839483838343
:1022E00086E690E09683858380E09AE090878783F6
:1022F0000895CF93DF9300D000D0CDB7DEB78091A3
:10230000180190911901A0911A01B0911B018983C4
:102310009A83AB83BC830E946B098C0F9D1F60E086
:10232000FC0181810F900F900F900F90DF91CF9162
:102330000C944011FC0177FF03C071956195710900
:1023400035E0759567953A95E1F76635710514F0B6
:1023500065E570E077FF02C070E060E02AEA31E0F6
:10236000261B370BA081B1810E94843529E0959509
:102370008795779567952A95D1F7623020E872079F
:102380002FEF8207920754F0611520E8720781054C
:1023900091053CF4718360830C942F1162E070E826
:1023A000F9CF6FEF7FE7F6CFFC0177FF03C07195A0
:1023B000619571099B0145E0359527954A95E1F7AF
:1023C0002B39310514F02AE930E037FF02C030E044
:1023D00020E02A593D4FA081B1810E948435DC0163
:1023E000CB0129E0B595A795979587952A95D1F7C3
:1023F000823020E892072FEFA207B20734F489E178
:1024000090E0918380830C942F11811520E892072E
:10241000A105B1051CF08FEF9FE7F3CF9183808377
:1024200049976CF3F0CF47E250E066E070E088E94E
:1024300093E00E94D0340C942F11AF92BF92CF92B0
:10244000DF92EF92FF920F931F93CF93DF9300D011
:10245000CDB7DEB75C018B01BE016F5F7F4F0E947D
:102460002C066B017C0169817A81C5010E94BF063F
:1024700081110DC0C114D10481E0E806F104A4F07B
:102480008FEF9FEFF801918380830E9413120F90CA
:102490000F90DF91CF911F910F91FF90EF90DF9000
:1024A000CF90BF90AF900895F7FCF1CFF801D182A3
:1024B000C082EBCF0F931F93CF93DF938B01EB0180
:1024C000C370DD270E949631F801FF27EE0FFF1F32
:1024D000EA56FE4F0190F081E02D60838091D0029A
:1024E0009091D102033020F48091DB029091DC02C4
:1024F000C130D10561F0C230D10571F00296CD2B0B
:1025000041F0DF91CF911F910F910C941312805BDA
:102510009F4F0E945D0DF5CF82569F4FFACF47E245
:1025200050E06FE375E088E993E00E94BD310C94C0
:102530006D0DDF92EF92FF920F931F93CF93DF9376
:1025400000D000D0CDB7DEB77B01D42E0E94FF09AA
:10255000DA948FEFD816C9F087010C5F1F4F44E063
:1025600050E0B701CE0101960E94BD31EC81F0E050
:10257000EE0FFF1FE657FE4F0190F081E02D6B81BB
:1025800089819A8109957801E3CF0E94A9100F9063
:102590000F900F900F90DF91CF911F910F91FF90AF
:1025A000EF90DF90089588E993E09093F80280938C
:1025B000F70248E16EE973E083E40C9499123F92CC
:1025C0004F925F926F927F928F929F92AF92BF9243
:1025D000CF92DF92EF92FF920F931F93CF93DF93EF
:1025E00000D0CDB7DEB74C018B016DE270E0C801C1
:1025F0000E94DA365C01BE016F5F7F4FC8010E9406
:102600002C062B013C0169817A81C8010E94BF061A
:102610008823A9F080E00F900F90DF91CF911F9158
:102620000F91FF90EF90DF90CF90BF90AF909F9071
:102630008F907F906F905F904F903F90089529E02A
:10264000440C551C661C771C2A95D1F76EE270E08D
:10265000C8010E94DA36009781F18C010F5F1F4F8D
:10266000BE016F5F7F4FC8010E942C066B017C0189
:1026700039807A81632DC8010E94BF068111CACFBB
:10268000A701960189E0220F331F441F551F8A9529
:10269000D1F7132D101B9AE0C92ED12CE12CF12C6F
:1026A000115070F0CA01B9016B5F7F4F8F4F9F4F80
:1026B000A70196010E945F35F3CF20E030E0A90129
:1026C000AB2859F4420E531E641E751EF40140825D
:1026D00051826282738281E09ECF421A530A640A59
:1026E000750AF4CF8F929F92AF92BF92FF920F9391
:1026F0001F93CF93DF9300D000D0CDB7DEB78C010E
:10270000CE0101960E94DF12F82E882371F12981F3
:102710003A814B815C81809198038634B1F4EDE27B
:1027200057FDE3EDA2E3B0E00E94A2358E2EEE0F3E
:102730009908AA08BB08680D791D8A1D9B1D2AE50A
:1027400030E040E050E00E945F35223080E83807FA
:102750008FEF48075807C4F02115E0E83E07410510
:102760005105ACF4F801318320838F2D0F900F9029
:102770000F900F90DF91CF911F910F91FF90BF901D
:10278000AF909F908F90089522E030E8EBCF2FEF2D
:102790003FE7E8CF9C01CB01B9010E947213811180
:1027A0000C9413120895CF92DF92EF92FF920F9341
:1027B0001F93CF93DF9300D0CDB7DEB77B018A01A3
:1027C000FC01D0806D2D86E591E00E94C50FC82EDA
:1027D000F1E6DF1215C0F701D8011A96808188232F
:1027E00011F181340CF087538295807F918191346F
:1027F0002CF09753892B8D933296F0CF9053FACFCC
:102800008AE6D8121BC0B701CE0101960E9472134E
:10281000882349F089819A8125E0959587952A95A5
:10282000E1F7F80181870F900F90DF91CF911F9111
:102830000F91FF90EF90DF90CF900895C7FCF3CFFA
:10284000C7010E949631F801EC0DF11DC7FCFA9505
:102850006083E9CF0F931F93CF93DF9300D000D015
:10286000CDB7DEB78B01BC01CE0101960E94DF120D
:102870008823B1F089819A81AB81BC81823020E8C4
:1028800092072FEFA207B207A4F08115E0E89E0798
:10289000A105B1058CF4F801918380830E94131285
:1028A0000F900F900F900F90DF91CF911F910F918C
:1028B000089582E090E8EFCF8FEF9FE7ECCF8F9203
:1028C0009F92AF92BF92EF92FF920F931F93CF937D
:1028D000DF9300D000D0CDB7DEB78C017B0183E859
:1028E00095E00E94E536892BB9F481E090E8F80183
:1028F00091838083FF24F3948F2D0F900F900F907E
:102900000F90DF91CF911F910F91FF90EF90BF90AB
:10291000AF909F908F900895B701CE0101960E94CD
:10292000DF12F82E882341F329813A814B815C81A3
:10293000809198038634C9F4305441095109EDE27D
:1029400057FDE3EDA2E3B0E00E94A2358E2EEE0F1C
:102950009908AA08BB08680D791D8A1D9B1D2AE5E8
:1029600030E040E050E00E945F35305641095109A7
:102970002230F0E83F07FFEF4F075F0754F02115C3
:1029800080E83807410551053CF4F8013183208384
:10299000B3CF22E030E8F9CF2FEF3FE7F6CF9C012D
:1029A000CB01B9010E945F1481110C941312089598
:1029B000CF92DF92EF92FF921F93CF93DF9300D0DD
:1029C000CDB7DEB77C016B01BC0187E394E00E94C8
:1029D000E536892B39F1B70181E394E00E94E536B1
:1029E00010E0892B89F0BE016F5F7F4FC7010E9405
:1029F0002C06162F69817A81C7010E94BF068111BA
:102A000007C0123028F41170F60110830E941312CF
:102A10000F900F90DF91CF911F91FF90EF90DF907B
:102A2000CF90089511E0F0CFCF93DF93CDB7DEB70D
:102A30009E01255F3F4F49855A856F8178858D813D
:102A40009E810E940E32DF91CF9108958F929F92C6
:102A5000AF92BF92DF92EF92FF920F931F93CF93AB
:102A6000DF93EC01D02E77FD5EC080E288834A01BF
:102A70005B0139E0B594A794979487943A95D1F780
:102A800074010AE010E0EBE7F5E0213051F004E6D4
:102A900010E0E3E7F5E0223021F008EE13E0EBE68A
:102AA000F5E09A01AB01317044275527D8010E9407
:102AB000A2357F5F8F4F9F4F29E09595879577953A
:102AC00067952A95D1F76017710730F074018FEF81
:102AD000E81AF80A70E060E07F936F93FF92EF923C
:102AE000FF93EF938D2D8150990B8C011F938F9342
:102AF000CE0101969F938F930E9414158DB79EB7B8
:102B00000A960FB6F8949EBF0FBE8DBFCE01DF911F
:102B1000CF911F910F91FF90EF90DF90BF90AF90FA
:102B20009F908F9008958DE2888370956095509561
:102B300041955F4F6F4F7F4F9ACFCF92DF92EF92C9
:102B4000FF920F931F93CF93DF93EC01122FCA01D3
:102B50009058029778F466E675E0CE010E94CF3176
:102B6000CE01DF91CF911F910F91FF90EF90DF90F9
:102B7000CF90089580919803863421F59A01AB0196
:102B800022573C474F4F5F4FE9E157FDE7EEAAE57B
:102B9000B0E00E94A235CE2EEE0FDD08EE08FF0851
:102BA0006C0D7D1D8E1D9F1D22E330E040E050E046
:102BB0000E945F35BA01A901212FCE010E9426157E
:102BC000EC01CECF505A6F4F7F4FF6CF9F92AF920E
:102BD000BF92CF92DF92EF92FF920F931F93CF930A
:102BE000DF93CDB7DEB761970FB6F894DEBF0FBEA7
:102BF000CDBF982E8B016A017901FB0182819381FF
:102C00000197A12C8C30910520F48C549E4FFC012F
:102C1000A08080911603811104C06CE2C7010E945C
:102C2000C604109216036BE7C7010E94C60421E098
:102C3000492D69E6C7010E94EC1020E04A2D64E7A7
:102C4000C7010E94EC1020E0F801408163E6C70153
:102C50000E94EC1020E0F801418162E6C7010E9469
:102C6000EC1020E0F801428166E6C7010E94EC10FA
:102C700020E0F801448168E6C7010E94EC1020E0E2
:102C8000F801408564E6C7010E94EC1020E0F801DD
:102C9000468160E7C7010E94EC10C114D10469F0BD
:102CA000F6018081882349F06AE172E0C7010E9441
:102CB0006D10B601C7010E946D10F80184819581E5
:102CC000019731F420E0478168E7C7010E94EC10CA
:102CD000F801848195810297B1F460E272E0C70146
:102CE0000E946D10BE016F5F7F4FC80109960E9460
:102CF0005903BE016F5F7F4FC7010E946D1062E2F2
:102D0000C7010E94C604F801848195810297B9F534
:102D1000A189F0E2AF02D0011124AD010B2E000C0D
:102D2000660B770B809198038634C1F447EEB7FFAA
:102D300049E12AE530E00E949B35042F440F110B36
:102D4000220B330B600F711F821F931F22E330E0B1
:102D500040E050E00E945F35BA01A90108E023E09D
:102D6000CE0101960E94261567E272E0C7010E941B
:102D70006D10BE016F5F7F4FC7010E946D106DE740
:102D8000C7010E94C60461960FB6F894DEBF0FBE5D
:102D9000CDBFDF91CF911F910F91FF90EF90DF900A
:102DA000CF90BF90AF909F900895FB01238534850D
:102DB000AB014F5F5F4FBC0180810C94E615CF9350
:102DC000DF93CDB7DEB79E012B5F3F4FF9014191F5
:102DD00051919F0160E870E083E492E00E940E321E
:102DE00063E472E08FEB93E00E946D10DF91CF916E
:102DF0000895CF93DF93EC018091C3026CE28111BF
:102E00006BE78FEB93E00E94C6041092C30262E26C
:102E10008FEB93E00E94C604DF93CF930E94DF16EE
:102E200062E28FEB93E00E94C6040F900F906AE37A
:102E30008FEB93E0DF91CF910C94C604CF93C62F14
:102E40000E94F91662E28FEB93E00E94C6046C2F99
:102E50008FEB93E00E94C60462E28FEB93E0CF9188
:102E60000C94C604E091F702F091F802E60FF11D10
:102E700060810C941E17CF93DF93EB010E94F9162B
:102E8000BE018FEB93E0DF91CF910C946D10EF9228
:102E9000FF920F931F93CF93DF93CDB7DEB72C979D
:102EA0000FB6F894DEBF0FBECDBF7C01E091F702F4
:102EB000F091F802E60FF11DA081B181AD010B2E5A
:102EC000000C660B770B809198038634C1F477FD74
:102ED0002DC049E12AE530E00E949B35042F440FC4
:102EE000110B220B330B600F711F821F931F22E304
:102EF00030E040E050E00E945F35BA01A9010CE0EB
:102F000023E0CE0101960E942615BC01C7010E9454
:102F10003B172C960FB6F894DEBF0FBECDBFDF91E6
:102F2000CF911F910F91FF90EF90089547EED2CF70
:102F3000EF92FF920F93CF93DF93CDB7DEB72C972D
:102F40000FB6F894DEBF0FBECDBF7C01E091F70253
:102F5000F091F802E60FF11D40815181052E000C21
:102F6000660B770B0CE023E0CE0101960E9426153C
:102F7000BC01C7010E943B172C960FB6F894DEBF28
:102F80000FBECDBFDF91CF910F91FF90EF900895CD
:102F9000EF92FF920F93CF93DF93CDB7DEB72C97CD
:102FA0000FB6F894DEBF0FBECDBF7C01E091F702F3
:102FB000F091F802E60FF11D40815181052E000CC1
:102FC000660B770B0CE021E0CE0101960E949D1567
:102FD000BC01C7010E943B172C960FB6F894DEBFC8
:102FE0000FBECDBFDF91CF910F91FF90EF9008956D
:102FF000EF92FF920F93CF93DF93CDB7DEB72C976D
:103000000FB6F894DEBF0FBECDBF83E50E94FF0967
:103010008BEFE82E82E0F82EF701608186E993E0DD
:103020000E941E17F70141815281052E000C660B8C
:10303000770B0CE022E0CE0101960E949D15BC01A9
:103040008EE893E00E943B17F70143815481052EDF
:10305000000C660B770B22E0CE0101960E949D15B5
:10306000BC0184E893E00E943B17F701458156813B
:10307000052E000C660B770B23E0CE0101960E9413
:103080002615BC018CE793E00E943B17F7014781AE
:103090005085052E000C660B770B23E0CE010196C0
:1030A0000E942615BC0184E793E00E943B170E9412
:1030B000A9102C960FB6F894DEBF0FBECDBFDF91DE
:1030C000CF910F91FF90EF900895EF92FF920F93A1
:1030D000CF93DF93CDB7DEB729970FB6F894DEBF55
:1030E0000FBECDBF7C01AB01770F660B770B09E0FC
:1030F00022E0CE0101960E949D15C7010E94F9169B
:10310000BE016F5F7F4F8FEB93E00E946D10299699
:103110000FB6F894DEBF0FBECDBFDF91CF910F91F8
:10312000FF90EF900895CF93DF93E091F702F09135
:10313000F802E60FF11DC081D1810E94F916DF93DC
:10314000CF938BE993E09F938F930E94DF160F90AC
:103150000F900F900F90DF91CF910895CF93E09152
:10316000F702F091F802E60FF11DC0810E94F916F6
:103170001F92CF938BE993E09F938F930E94DF166A
:103180000F900F900F900F90CF9108950F931F9372
:10319000CF93DF938C01EB0184E50E94FF090E942D
:1031A0000807BC018BE693E00E9465186091FC0261
:1031B0007091FD0283E693E00E9465188BE593E031
:1031C0000E94F91683E293E00115110511F088E2DF
:1031D00093E01F930F939F938F930E94DF160E949B
:1031E000ED06BC0180E593E00E9465186091FE0247
:1031F0007091FF0286E493E00E9465188CE393E0EF
:103200000E94F9160F900F900F900F9083E293E0B9
:10321000209711F088E293E0DF93CF939F938F93F1
:103220000E94DF160E940D0A809102019091030115
:10323000DC01ED91FC910480F581E02D09950F9062
:103240000F900F900F90882339F00E940D0ABC0157
:1032500083E393E00E946518C0911703D09118038F
:10326000DD278DE293E00E94F916DF93CF938BE97F
:1032700093E09F938F930E94DF160F900F900F9013
:103280000F90DF91CF911F910F910C94A910CF93C4
:10329000DF93CDB7DEB7A0970FB6F894DEBF0FBEB1
:1032A000CDBF9E012B5D3F4FF901419151919F018F
:1032B00060E270E0CE0101960E940E32BE016F5FA7
:1032C0007F4F90E080E00E94C618A0960FB6F89459
:1032D000DEBF0FBECDBFDF91CF9108957F928F9259
:1032E0009F92AF92BF92CF92DF92EF92FF920F9395
:1032F0001F93CF93DF938091040190910501DC012E
:10330000ED91FC910190F081E02D09959091DE0204
:10331000981791F08093DE02811161C082E295E0FE
:103320009F938F9380E395E09F938F930E9447191B
:103330000F900F900F900F908091FB02712C8F36A1
:1033400041F481E090E09093180380931703772471
:1033500073948091FE029091FF029058029708F0BA
:1033600041C0109218031092170377247394809130
:10337000CA029091CB020E94A604EC010E9424078D
:103380007C010E941E076C01E091DB02F091DC02DF
:10339000EE5BFF4F80809180A280B380E091D002ED
:1033A000F091D102EE5BFF4F028113810E949C04D9
:1033B000E0911703F0911803EB30F10508F08DC090
:1033C000EC51F64E0C947E35101A101A6D1A061B2D
:1033D000CA1A101A101A101ACA1A061B101A89E2F1
:1033E00095E09ECFE091DB02F091DC02808191813B
:1033F0000E94CF06882309F4B4CFE091D002F09167
:10340000D102808191810E94CF068111B0CF80913D
:10341000FB02823609F4A5CF803709F0A8CFA1CFEF
:103420009093CB028093CA02711057C01092C902C8
:103430001092C8028091FE029091FF022091A50394
:103440003091A603280F391F2A153B050CF05AC0EE
:10345000B60188E592E00E943C098091FB02863625
:1034600081F5B70188E592E00E943C0980910C014A
:1034700090910D01895D944061F08091C802909116
:10348000C902892BE1F185E090E0909318038093C5
:103490001703809117039091180303970297E8F49C
:1034A0008091DA02882309F46CC0B70188E097E0C4
:1034B0000E943C0987E090E09093180380931703E3
:1034C0000CC08091FC029091FD020F96801791072D
:1034D00094F01092180310921703DF91CF911F916F
:1034E0000F91FF90EF90DF90CF90BF90AF909F90A3
:1034F0008F907F900895B7018CE291E0B5CF84E082
:1035000090E0C3CF2091A7033091A803820F931FAF
:10351000A816B906F4F6B70188E592E00E943C09C6
:10352000B6018CE291E00E943C098091FB02863654
:1035300041F08091FC029091FD020F970817190746
:1035400044F680910A0190910B01895D944069F4E1
:103550008091BB03882309F49CCF8091080190914E
:103560000901895D944009F494CF8091C80290913B
:10357000C902892B19F086E090E087CF83E090E0C4
:1035800084CF8091DD02882309F4A7CFB60184E8B7
:1035900093E08ECF21E02093DA029093CD028093C6
:1035A000CC026091020370910303AE018091B303DA
:1035B0009091B4030E942A0784E090E0909318034E
:1035C000809317032091ED023091EE028091FE026C
:1035D0009091FF028217930774F48091FB02863664
:1035E00009F47BCF8091FC029091FD02409708176F
:1035F00019070CF072CFC53BD10528F03093F002CB
:103600002093EF0266CF88E090E056CF21E0209330
:10361000DD029093CF028093CE02609100037091FF
:103620000103AE018091B1039091B2030E942A0779
:1036300083E090E090931803809317032091ED02AC
:103640003091EE028091FE029091FF022817390717
:1036500074F48091FB02863609F43FCF8091FC021E
:103660009091FD024096801791070CF036CF89E0CB
:1036700090E0C53BD10508F41FCF3093F2022093B0
:10368000F10227CF9093FF028093FE021092DD0299
:103690001092DA020E945F070E946E190C942F119B
:1036A000CF93DF93EC018091FC029091FD02D093C7
:1036B000FD02C093FC028C1B9D0B97FF03C09195EC
:1036C000819591098130914024F01092DD02109291
:1036D000DA020E945F070E946E198091FB02803718
:1036E00071F48091F9029091FA028C1B9D0B97FF67
:1036F00003C09195819591098138910524F0DF915E
:10370000CF910C942F11DF91CF9108950F931F93B8
:10371000CF93DF9300D0CDB7DEB7182F092F682FD6
:10372000792FCE0101960E945F148823E9F08091E1
:10373000FB028636A9F483E194E09F938F930F9365
:103740001F938AE194E09F938F9381E294E09F938B
:103750008F930E9447190FB6F894DEBF0FBECDBFFE
:1037600089819A810E94421B0F900F90DF91CF9127
:103770001F910F910895CF93DF93EC0160E0888152
:103780000E94401183E194E09F938F93DF93CF9346
:103790008EEF93E09F938F9381E294E09F938F93BA
:1037A0000E9447198DB79EB708960FB6F8949EBF32
:1037B0000FBE8DBFDF91CF910895CF93DF93CDB72B
:1037C000DEB7A0970FB6F894DEBF0FBECDBF9E0147
:1037D0002B5D3F4FF901419151919F0160E270E0F3
:1037E000CE0101960E940E3270E060E0CE0101969B
:1037F0000E94C618A0960FB6F894DEBF0FBECDBFCC
:10380000DF91CF9108950F931F93CF93DF9300D053
:10381000CDB7DEB7182F092F682F792FCE0101966B
:103820000E945F14882369F18091FB02803781F543
:1038300089819A812091FC023091FD02821B930BB9
:1038400097FF03C091958195910985369105ACF05C
:1038500083E094E09F938F930F931F938EE094E007
:103860009F938F9381E294E09F938F930E94DD1B3F
:103870000FB6F894DEBF0FBECDBF89819A810E943A
:10388000501B0F900F90DF91CF911F910F910895D2
:1038900083E194E0DFCF6F927F928F929F92AF92FD
:1038A000BF92DF92EF92FF920F931F93CF93DF931C
:1038B000CDB7DEB729970FB6F894DEBF0FBECDBFE8
:1038C0006B8C7C8C84E40E94FF09698D8DE992E009
:1038D0000E941E1787E992E00E94F9161F928A8DB6
:1038E0008F938BE993E09F938F930E94DF1680E97B
:1038F00092E09F938F930E94DF168E01035E1F4F0D
:103900000F900F900F900F900F900F90D12C88E890
:10391000E82E82E0F82E9DE8A92E92E0B92EF30160
:10392000ED0DF11D8081882309F45BC0863609F412
:1039300046C07CF4843621F1D394F301ED0DF11DE2
:103940008081882361F36CE28FEB93E00E94C604D0
:10395000E6CF833741F1843779F74801F2E08F0EE3
:10396000911CF80140815181052E000C660B770BEC
:103970000CE021E0CE0101960E949D159F931BC093
:10398000480182E0880E911CF80181818F9380812B
:103990008F93BF92AF920E94DF160F900F900F90FF
:1039A0000F908401C9CF4801F2E08F0E911CF801FD
:1039B00081818F9380818F93FF92EF92ECCF4801AA
:1039C000F2E08F0E911CF80140815181052E000C10
:1039D000660B770B0CE023E0CE0101960E942615C2
:1039E000CDCF6DE58FEB93E00E94C6040E94A91035
:1039F00029960FB6F894DEBF0FBECDBFDF91CF91F1
:103A00001F910F91FF90EF90DF90BF90AF909F902C
:103A10008F907F906F900895CF92DF92EF92FF92F8
:103A20000F931F93CF93DF9300D000D000D0CDB77A
:103A3000DEB7F82EE92ED62EC72E7F936F939F9375
:103A40008F938DE292E09F938F938CE08F9389E424
:103A50008F930E944B1C0CE314E00FB6F894DEBF6A
:103A60000FBECDBF46E050E0B801CE0101960E94E6
:103A7000BD3169817A818F2D9E2D0E94C631892B9F
:103A8000B1F46B817C81ED81FE818D2D9C2D09959A
:103A900026960FB6F894DEBF0FBECDBFDF91CF9153
:103AA0001F910F91FF90EF90DF90CF9008950A5FE4
:103AB0001F4F94E00A3E1907A9F68EE092E09F930B
:103AC0008F931F9287E58F930E944B1C0F900F904E
:103AD0000F900F90DDCFDF92EF92FF920F931F9325
:103AE000CF93DF93CDB7DEB761970FB6F894DEBF03
:103AF0000FBECDBF7C01D62E8E010F5F1F4FB801C8
:103B000006960E945903D7011F96DC921F971296C2
:103B1000ED91FC91DD2009F11F930F9386851F9293
:103B20008F9380E392E09F938F931F9289E48F930A
:103B30000E944B1C0FB6F894DEBF0FBECDBF61963E
:103B40000FB6F894DEBF0FBECDBFDF91CF911F91AE
:103B50000F91FF90EF90DF9008951F930F9386854C
:103B60001F928F9380E392E09F938F9382E08F93D5
:103B700087E5DDCFEF92FF920F931F93CF93DF93F3
:103B8000FC012785C0E0D0E82223D9F07C018C011C
:103B90000A5F1F4FB801848195810E94850FEC0157
:103BA00081159048B1F4F7018785882321F060E002
:103BB000C7010E946B1DB801F701848195810E94A5
:103BC000CC0ECE01DF91CF911F910F91FF90EF901E
:103BD0000895F70186859E01280F311D87FD3A95CE
:103BE000C9019350823030E8930754F08115E4E026
:103BF0009E0714F08FEF93E08115FCEF9F0714F4FC
:103C000080E09CEFEC0185E0CC0FDD1F8A95E1F7A9
:103C1000D2CF7F936F9325E332E03F932F938F931F
:103C200085E48F930E944B1C0F900F900F900F9084
:103C30000F900F900895CF92DF92EF92FF920F9323
:103C40001F93CF937C01FC018081682F70E0853049
:103C500038F49181692F70E0973078F085E001C0E9
:103C600084E00E94091EC0E08C2FCF911F910F911C
:103C7000FF90EF90DF90CF90089562817381603163
:103C800010F086E0EECF6115710509F45EC0693071
:103C900071050CF456C0992369F16150710910E067
:103CA00000E06C30710528F46C547E4FFB010081FC
:103CB00010E0F701C480D580B601C8010E94A90EAA
:103CC000C82F811131C0DF92CF921F930F9384E3ED
:103CD00092E09F938F9388E08F9385E48F930E9467
:103CE0004B1C8DB79EB708960FB6F8949EBF0FBEBB
:103CF0008DBFBACF22E01F928F931F929F931F9286
:103D00002F9383E392E09F938F9387E08F9385E4D3
:103D10008F930E944B1C8DB79EB70A960FB6F894EE
:103D20009EBF0FBE8DBF9FCF92E0C916D10409F090
:103D30009BCFF701668170E089E0623109F494CF8E
:103D400090CF8111AACF21E0D6CF911103C0882353
:103D500009F4A3CF20E0CFCFCF92DF92EF92FF9272
:103D60001F93CF93DF93CDB7DEB7EC970FB6F894E0
:103D7000DEBF0FBECDBF7C016B0119821F8E0E947A
:103D8000AE098B37910591F0BC018AE00E94091EB3
:103D9000EC960FB6F894DEBF0FBECDBFDF91CF918A
:103DA0001F91FF90EF90DF90CF900895CE01019684
:103DB0000E94D009182F882329F0CE014F960E9427
:103DC000D009182F8F8D882359F08981882341F0DD
:103DD000A601BE01615E7F4FCE010196F7010995F4
:103DE0001111E4CFD5CFCF93DF9310921803109227
:103DF00017038FE68093FB0260E08CE594E00E945D
:103E0000D90F8091D0029091D102892B21F582EFB8
:103E100090E00E94B535EC0102960E94A70DCE01FC
:103E2000805B9F4F0E94A70DCE0182569F4F0E943C
:103E3000A70DFE01E451FF4F8FEF808320E031E0BA
:103E40003983288335968083D093D102C093D002E2
:103E5000CE010E94170C8091DB029091DC02892B2D
:103E600021F582EF90E00E94B535EC0102960E94A8
:103E7000A70DCE01805B9F4F0E94A70DCE018256F9
:103E80009F4F0E94A70DFE01E451FF4F8FEF8083EB
:103E900020E031E03983288335968083D093DC029B
:103EA000C093DB02CE010E94170C0E94370D1092C6
:103EB000DD021092DA021092CF021092CE0210921E
:103EC000CD021092CC02DF91CF910895EF92FF9234
:103ED0000F931F93CF93DF938C01FC018481958115
:103EE0008130910529F0029789F1D0E0C0E014C03B
:103EF000F780168184E090E062307105A9F40E9499
:103F0000B535EC0182E391E09983888362E0812FEB
:103F10000E94FC03FA821B83CE01DF91CF911F9197
:103F20000F91FF90EF9008950E94B535EC018CE35E
:103F300091E099838883FA821B8360E0CE010E941E
:103F40008F0E61E0812F0E94FC03E6CF8681F12C69
:103F5000E12C823121F488E6E82E84E0F82E80E11D
:103F600090E00E94B535EC01F80191892AEA31E030
:103F700039832883FB82EA821D821C8281E08F873D
:103F8000DE011696399688E001900D928A95E1F748
:103F90009E87C2CFEF92FF920F931F93CF93DF9331
:103FA000EC018A819B81019710E000E08C30910543
:103FB00028F48C549E4FDC010C9110E0CE010E943D
:103FC000BF0D7C01892B51F08885811107C001301C
:103FD000110559F018F004301105C8F1DF91CF91A7
:103FE0001F910F91FF90EF90089561E070E0CE0176
:103FF0000E94661F8C01F70180819181892B29F431
:104000006A817B8182E00E94091E8A819B810697DA
:1040100061F4D801ED91FC910680F781E02DC80193
:104020000995F70111830083D9CFD7018D919C9118
:10403000FC0111830083EF50FF4F2FEF2083DF91AE
:10404000CF911F910F91FF90EF900C94170CB80136
:10405000CE010E94661FD7018D939C93BFCFCF9353
:10406000DF93EC018C818F7090E1699FB001112486
:10407000682B6C83CE010E944D098C8182608C83F9
:10408000CE010E944D098C818D7F8C83CE01DF9102
:10409000CF910C944D090F931F93CF93DF93EC01B5
:1040A00089859885DE0125E1929FA00DB11D11241F
:1040B000A80FB11D1E966C938F5F89878B85811128
:1040C0001EC0162F0FB7F8948C8181608C83CE01AF
:1040D0000E944D09612F70E084E0759567958A957F
:1040E000E1F7CE010E942F20612FCE010E942F20E8
:1040F0000FBF8FE99FE00197F1F700C0000081E05A
:1041000090E0DF91CF911F910F910895CF93DF93AE
:10411000C82FDFB7F894E7E7F4E084818E7F8483CB
:10412000CF010E944D096C2F70E084E07595679572
:104130008A95E1F787E794E00E942F206C2F87E7AC
:1041400094E00E942F20DFBF8FE99FE00197F1F7F5
:1041500000C00000DF91CF9108950F931F93CF937C
:10416000DF9300D000D0CDB7DEB700911C011091D5
:104170001D0120911E0130911F0109831A832B8399
:104180003C8390918104691708F060E060937F049C
:1041900080938004FE01E60FF11D9181890F8068F4
:1041A0000F900F900F900F90DF91CF911F910F9173
:1041B0000C948620682F82E10E94AD206FED87E786
:1041C00094E00E944B206091980387E794E00C9460
:1041D0004B2060E087E00E94AD208091FB028F368B
:1041E00059F13CF48236F1F0863651F08EE292E0DD
:1041F0000DC08037D1F08437C9F78BE392E006C059
:1042000082E692E00E9482108BE592E00E9482108A
:1042100080918004843198F460E287E794E00E9402
:10422000C604F6CF85E592E0EDCF85E592E00E94E9
:1042300082108DE492E0EACF89E492E0E7CF08951E
:10424000CF93DF93EA010E94AD20CE01DF91CF91A1
:104250000C94821049E252E060E080E00E9420214C
:1042600045E552E061E080E00E9420218091D80283
:1042700042E652E080FF02C042E252E062E080E0AB
:104280000E94202181E00E94DA2082E00C94DA2052
:10429000FC018081809398030E942A210C941312C0
:1042A0000E946B0945EF52E0682F80E00C942021BA
:1042B00045EA52E060E087E00C942021EF92FF9203
:1042C0000F931F93CF93DF93CDB7DEB72A970FB627
:1042D000F894DEBF0FBECDBF8091DE0210911703B0
:1042E000811112E080914202811749F1109342023C
:1042F00087E7E82E82E0F82E48E752E01A3070F4A3
:10430000812F90E0880F991FFC01EA58FE4F4081F1
:1043100051818E599E4FFC01E080F18063E080E086
:104320000E942021C7010E94821080918004843164
:1043300030F460E287E794E00E94C604F6CF8091F3
:10434000CA029091CB020E94A6049C01111155C093
:104350000E9424078C010E941E070817190708F005
:1043600049C00E9424079C012F3F3207B1F1C901C7
:1043700060E17EE00E9429357B01ECE3F0E0C901B9
:10438000BF010E9429359F938F93CB01BF010E94EB
:1043900029359F938F93FF92EF928AE692E09F9345
:1043A0008F938E010F5F1F4F1F930F930E94EB316E
:1043B0000FB6F894DEBF0FBECDBFEF2819F40297F9
:1043C0000E5F1F4F63E094E1981B892F0E94AD2080
:1043D000B80187E794E00E946D102A960FB6F89412
:1043E000DEBF0FBECDBFDF91CF911F910F91FF9028
:1043F000EF9008950E941E07B6CF8DEF810F823097
:1044000008F4B2CF183039F484EB90E0AC01421BD1
:10441000530B9A01A9CF193039F484EB90E0FC01D9
:10442000E21BF30B9F01A0CF15501230B0F6209184
:10443000C8023091C90298CFEF92FF920F931F9359
:10444000CF93DF93CDB7DEB729970FB6F894DEBFD1
:104450000FBECDBF7A010E94AD20C70190580297D0
:1044600088F48BE192E00E94821029960FB6F894AE
:10447000DEBF0FBECDBFDF91CF911F910F91FF9097
:10448000EF900895A701FF0C660B770B09E021E080
:10449000CE0101967C010E949D15F701019000203C
:1044A000E9F70E2D0E1B0A5F10E010173CF460E2D6
:1044B00087E794E00E944B201F5FF7CFB70187E7A3
:1044C00094E00E946D10D1CF2F923F924F925F9255
:1044D0006F927F928F929F92AF92BF92CF92DF9214
:1044E000EF92FF920F931F93CF93DF93CDB7DEB779
:1044F0002D970FB6F894DEBF0FBECDBF7B876A87BE
:104500001A013D872C87E02EFC0109958C016090F3
:10451000990370909A0360919B0370919C0390584B
:10452000029710F400E018EC072E000C880B990B92
:104530000E9483066C01B301770C880B990B0E94D3
:1045400083063C01B801012E000C880B990B0E94D8
:1045500083069C019FB7F8943093D7022093D6022C
:104560007092D5026092D402D092D302C092D2024D
:104570009FBF0E949C046C01F12C3AE0432E512C09
:10458000612C712C4AE5842E912CA12CB12CC601F2
:104590000E94A6040A9708F076C00E947309882337
:1045A00009F492C00E949C046C010E946B09BC013A
:1045B000990F880B990B29E0660F771F881F991FA9
:1045C0002A95D1F76B5F7F4F8F4F9F4FA3019201C9
:1045D0000E945F35609198036634B9F43054410904
:1045E0005109EDE257FDE3EDA2E3B0E00E94A235F0
:1045F0000E2FEE0F110B220B330B600F711F821F5A
:10460000931FA50194010E945F3589019A011056FC
:10461000210931090230F0E81F07FFEF2F073F079C
:104620000CF44CC0011580E81807210531050CF089
:1046300048C0A8016E2D8CE00E941C228091D902F6
:104640008823D1F11092D902C801EA85FB8509952A
:10465000A801110F660B770B09E021E0CE0101964E
:104660000E949D159F938F933F922F928CEF92E023
:104670009F938F93EC85FD8509950F900F900F9078
:104680000F900F900F902D960FB6F894DEBF0FBECF
:10469000CDBFDF91CF911F910F91FF90EF90DF90F1
:1046A000CF90BF90AF909F908F907F906F905F90D2
:1046B0004F903F902F900895F12C69CF02E010E8C1
:1046C000B8CF0FEF1FE7B5CFF1100DC0A8016E2DC9
:1046D0008CE00E941C22F39463E070E080E090E0A4
:1046E0000E945D0454CFF0E8FF12F5CF45EF52E091
:1046F0006E2D8CE00E942021EECF0F931F9301E0DE
:1047000010E02DED3BE14EE153E060E57BE183E01D
:1047100097E00E9464221F910F9108950F931F93B9
:1047200002E010E027E439E147E153E062E47BE195
:1047300088EE96E00E9464221F910F910895CF9316
:104740000E946B098130910579F182309105A9F1C0
:10475000892BE1F5C091FB026C2F87E392E00E9468
:10476000C50F90E02FB7F8949093D7028093D602AC
:104770001092D5021092D40283E090E09093D3027D
:104780008093D2022FBF28EE33E248E551E269EE72
:1047900070E289E791E10E94E20A811117C060E0AE
:1047A0008C2FCF910C94401160E082E60E94401162
:1047B0000E94E920CF910C947D2360E086E60E9460
:1047C00040110E94E920CF910C948E23CF9108953F
:1047D0008091FB02823611F40C947D23863611F40D
:1047E0000C948E23803749F484ED92E09F938F934D
:1047F0000E94DD1B0F900F9008958F36E9F783EB31
:1048000092E0F4CF8091D80281FF1CC00E949C04EA
:1048100083FD49C08091020190910301DC01ED917B
:10482000FC910480F581E02D09959091D802292F03
:104830002170281739F08823C1F191609093D80234
:104840000E942A210E940807AC0161E086E00E94D4
:104850001C224091FC025091FD0261E08CE00E941C
:104860001C228091D80280FF22C080910201909189
:104870000301DC01ED91FC910084F185E02D0995A7
:10488000AC0162E086E00E941C224091FE02509141
:10489000FF028091D80280FF02C041E050E862E050
:1048A0008CE00C941C2280E0C0CF9E7FC7CF0E947A
:1048B000ED06E6CFCF936091E404662321F060918A
:1048C000E10481E068278FED94E00E94A70F8091BA
:1048D000D902882371F11092D902C091D8028C2F8D
:1048E0008C7F8093D8020E942A210E9402248FB7D5
:1048F000F8941092D7021092D6021092D50210921C
:10490000D40222E030E03093D3022093D2028FBF52
:104910002FE933E240E551E26AE271E28BE296E090
:104920000E94E20AC093D8020E942A21CF910C94DF
:104930000224CF91089581E00E948620E7E7F4E009
:1049400020E290E080E0DF01A80FB91F1E962C93B3
:10495000019684319105B9F712A2759684E0EB3C7B
:10496000F80779F708950F931F93CF93DF938FEF95
:104970008093420282E08093D80260ED77E080E08D
:1049800090E00E945D0461E08AE00E94FC03C7E7BA
:10499000D4E088E28D8361E08BE00E94FC0361E05B
:1049A0008DE00E94FC0361E08AE00E94FC038CB56C
:1049B0008F7D8CBD8CB582608CBD8DB581608DBDC9
:1049C0008CB588608CBD8CB584608CBD8CB58061E5
:1049D0008CBD8CB580648CBD1D861C8684E08A8766
:1049E000188619860BE31DE0C8010197F1F763E013
:1049F000CE010E942F20C8010197F1F763E0CE019C
:104A00000E942F208BE99FE00197F1F763E0CE0130
:104A10000E942F20C8010197F1F762E0CE010E94A9
:104A20002F20C8010197F1F788E20E9486200E949A
:104A30009B248F81982F92609F8386600E9486209E
:104A40008F818E7F8F8384600E94862082E00E9407
:104A50008620188619868E81982F94609E838C609C
:104A60000E948620DF91CF911F910F910C949B247F
:104A7000BF92CF92DF92EF92FF920F931F93CF934B
:104A8000DF93CDB7DEB76A970FB6F894DEBF0FBEDF
:104A9000CDBF7C016C0126E0C20ED11C8E010F5FE0
:104AA0001F4FB801C6010E945903F7018481958107
:104AB000892B09F085C082E090E00E94B535F701AE
:104AC00022813381FC0131832083F7019583848324
:104AD000892B09F075C01F930F9381E392E09F9398
:104AE0008F931F9285E48F930E944B1CF701848162
:104AF00095810F900F900F900F900F900F9000974F
:104B000009F061C0B12CF7018785B81621F06B2D33
:104B1000C7010E946B1D8B2D6A960FB6F894DEBFFD
:104B20000FBECDBFDF91CF911F910F91FF90EF90FE
:104B3000DF90CF90BF900895B12C85C0B11088C090
:104B400081E08C8B4EE4B601C8010E94E50EF801AD
:104B5000808191816C890B960E946D0AF801808199
:104B600091816D890B960E946D0AF8018081918177
:104B70006E890B960E946D0AF801808191810E94D6
:104B8000C30EB601F701848195810E94CC0E6EEEB2
:104B900072E080E090E00E945D04B601F70184813C
:104BA00095810E94850F8115904809F4ABCFB6011D
:104BB000F701848195810E94CC0EBB24B394A3CFCE
:104BC000F70184819581B6010E94850F8115904877
:104BD00071F7F7010481158144EBB601C8010E9409
:104BE000E50EF801808191810B960E94180AB82E7B
:104BF000F801808191810E94C30EBB2009F482CF0D
:104C0000F801808191810E94C30EB601F801808174
:104C100091810E94C20AF8018081918168EB0B9614
:104C20000E946D0AAE014E5E5F4FB601C8010E9440
:104C3000010FB82E882309F466CF8E898F3709F4C7
:104C40007BCF8FE78E8B8C89882309F477CF1C8AE2
:104C50004EE4B601C8010E94E50EF8018081918101
:104C60006C890B960E946D0AF801808191816D8993
:104C70000B960E946D0AF801808191816E890B96D6
:104C80000E946D0AF801808191810E94C30EB601D5
:104C9000F801808191810E94C20AF801808191818E
:104CA00068E40B960E946D0AF801808191810E9450
:104CB000C30E46CF0F931F93CF938C01C62F90E066
:104CC00080E00E94C834843091F4C03180F484E1E3
:104CD000C89FB001112462557E4F44E150E0C801E5
:104CE0000E94B83481E0CF911F910F91089580E028
:104CF000FACF0F931F93CF938C01C62F90E080E0E3
:104D00000E94C834843091F4C03180F484E1C89F9B
:104D1000B001112462557E4F44E150E0C8010E9469
:104D2000D03481E0CF911F910F91089580E0FACFA8
:104D30001F93CF93DF93CDB7DEB764970FB6F89488
:104D4000DEBF0FBECDBF90E080E00E94C83484304B
:104D5000F1F00E9464110E948F120E94490E8EE0B1
:104D600092E09F938F9383E08F9387E58F930E94C8
:104D70004B1C0F900F900F900F9064960FB6F89405
:104D8000DEBF0FBECDBFDF91CF911F9108950E946E
:104D9000490E47E250E066E070E088E993E00E9447
:104DA000B8340E946D0D49E050E06EE270E08BEF88
:104DB00092E00E94B8348091FC029091FD029093A1
:104DC000FA028093F90261E08091FB020E94401197
:104DD00010E0612FCE0101960E945A26882369F2C5
:104DE000CE0101960E941B1E811107C0FE01319663
:104DF00085E1815041F01192FCCFCE0101960E94D5
:104E0000CA1F1F5FE6CF612FCE0101960E9479264F
:104E1000F8CF0C945136FC01848195810C94513665
:104E2000AF92BF92CF92DF92EF92FF920F931F93B8
:104E3000CF93DF93CDB7DEB7A1970FB6F894DEBF5F
:104E40000FBECDBF7C018B016A01FB0184818823E9
:104E500039F1F70164817581082E000C990B0197D7
:104E60008C309105D0F48C549E4FFC01808190E0F1
:104E70000E94A90E811114C0A1960FB6F894DEBF4E
:104E80000FBECDBFDF91CF911F910F91FF90EF909B
:104E9000DF90CF90BF90AF90089590E080E0E8CF92
:104EA000B12C6B2DCE0101960E945A26882371F1F8
:104EB000F701248135814D815E812417350721F565
:104EC00021303105D1F02230310511F59A85992331
:104ED000A1F098E0915088F0292F30E0F701E20F1F
:104EE000F31F4AE050E04C0F5D1F240F351F418532
:104EF000F9012081421771F380E0F70126819F813B
:104F0000291302C0811104C0B394CBCFBB24BA943F
:104F1000F601B0821182B7FC08C0F80183818111CB
:104F2000ABCF6B2DC7010E945A26F80182818823DE
:104F300009F443C0F701848195810297F1F5560188
:104F4000FFEFAF1ABF0A8DE0F7013696DE015596E6
:104F500001900D928A95E1F7F7018681823191F1F6
:104F600090E080E02AEA31E03A8329839C838B83B6
:104F70001E821D8281E0888B88E0FE017896DE012A
:104F8000179601900D928A95E1F71F86CE01019642
:104F90000E9438258823C9F0CE0101960E94BA1DCF
:104FA000AC01990F660B770B09E023E0C5010E9465
:104FB0009D15CE0101960E940B27B601C7010E94E4
:104FC000D5165ACF88E694E0CDCF80E090E8E8CFC0
:104FD000CF93DF93EC010E940B27CE01DF91CF919D
:104FE0000C9451360C9451360C9451360C94513625
:104FF0000C9451360C9451360C9451361F920F92EA
:105000000FB60F9211242F933F938F939F93AF93DB
:10501000BF9380918F0390919003A0919103B091E1
:10502000920330918E0323E0230F2D3758F501961C
:10503000A11DB11D20938E0380938F039093900345
:10504000A0939103B0939203809193039091940362
:10505000A0919503B09196030196A11DB11D809377
:10506000930390939403A0939503B0939603BF91F9
:10507000AF919F918F913F912F910F900FBE0F9005
:105080001F90189526E8230F0296A11DB11DD2CFBF
:105090001F920F920FB60F9211242F933F934F93AD
:1050A0005F936F937F938F939F93AF93BF93EF9390
:1050B000FF938FEB93E00E944105FF91EF91BF9129
:1050C000AF919F918F917F916F915F914F913F91A0
:1050D0002F910F900FBE0F901F9018951F920F9257
:1050E0000FB60F9211242F938F939F93EF93FF93FB
:1050F000E091CF03F091D0038081E091D503F0914E
:10510000D60382FD1BC090818091D8038F5F8F737F
:105110002091D903821741F0E091D803F0E0E154E7
:10512000FC4F958F8093D803FF91EF919F918F91C2
:105130002F910F900FBE0F901F9018958081F4CF84
:105140001F920F920FB60F9211242F933F934F93FC
:105150005F936F937F938F939F93AF93BF93EF93DF
:10516000FF938091B900887F803609F44AC0F0F53A
:10517000883209F4A5C018F5803109F499C0B8F453
:10518000882309F4F5C0883009F492C0FF91EF91AB
:10519000BF91AF919F918F917F916F915F914F914F
:1051A0003F912F910F900FBE0F901F90189588314F
:1051B00009F486C0803251F78093670314C08034AD
:1051C00009F49BC040F48033B9F38833F9F6809337
:1051D000670385ECAEC0803509F483C0883509F4D7
:1051E00094C0883499F60E94F80FD0CF883909F41A
:1051F0008AC038F5883729F050F4883611F08037A6
:1052000029F683E0809368031092660355C08838BE
:1052100009F479C0803919F0803809F0B7CF80914E
:105220006603803208F06FC0E091660381E08E0F64
:10523000809366038091BB00F0E0EA5BFC4F8083C3
:105240003BC0803B39F0D0F4803A09F477C0883A0B
:1052500009F09CCF84E0809368031092450310927C
:105260004403F0E0E0E009958091440381110FC010
:1052700081E0809344031092240309C0803C09F428
:10528000A8CF883C09F4A5CF883B09F07FCFE091F7
:10529000450381E08E0F80934503F0E0EC5DFC4F09
:1052A00080818093BB00909145038091440329C085
:1052B00080918D038093BB0085EC8093BC0066CF0A
:1052C00090918C0380918B03981758F5E0918C0393
:1052D00081E08E0F80938C03F0E0E559FC4F8081D4
:1052E000E9CFE0918C0381E08E0F80938C03809155
:1052F000BB00F0E0E559FC4F808390918C038091D6
:105300008B039817C8F285E8D8CFE0918C0381E031
:105310008E0F80938C038091BB00F0E0E559FC4F29
:10532000808380916A0381115ECF81E0809369035D
:1053300084EA8093BC001092680328CF85EC8093A8
:10534000BC001092680380916603803230F4E091D3
:105350006603F0E0EA5BFC4F10826091660370E048
:1053600086E493E0F0E0E0E00995109266030ECF4A
:105370001092670338CF1F920F920FB60F9211242D
:105380002F933F934F935F938F939F93EF93FF934D
:10539000E3B193B1969581E09827292F217030E0F1
:1053A000C901880F991FE095E1708E2BE091C4022E
:1053B000EF7094E0E99F900111249091BC03E82FD5
:1053C000880FFF0BE20FF31F992381F1EA5FFA4F79
:1053D000E491E093C4022091C4022073D1F0809143
:1053E000D6029091D702203121F501964091D20248
:1053F0005091D3022091D4023091D5024817590719
:1054000024F082179307BCF09C013093D7022093BD
:10541000D602FF91EF919F918F915F914F913F91B4
:105420002F910F900FBE0F901F901895E651FB4FD4
:10543000CFCF0197DBCF9A01E8CF1F920F920FB623
:105440000F9211248F934F9903C081E08093D9026A
:105450008F910F900FBE0F901F9018950F931F9371
:10546000CF93DF93EFEBF3E01382128288EE93E0A9
:10547000A0E0B0E084839583A683B78384EC91E0B9
:105480009183808385EC90E09587848784EC90E01D
:105490009787868780EC90E0918B808B81EC90E001
:1054A000938B828B82EC90E0958B848B86EC90E0E2
:1054B000978B868B118E128E138E148EA5E6B4E018
:1054C00004E012E011961C930E9312961C92129710
:1054D000ECE5F4E086ED91E09183808388E592E04D
:1054E00095838483B783A683C8E6D4E082E18E8760
:1054F00060E00E94FC03EAE5F6E0E491EB87E6E475
:10550000F6E0E491F0E0EE0FFF1FE65DF94F8591C4
:1055100094919D878C8718861A8619861F821E8211
:105520001D821C821B821A8219821882E7E7F4E02E
:105530001382128282EE91E091838083ECEDF4E09D
:105540008EEE91E0918380831282E9EDF4E0118385
:1055500000831282EFEDF4E0128288EF91E09183F4
:105560008083E2EEF4E0118300831282DF91CF9119
:105570001F910F910895CDB7DEB7E097DEBFCDBF85
:10558000789484B5826084BD84B5816084BD85B51E
:10559000826085BD85B5816085BD80916E0081602A
:1055A00080936E00109281008091810082608093D0
:1055B00081008091810081608093810080918000D2
:1055C0008160809380008091B10084608093B100FD
:1055D0008091B00081608093B00080917A008460F7
:1055E00080937A0080917A00826080937A00809123
:1055F0007A00816080937A0080917A00806880933D
:105600007A001092C10061E083E00E94FC0381E215
:105610008093B0008BE08093B1008DE78093B3005E
:105620008EE38093B4008091B00080628093B000DC
:1056300064EF71E080E090E00E945D048091B00032
:105640008F7D8093B00064EF71E080E090E00E9475
:105650005D048091B00080628093B00064EF71E0DF
:1056600080E090E00E945D048091B0008F7D809387
:10567000B0000E94B3240E949209E091CF03F09100
:10568000D00382E08083E091CF03F091D0031082B9
:10569000E091CB03F091CC031082E091CD03F09127
:1056A000CE0380E180831092D703E091D303F09181
:1056B000D40386E08083E091D103F091D20380810E
:1056C00080618083E091D103F091D2038081886072
:1056D0008083E091D103F091D20380818068808340
:1056E000E091D103F091D20380818F7D80830E946D
:1056F000F31E0E9498260E9490046B017C010E9478
:105700009004C616D706E806F90619F40E945A2432
:10571000F6CF0E942A210E945E2162E087E00E946B
:10572000FC0387E00E94A50321E0019709F020E037
:10573000209397039E012A5E3F4F790134EBA32EFD
:1057400035E0B32E0E945A240E949C04B0E0A0E0F1
:105750004091190350911A0360911B0370911C032F
:10576000841B950BA60BB70B80319E40A105B1059C
:10577000A0F00E949C04B0E0A0E0809319039093F5
:105780001A03A0931B03B0931C030E94B3240E942E
:105790002A210E945E210E9492090E949004009199
:1057A0000E0110910F012091100130911101601B29
:1057B000710B820B930B683E73408105910508F4D1
:1057C00010C10E94900460930E0170930F018093AA
:1057D0001001909311010E94370D8091DD02882302
:1057E00009F47DC0809117039091180383309105CF
:1057F00009F475C0099709F472C0E091DB02F091D9
:10580000DC02EC57FF4F80899189A289B3894485D6
:10581000558566857785481759076A077B0754F4CD
:1058200044895589668977898D0184179507A6076C
:10583000B70714F400E010E8C090F102D090F20233
:1058400048018C189D0870900003609001030115B9
:10585000B0E81B0709F0FBC00E941E078538934083
:1058600008F441C0E091DB02F091DC02EE5BFF4FF7
:10587000028113818091F1029091F2022091AB0399
:105880003091AC03820F931F081719070CF0F9C071
:10589000B40180E093E00E949A1183E190910003AB
:1058A000209101031093F6020093F5021092DD029D
:1058B0002F939F936F927F92DF92CF921F930F93BC
:1058C0002CE332E03F932F938F9389E48F930E94D0
:1058D0004B1C0FB6F894DEBF0FBECDBF04C0809145
:1058E000DA028111D1C00E945F07109117030E9454
:1058F0006E1980911703909118031817190631F04B
:1059000070E060E090E080E00E94C6188091FB02A9
:10591000843709F45EC080915E0490915F040E9418
:10592000A60420916004309161048217930728F047
:1059300060E08CE594E00E94D90F8091170390916C
:10594000180311E08330910519F0099709F010E070
:105950000E94DA06082F80910C0190910D01DC0164
:10596000ED91FC910190F081E02D602F09958091DF
:105970000A0190910B01DC01ED91FC910190F08105
:10598000E02D612F09958091080190910901DC01BA
:10599000ED91FC910190F081E02D6091DE026111AA
:1059A00009C02091BB03222319F0612F111102C0FD
:1059B0006091670409958091060190910701DC01CF
:1059C000ED91FC910190F081E02D1111012F602FDC
:1059D00009950E945E210E9402240E94E9200E94F3
:1059E000B00422E0822E912C8FEB93E00E942B05D5
:1059F000181619060CF08DC48FEB93E00E94090570
:105A0000813609F481C10CF028C1833409F486C1C0
:105A10000CF0BFC08D3041F30CF0B1C08A3021F3DF
:105A2000282F082E000C330B3F938F9385E392E0D1
:105A30009F938F9381E08F9387E58F930E944B1CF8
:105A40000F900F900F900F900F900F90CDCF8091EF
:105A5000A9039091AA03881599052CF4B40180E05C
:105A600093E00E94D4118091AB039091AC0388160F
:105A700099062CF4B40180E093E00E949A1181E130
:105A80000DCF1092DD022FCF0E94DA0681112BCFAD
:105A9000E091DB02F091DC02EC57FF4F80899189A5
:105AA000A289B389448555856685778584179507CE
:105AB000A607B70754F444895589668977898D010B
:105AC000481759076A077B0714F400E010E8C090F4
:105AD000EF02D090F00248018C189D0870900203EC
