:100000000C943A030C9462030C9462030C94FB1A54
:100010000C9462030C945B1B0C9462030C946203BB
:100020000C9462030C9462030C9462030C946203BC
:100030000C9462030C9462030C9462030C946203AC
:100040000C94B4200C9462030C945F210C9439211D
:100050000C9462030C9462030C9462030C9462038C
:100060000C9413290C946203152715273928F127BE
:10007000B627152715271527B627F127152720742A
:10008000696D65206C65667400696E6720666F72C5
:100090000057616974696E6720666F7220706561D0
:1000A0006B005761697420746F2000436F6F6C00A0
:1000B0004865617400446F6F72206F70656E005404
:1000C000656D702E20636F6E74726F6C204F4646A4
:1000D0000049646C00222563223A256400202D2DFE
:1000E0002E2D2000526F6F6D2020004D6F64650033
:1000F000496E76616C6964206D6F6465002A2A2000
:1001000054657374696E67202A2A004F6666005032
:10011000726F66696C6500426565722000436F6EA0
:1001200073742E0046726964676520002564682533
:100130003032646D253032640000556E6B6E6F771F
:100140006E2073746174757321002225732200255B
:1001500064002C2256223A5B006C6F674944006CA5
:100160006F675479706500706F735065616B006ED6
:1001700065675065616B00706F735065616B4573A7
:1001800074006E65675065616B45737400657374C8
:100190005065616B006400690070006265657253B0
:1001A0006C6F70650064696666496E74656772613C
:1001B0006C00626565724469666600B2010003A561
:1001C0000102039B0106039901080297010A0295A7
:1001D000010C028D010E0182011001770112016FE5
:1001E00001140167011601257500222573220061A3
:1001F00032666138663000302E322E3133004E3A8E
:100200007B2276223A222553222C226E223A222564
:1002100053222C2273223A25642C2279223A256417
:100220002C2262223A222563222C226C223A222599
:1002300064227D002020202020202020202020203B
:10024000200054656D7020636F6E74726F6C207443
:1002500075726E6564206F666620696E206D656ECE
:10026000752E004368616E67656420746F2070723C
:100270006F66696C65206D6F646520696E206D65C1
:100280006E752E002020202020200025532074652C
:100290006D702073657420746F20257320696E2043
:1002A0004D656E752E00467269646765004265652E
:1002B00072006E756C6C0022257322005374617499
:1002C0006500526F6F6D54656D70004672696467AA
:1002D00065416E6E004672696467655365740046D9
:1002E000726964676554656D700042656572416E40
:1002F0006E004265657253657400426565725465AF
:100300006D700025750062656572536C6F7065468F
:10031000696C740062656572536C6F7746696C74C2
:1003200000626565724661737446696C740066723A
:1003300069646765536C6F706546696C74006672BA
:1003400069646765536C6F7746696C74006672699F
:100350006467654661737446696C74006873006C09
:100360006168006D6178436F6F6C54696D65466FAD
:1003700072457374006D61784865617454696D6588
:10038000466F7245737400636F6F6C54617267657A
:10039000744C00636F6F6C546172676574480068D9
:1003A0006561745461726765744C0068656174546A
:1003B0006172676574480069646C6552616E676557
:1003C0004C0069646C6552616E67654800694D61F7
:1003D00078457272004B64004B69004B7000706985
:1003E000644D61780074656D705365744D6178007B
:1003F00074656D705365744D696E0074656D7046FB
:100400006F726D617400636F6F6C45737400686523
:10041000617445737400667269646765536574003E
:1004200062656572536574006D6F646500FB03005F
:1004300004F0030101E5030301DE032503DB0305EB
:1004400002D8030702D5030902CD030B03C2030D33
:1004500003B7030F03AB0311039F031303930315A8
:1004600003870317037503190563031B054D031D5C
:10047000003E031E002E031F002103200014032151
:1004800000060322005F0323005C0324004D6F6419
:100490006500426565720062792070726F66696CF2
:1004A000650062792077656200467269646765005D
:1004B00025532073657420746F2025732025530005
:1004C00066616C7365007472756500280400003EF7
:1004D000162004000060161604000009160E04A081
:1004E0000296150604A2029615FB0300000116F001
:1004F000034A038D15E5034C038D15DE036E03845B
:1005000015DB034E039615D80350039615D50352F9
:10051000039615CD0354038415C20356038415B7FF
:100520000358038415AB035A0384159F035C0384AB
:100530001593035E038415870360038415750362B6
:100540000347156303640347155F036C0308155CD9
:10055000036D0308154D030000CB153E030100CBCE
:10056000152E030200CB1521030300CB1514030441
:1005700000CB1506030500CB1500020400030001A3
:10058000100302000003020100060004000605003B
:1005900020060504000302010023000100130200ED
:1005A00000030504000303041003050320000000FA
:1005B0000000000000240027002A000000000025A1
:1005C0000028002B000000000800020100000304C6
:1005D00007000000000000000000000000230026CB
:1005E00000290004040404040404040202020202B8
:1005F00002030303030303010204081020408001E7
:100600000204081020010204081020636C6F736557
:1006100064006F70656E656400467269646765208A
:10062000646F6F72202553004300A200DC000A8033
:100630000000030001000200FE9A009AFF660066B7
:10064000FF5802B004010403030404000000146E08
:10065000756C6C0025642E253033640025642E25CE
:100660003032640025642E25303164006E756C6C68
:100670000000283111241FBECFEFD8E0DEBFCDBF70
:1006800012E0A0E0B1E0E4EAFEE602C005900D92BF
:10069000A837B107D9F725E0A8E7B2E001C01D925D
:1006A000A732B207E1F713E0CAE3D3E004C0219711
:1006B000FE010E94DF35C933D107C9F70E943D2AE8
:1006C0000C9450370C940000089580E090E0089559
:1006D00080E0089508950895FC018785089580E0DD
:1006E00090E80895DC01ED91FC910084F185E02D06
:1006F000099521E08115904809F420E0822F0895A2
:100700000F931F93CF938C01C62FDC01ED91FC91C9
:100710000280F381E02D09958C1759F0F801C2830E
:100720008091B000CC2311F0806201C08F7D809356
:10073000B000CF911F910F910895FC01828108951F
:10074000FC0180850895FC016283089560E087E0E4
:100750000E94991D80919B028F36E9F03CF482360D
:1007600061F08636D9F484E291E009C0803761F007
:100770008437A1F48DEF90E013C087E191E00E94EF
:100780001A218DE191E00CC087E191E00E941A21CD
:100790008FE091E005C08BE091E002C080EF90E037
:1007A0000E941A2180913204843130F460E289E29F
:1007B00094E00E94FE20F6CF0895EF92FF920F93EF
:1007C0001F93CF93DF93CDB7DEB7A0970FB6F89402
:1007D000DEBF0FBECDBF8C01F62EE42E211103C06B
:1007E0006CE20E94FE208E2D0E2C000C990B9F9324
:1007F000EF928F2D0F2C000C990B9F93FF9285ED9C
:1008000090E09F938F93CE0101967C019F938F93ED
:100810000E943A32B701C8010E9405210FB6F89430
:10082000DEBF0FBECDBFA0960FB6F894DEBF0FBEE1
:10083000CDBFDF91CF911F910F91FF90EF90089561
:100840001F93CF93DF93EC01162F68878E819F81D2
:10085000DC01ED91FC910190F081E02D09951123CF
:1008600021F00E947E209B838A83DF91CF911F918C
:1008700008950C94AE360C94AE360C94AE360C94AF
:10088000AE360C94AE360C94AE360C94AE36CF9396
:10089000DF93EC018B810E94A41F2A8130E041E0AC
:1008A0002817390709F440E0842FDF91CF9108958C
:1008B000CF93DF93EC018B810E94A41F21E0892B51
:1008C00009F420E08A818227DF91CF910895FC010D
:1008D0009281692783810C94CD1FEF92FF920F9331
:1008E0001F93CF93DF938C01FC018481958181302C
:1008F000910519F0029761F151C084E090E06230F7
:10090000710589F40E941636EC01F801F780168112
:100910008AE391E09983888362E0812F0E94FC1F23
:10092000FA821B833DC00E941636EC01F8018781D4
:10093000168124E431E0398328838A831B8360E0B5
:10094000CE010E94670461E0812F0E94FC1F28C035
:10095000F8018681823119F0E12CF12C04C08EE07F
:10096000E82E84E0F82E80E190E00E941636EC013B
:10097000F80191892CE931E039832883FB82EA82EE
:100980001D821C8281E08F87DE011696399688E0F1
:1009900001900D928A95E1F79E8702C0C0E0D0E0F9
:1009A000CE01DF91CF911F910F91FF90EF900895AD
:1009B0006F927F928F929F92AF92BF92DF92EF924F
:1009C000FF920F931F93CF93DF93CDB7DEB7299795
:1009D0000FB6F894DEBF0FBECDBF6B8C7C8C84E469
:1009E0000E94E00F698D8FE591E00E94DC1B89E594
:1009F00091E00E94B51B1F928A8D8F9383E093E054
:100A00009F938F930E945B1082E591E09F938F9359
:100A10000E945B108E01035E1F4F0F900F900F908E
:100A20000F900F900F90D12C8AE4E82E81E0F82EE1
:100A30009FE4A92E91E0B92EF301ED0DF11D808107
:100A4000882309F45BC0863679F17CF4843609F09A
:100A500047C0480182E0880E911CF80181818F9384
:100A600080818F93BF92AF9234C08337A1F08437D7
:100A7000B9F54801F2E08F0E911CF80140815181D7
:100A8000052E000C660B770B0CE021E0CE010196E1
:100A90000E947F241AC04801F2E08F0E911CF801D9
:100AA00081818F93808112C04801F2E08F0E911CEA
:100AB000F80140815181052E000C660B770B0CE08C
:100AC00023E0CE0101960E9403249F938F93FF920F
:100AD000EF920E945B100F900F900F900F90840187
:100AE000D394F301ED0DF11D8081882309F4A4CF87
:100AF0006CE281E793E00E94FE209ECF6DE581E7E6
:100B000093E00E94FE200E94D90F29960FB6F89418
:100B1000DEBF0FBECDBFDF91CF911F910F91FF9030
:100B2000EF90DF90BF90AF909F908F907F906F90ED
:100B300008952F923F924F925F926F927F928F9281
:100B40009F92AF92BF92CF92DF92EF92FF920F935C
:100B50001F93CF93DF93FC0184819581A681B78198
:100B600080879187A287B387C080D180E280F3809D
:100B7000C482D582E682F782408351836283738385
:100B80000089118922893389048B158B268B378B39
:100B900084849584A684B784808A918AA28AB38A41
:100BA000218C308CC32DD0E024013501401A510A2C
:100BB000620A730A480C591C6A1C7B1C022C04C074
:100BC000B594A794979487940A94D2F74818590833
:100BD0006A087B084801590104C0B594A79497940A
:100BE00087942A94D2F7480C591C6A1C7B1C032C4E
:100BF00004C075956795579547950A94D2F7440EAA
:100C0000551E661E771E5E0141E0A41AB10804C09D
:100C1000F594E794D794C794AA94D2F7C40CD51C42
:100C2000E61CF71C04C0B595A795979587953A944F
:100C3000D2F78C0D9D1DAE1DBF1D229704C03595AA
:100C4000279517950795CA95D2F7BC01CD01601B72
:100C5000710B820B930B6487758786879787DF916B
:100C6000CF911F910F91FF90EF90DF90CF90BF90A9
:100C7000AF909F908F907F906F905F904F903F903C
:100C80002F900895AB01770F660B770BBA015527AC
:100C90004427FC01825B9F4F4083518362837383AF
:100CA0004483558366837783408751876287738740
:100CB0004487558766877787408B518B628B738B10
:100CC000448B558B668B778B7A96E817F90721F75B
:100CD00008950F931F93CF93DF93EC01CB01770F10
:100CE000AA0BBB0B7727662700E010E0AB01BC0125
:100CF000CE01800F911F0E949905065E1F4F0E3492
:100D00001105A1F7DF91CF911F910F910895FC017B
:100D1000862F880F8C5F808F618F82AB63ABDF0182
:100D2000A45BBF4F8C93E35BFF4F60830895CF9329
:100D3000DF93FC01EC01C45BDF4FDC01A35BBF4F21
:100D400098E0908F82E0818F92AB83AB98838C93F5
:100D5000DF91CF9108950F931F93CF938C01C62FEE
:100D600080E090E00E942935843011F4C03110F009
:100D700080E00CC084E1C89FB001112462557E4F11
:100D800044E150E0C8010E94313581E0CF911F91CC
:100D90000F9108950F931F93CF938C01C62F80E07E
:100DA00090E00E942935843011F4C03110F080E0C9
:100DB0000CC084E1C89FB001112462557E4F44E10C
:100DC00050E0C8010E94193581E0CF911F910F9129
:100DD000089549E050E06EE270E08BE992E00E94F5
:100DE000313580919C0290919D0290939A0280935C
:100DF0009902089547E250E066E070E089E493E0EC
:100E00000E9431350C94E906CF93DF93EA010E94EA
:100E1000991DCE01DF91CF910C941A21EF92FF9290
:100E20000F931F93CF93DF93CDB7DEB72A970FB6FB
:100E3000F894DEBF0FBECDBF80917E02811103C04A
:100E40001091A50201C012E080917802811751F142
:100E5000109378021A3078F4812F90E0880F991F50
:100E6000FC01E05AFE4F40815181FC01E45BFE4FE2
:100E7000E080F18006C089E3E82E81E0F82E4AE3A5
:100E800051E063E080E00E940407C7010E941A213C
:100E900080913204843130F460E289E294E00E946F
:100EA000FE20F6CF8091AE049091AF040E9488207E
:100EB0009C0111110FC00E9415268C010E940F2663
:100EC0000817190718F40E94152602C00E940F2661
:100ED0009C0116C08DEF810F823090F0183011F018
:100EE000193039F48AE090E0AC01421B530B9A01AF
:100EF00007C015501230F0F52091AC043091AD04CC
:100F00002F3F5FEF3507B1F1C90160E17EE00E943C
:100F10008A357B01ECE3F0E0C901BF010E948A350C
:100F20009F938F93CB01BF010E948A359F938F932C
:100F3000FF92EF928CE291E09F938F938E010F5F6F
:100F40001F4F1F930F930E943A320FB6F894DEBFE3
:100F50000FBECDBFEF2819F402970E5F1F4F63E05D
:100F600094E1981B892F0E94991DB80189E294E0B1
:100F70000E9405212A960FB6F894DEBF0FBECDBFA2
:100F8000DF91CF911F910F91FF90EF9008954BEE5D
:100F900050E060E080E00E94040747E151E061E03A
:100FA00080E00E9404078091B60480FD03C044E203
:100FB00051E002C044EE50E062E080E00E9404078D
:100FC00081E00E94C61D82E00C94C61DEF92FF9244
:100FD0000F931F93CF93DF93CDB7DEB729970FB64B
:100FE000F894DEBF0FBECDBF7A010E94991DC701E4
:100FF0009058029728F48DED90E00E941A2121C0AC
:10100000A701FF0C660B770B09E021E0CE010196EA
:101010007C010E947F24F70101900020E9F70E2D4A
:101020000E1B0A5F10E010173CF460E289E294E0C6
:101030000E94F6191F5FF7CFB70189E294E00E9482
:10104000052129960FB6F894DEBF0FBECDBFDF9104
:10105000CF911F910F91FF90EF9008958091B6046A
:1010600081FF20C00E947E2083FD0CC080910C0176
:1010700090910D01DC01ED91FC910480F581E02D52
:10108000099501C080E09091B604292F2170821744
:1010900049F0882311F0916001C09E7F9093B604BF
:1010A0000E94C7070E947B25AC0161E086E00E9498
:1010B000E60740919C0250919D0261E08CE00E9405
:1010C000E6078091B60480FF0CC080910C019091DE
:1010D0000D01DC01ED91FC910084F185E02D099575
:1010E00002C00E946525AC0162E086E00E94E6072E
:1010F00040919E0250919F028091B60480FF02C0F1
:1011000041E050E862E08CE00C94E6070F931F93F7
:10111000CF93DF938FEF8093780282E08093B604C1
:1011200060ED77E080E090E00E94382061E08AE0A6
:101130000E94FC1FC9E2D4E088E28D8361E08BE06D
:101140000E94FC1F61E08DE00E94FC1F61E08AE0CC
:101150000E94FC1F8CB58F7D8CBD8CB582608CBDD0
:101160008DB581608DBD8CB588608CBD8CB584607B
:101170008CBD8CB580618CBD8CB580648CBD1D86AA
:101180001C8684E08A87188619860BE31DE0C80157
:101190000197F1F763E0CE010E94D819C8010197C9
:1011A000F1F763E0CE010E94D8198BE99FE0019727
:1011B000F1F763E0CE010E94D819C8010197F1F759
:1011C00062E0CE010E94D819C8010197F1F788E2C8
:1011D0000E94721D0E94E81D8F81982F92609F834C
:1011E00086600E94721D8F818E7F8F8384600E9433
:1011F000721D82E00E94721D188619868E81982FBA
:1012000094609E838C600E94721DDF91CF911F912C
:101210000F910C94E81D089508959F92AF92BF928C
:10122000CF92DF92EF92FF920F931F93CF93DF93B2
:10123000CDB7DEB761970FB6F894DEBF0FBECDBF56
:10124000982E8B016A017901FB01828193810197BC
:101250008C30910528F4FC01EA55FE4FA08002C0B5
:10126000A12CB12C8091A402811104C06CE2C701B1
:101270000E94FE201092A4026BE7C7010E94FE208C
:1012800021E0492D69E6C7010E94DD0320E04A2DD7
:1012900064E7C7010E94DD0320E0F801408163E6B6
:1012A000C7010E94DD0320E0F801418162E6C70129
:1012B0000E94DD0320E0F801428166E6C7010E943A
:1012C000DD0320E0F801448168E6C7010E94DD03E8
:1012D00020E0F801408564E6C7010E94DD0320E0BC
:1012E000F801468160E7C7010E94DD03C114D10403
:1012F00069F0F6018081882349F062E472E0C70159
:101300000E940521B601C7010E940521F8018481D0
:101310009581019731F420E0478168E7C7010E9479
:10132000DD03F801848195810297B1F468E472E0ED
:10133000C7010E940521BE016F5F7F4FC80109965A
:101340000E94361EBE016F5F7F4FC7010E940521BC
:1013500062E2C7010E94FE20F80184819581029714
:10136000C9F5A189F0E2AF02D0011124AD010B2E25
:10137000000C660B770B809149038634D1F4B7FFDC
:1013800002C047EE01C049E12AE530E00E94FC3589
:10139000042F440F110B220B330B600F711F821FA0
:1013A000931F22E330E040E050E00E94C035BA01D4
:1013B000A90108E023E0CE0101960E9403246FE416
:1013C00072E0C7010E940521BE016F5F7F4FC70118
:1013D0000E9405216DE7C7010E94FE2061960FB6AD
:1013E000F894DEBF0FBECDBFDF91CF911F910F915B
:1013F000FF90EF90DF90CF90BF90AF909F900895B7
:10140000FB0123853485AB014F5F5F4FBC018081B9
:101410000C940D09FC018081823088F48181823036
:1014200070F48281938101978930910540F4880F8F
:10143000991FFC01E85EFE4F80819181089580E054
:1014400090E008950F931F93CF93DF938C010E9438
:101450000A0AEC01892B09F468C0D80112962D9173
:101460003C911397C90101978C30910508F05DC03C
:10147000FC01EA55FE4F80818230C9F1833029F1A9
:10148000813009F052C0E881F9812630310509F434
:1014900042C080819181B1E08E309B0709F445C044
:1014A0002EE031E031832083EF50FF4F2FEF208378
:1014B0000097D9F1DC01ED91FC910280F381E02DE0
:1014C000DF91CF911F910F91099488819981B4E0A8
:1014D00086329B0751F1009739F0DC01ED91FC91C8
:1014E0000680F781E02D099586E294E011C088819D
:1014F0009981B4E083329B07C1F0009739F0DC0199
:10150000ED91FC910480F581E02D099583E294E052
:10151000998388830AC0B1E0EE30FB0731F08EE09A
:1015200091E099838883CF01C3CFDF91CF911F9141
:101530000F9108950F931F93CF93DF93CDB7DEB72D
:1015400064970FB6F894DEBF0FBECDBF81E08983EC
:101550008A8300E010E01C830B83CE0101960E9479
:10156000220A0F5F1F4F00311105A9F764960FB6CD
:10157000F894DEBF0FBECDBFDF91CF911F910F91C9
:1015800008957F936F9327E532E03F932F938F93D6
:1015900085E48F930E94D8040F900F900F900F90C6
:1015A0000F900F900895EF92FF920F931F93CF9398
:1015B000DF93EC018A819B8101978C30910530F497
:1015C000FC01EA55FE4F008110E002C000E010E08F
:1015D000CE010E940A0A7C01892B09F444C0888547
:1015E000811141C00130110561F0E8F104301105AD
:1015F000D0F5B801CE010E946D04D7018D939C9364
:1016000032C061E070E0CE010E946D048C01D70110
:101610008D919C91892B29F46A817B8182E00E94C3
:10162000C10A8A819B81069761F4D801ED91FC91F2
:101630000680F781E02DC8010995F7011183008329
:1016400012C0D7018D919C91FC0111830083EF5052
:10165000FF4F2FEF2083DF91CF911F910F91FF90CC
:10166000EF900C94CD24DF91CF911F910F91FF90BB
:10167000EF9008959C016130710539F422503109D1
:1016800081E02230310578F00DC06230710529F417
:1016900081E02130310531F406C0672B19F481E077
:1016A000232B09F080E00895CF92DF92EF92FF9212
:1016B0000F931F93CF937C01FC018081682F70E012
:1016C0006530710514F084E072C0F7019181692FD3
:1016D00070E06730710514F085E069C0F701628140
:1016E0007381603108F062C06115710521F06930C5
:1016F000710534F460C0911107C08823F1F004C073
:1017000091111BC062E070E01F928F931F929F9314
:101710007F936F9385E592E09F938F9387E08F93FC
:1017200085E48F930E94D8048DB79EB70A960FB6B2
:10173000F8949EBF0FBE8DBF3CC0615071096C30E4
:10174000710530F4FB01EA55FE4F008110E002C044
:1017500000E010E0F701C480D580B601C8010E9406
:101760003A0BC82F811117C0DF92CF921F930F93AE
:1017700086E592E09F938F9388E08F9385E48F9323
:101780000E94D8048DB79EB708960FB6F8949EBFF6
:101790000FBE8DBF15C092E0C916D10489F4F701C0
:1017A0006681623169F070E089E001C086E00E94E4
:1017B000C10AC0E005C08111C0CF61E070E0A4CFD4
:1017C0008C2FCF911F910F91FF90EF90DF90CF90D2
:1017D00008950B960E94F81191E0811101C090E0EC
:1017E000892F0895EF92FF921F93CF93DF93EC011F
:1017F0007B01142F888199810E94E90BB7018881B0
:1018000099810E942F1288819981612F0B96DF9117
:10181000CF911F91FF90EF900C94001E2F923F925A
:101820004F925F926F927F928F929F92AF92BF92F0
:10183000CF92DF92EF92FF920F931F93CF93DF939C
:1018400000D01F92CDB7DEB78C015B015B834A836A
:1018500082E089832A01E9E04E0E511C4EEBB5016E
:10186000C8010E94F20B6A807B807301F801C0807E
:10187000D180FBE0CF0ED11C98E0892E912C312C29
:1018800022242394C6010E94A21181113228220C25
:1018900081E0881A9108B1F7F70131927F01E415D0
:1018A000F50521F7F801808191810E94E90B99E00B
:1018B00080E0915099F0F30151913F0148E0682F89
:1018C0006527282F30E035952795822F60FF02C0CD
:1018D0008CE882275695415091F7EBCFEA81FB8146
:1018E0009085981739F0F981F150F983F111B6CF4D
:1018F00080E001C081E00F900F900F90DF91CF91B9
:101900001F910F91FF90EF90DF90CF90BF90AF901D
:101910009F908F907F906F905F904F903F902F900F
:1019200008950895AC019FEF9F5FFA01E90FF11D43
:1019300097FDFA952081222321F02613F5CF892FD8
:1019400008958FEF08950F931F93CF93DF938B012B
:10195000EA01FC01608189E592E00E94920C87FD1A
:1019600008C0C80FD11D87FDDA95C8010E94E53176
:101970006883DF91CF911F910F9108950F931F936B
:10198000CF93DF938B01EA01FC0160818EE592E049
:101990000E94920C87FD08C0C80FD11D87FDDA9503
:1019A000C8010E94E5316883DF91CF911F910F91AB
:1019B0000895DF92EF92FF920F931F93CF93DF93DF
:1019C00000D0CDB7DEB77B018A01FC01D0806D2D40
:1019D0008AE291E00E94920CF1E6DF1215C0F70155
:1019E000D8011A968081882371F181340CF08753D5
:1019F0008295807F9181913414F0975301C0905368
:101A0000892B8D933296EECF9AE6D91211C0B70189
:101A1000CE0101960E9434238823A9F089819A81FE
:101A200025E0959587952A95E1F7F80181870BC008
:101A300087FD09C0080F111D87FD1A95C7010E9477
:101A4000E531F80160830F900F90DF91CF911F91E6
:101A50000F91FF90EF90DF90089508950895809181
:101A60000C0190910D01DC01ED91FC910084F18558
:101A7000E02D09940895E0919702F0919802E60F05
:101A8000F11D60810C94DC1BEF92FF920F931F936A
:101A9000CF93DF93CDB7DEB72C970FB6F894DEBFA8
:101AA0000FBECDBF7C01E0919702F0919802E60F46
:101AB000F11DA081B181AD010B2E000C660B770BDF
:101AC000809149038634D1F477FD02C049E101C019
:101AD00047EE2AE530E00E94FC35042F440F110B3D
:101AE000220B330B600F711F821F931F22E330E024
:101AF00040E050E00E94C035BA01A9010CE023E0AB
:101B0000CE0101960E940324BC01C7010E94F01B74
:101B10002C960FB6F894DEBF0FBECDBFDF91CF91EC
:101B20001F910F91FF90EF900895EF92FF920F9306
:101B3000CF93DF93CDB7DEB72C970FB6F894DEBF07
:101B40000FBECDBF7C01E0919702F0919802E60FA5
:101B5000F11D40815181052E000C660B770B0CE0C6
:101B600023E0CE0101960E940324BC01C7010E941C
:101B7000F01B2C960FB6F894DEBF0FBECDBFDF91E1
:101B8000CF910F91FF90EF900895EF92FF920F93F6
:101B9000CF93DF93CDB7DEB72C970FB6F894DEBFA7
:101BA0000FBECDBF7C01E0919702F0919802E60F45
:101BB000F11D40815181052E000C660B770B0CE066
:101BC00021E0CE0101960E947F24BC01C7010E9442
:101BD000F01B2C960FB6F894DEBF0FBECDBFDF9181
:101BE000CF910F91FF90EF900895EF92FF920F9396
:101BF000CF93DF93CDB7DEB729970FB6F894DEBF4A
:101C00000FBECDBF7C01AB01770F660B770B09E0F0
:101C100022E0CE0101960E947F24C7010E94B51BDD
:101C2000BE016F5F7F4F81E793E00E9405212996F7
:101C30000FB6F894DEBF0FBECDBFDF91CF910F91ED
:101C4000FF90EF900895EF92FF920F931F93CF9321
:101C5000DF93FC012785222309F43FC07C018C011E
:101C60000A5F1F4FB801848195810E94A91E8115CA
:101C7000F0E89F0749F4F7018785882329F160E0A0
:101C8000C7010E94591E20C0F7012685AC01420FF2
:101C9000511D27FD5A959A013350223050E83507DF
:101CA00054F0211584E0380714F02FEF33E02115AC
:101CB000ECEF3E0714F420E03CEFE90185E0CC0FA7
:101CC000DD1F8A95E1F702C0C0E0D0E8B801F70156
:101CD000848195810E941D1E02C0C0E0D0E8CE0123
:101CE000DF91CF911F910F91FF90EF90089544E302
:101CF00052E060E087E00C9404070E94A71A44E8D1
:101D000052E0682F80E00C9404072F923F924F928C
:101D10005F926F927F928F929F92AF92BF92CF927B
:101D2000DF92EF92FF920F931F93CF93DF93CDB784
:101D3000DEB72D970FB6F894DEBF0FBECDBF7B8701
:101D40006A871A013D872C87E02EFC0109958C01DA
:101D5000C0904A03D0904B0360914C0370914D03A7
:101D60009058029710F400E018EC072E000C880B36
:101D7000990B0E9448223C01B601DD0C880B990B9F
:101D80000E9448226C01B801012E000C880B990BAF
:101D90000E944822A301B6010E94CE1A0E947E2012
:101DA0006C01F12C3AE0432E512C612C712C4AE548
:101DB000842E912CA12CB12CC6010E9488200A9758
:101DC00008F09BC00E94AF1A882309F47DC00E94CE
:101DD0007E206C010E94A71A092E000CAA0BBB0BD7
:101DE00029E0880F991FAA1FBB1F2A95D1F7BC01B4
:101DF000CD016B5F7F4F8F4F9F4FA30192010E94D8
:101E0000C035609149036634C9F430544109510921
:101E100057FD02C0EDE201C0E3EDA2E3B0E00E9495
:101E200003360E2FEE0F110B220B330B600F711FB9
:101E3000821F931FA50194010E94C035DA01C901D8
:101E40009056A109B1098230F0E89F07FFEFAF0774
:101E5000BF0744F0811520E89207A105B1052CF4D5
:101E60008C0105C002E010E802C00FEF1FE7A801D7
:101E70006E2D8CE00E94E6078091B704811102C0AC
:101E8000F12C9ACF1092B704C801EA85FB85099519
:101E9000A801110F660B770B09E021E0CE01019636
:101EA0000E947F249F938F933F922F928BE892E022
:101EB0009F938F93EC85FD8509950F900F900F9060
:101EC0000F900F900F9019C0F11006C0A8016E2D51
:101ED0008CE00E94E60709C0F0E8FF1206C044E863
:101EE00052E06E2D8CE00E940407F39463E070E0F2
:101EF00080E090E00E9438205FCF2D960FB6F894D6
:101F0000DEBF0FBECDBFDF91CF911F910F91FF902C
:101F1000EF90DF90CF90BF90AF909F908F907F9089
:101F20006F905F904F903F902F9008950F931F9365
:101F300001E010E023E531E14DEA52E065E578E2A9
:101F400086E991E20E94850E1F910F9108950F93EB
:101F50001F9302E010E02CE231E146EA52E067E430
:101F600078E281E991E20E94850E1F910F91089518
:101F7000CF93DF9300D000D0CDB7DEB7809178014A
:101F800090917901A0917A01B0917B0189839A8324
:101F9000AB83BC830E94A71A8C0F9D1F60E0FC01DD
:101FA00081810F900F900F900F90DF91CF910C9443
:101FB00091256DE781E793E00E94FE200C94E01DDF
:101FC000682F81E793E00E94FE206AE381E793E0B7
:101FD0000E94FE2081E080933D030895EF92FF92DE
:101FE0000F93CF93DF93CDB7DEB72C970FB6F8944E
:101FF000DEBF0FBECDBF83E50E94E00F8BE9E82E68
:1020000082E0F82EF701608188E294E00E94DC1BF8
:10201000F70141815281052E000C660B770B0CE015
:1020200022E0CE0101960E947F24BC0180E294E070
:102030000E94F01BF70143815481052E000C660BB2
:10204000770B22E0CE0101960E947F24BC0186E13D
:1020500094E00E94F01BF70145815681052E000C8B
:10206000660B770B23E0CE0101960E940324BC018E
:102070008EE094E00E94F01BF70147815085052E09
:10208000000C660B770B23E0CE0101960E9403241F
:10209000BC0186E094E00E94F01B0E94D90F2C96B0
:1020A0000FB6F894DEBF0FBECDBFDF91CF910F9179
:1020B000FF90EF900895CF93DF93CDB7DEB79E01E9
:1020C0002B5F3F4FF901419151919F0160E870E012
:1020D0008DEB92E00E945C326DEB72E081E793E061
:1020E0000E940521DF91CF910895CF93DF93E09176
:1020F0009702F0919802E60FF11DC081D1810E94F4
:10210000B51BDF93CF9383E093E09F938F930E945F
:102110005B100F900F900F900F90DF91CF9108956B
:10212000CF93E0919702F0919802E60FF11DC081E4
:102130000E94B51B1F92CF9383E093E09F938F93F0
:102140000E945B100F900F900F900F90CF91089509
:102150000F931F93CF93DF938C01EB0184E50E94D3
:10216000E00F0E947B25BC018AEF92E00E94F50DF2
:1021700060919C0270919D0282EF92E00E94F50DA9
:102180008AEE92E00E94B51B0115110519F482EB4D
:1021900092E002C087EB92E01F930F939F938F937F
:1021A0000E945B100E946525BC018FED92E00E94A9
:1021B000F50D60919E0270919F0285ED92E00E9464
:1021C000F50D8BEC92E00E94B51B0F900F900F90D5
:1021D0000F90209719F482EB92E002C087EB92E017
:1021E000DF93CF939F938F930E945B100E942F0DDC
:1021F00080910C0190910D01DC01ED91FC91048026
:10220000F581E02D09950F900F900F900F9081119F
:102210001BC0C091A502D091A602DD278CEB92E0F5
:102220000E94B51BDF93CF9383E093E09F938F933E
:102230000E945B100F900F900F900F90DF91CF9145
:102240001F910F910C94D90F0E942F0DBC0182ECAD
:1022500092E00E94F50DDDCFCF93DF93CDB7DEB7CF
:10226000A0970FB6F894DEBF0FBECDBF9E012B5DC9
:102270003F4FF901419151919F0160E270E0CE0121
:1022800001960E945C32BE016F5F7F4F80E090E05C
:102290000E94A810A0960FB6F894DEBF0FBECDBF67
:1022A000DF91CF910895CF93DF93CDB7DEB7A0979D
:1022B0000FB6F894DEBF0FBECDBF9E012B5D3F4F22
:1022C000F901419151919F0160E270E0CE010196C8
:1022D0000E945C3260E070E0CE0101960E94A8107E
:1022E000A0960FB6F894DEBF0FBECDBFDF91CF91A1
:1022F000089580919B02823611F40C94960F8636D5
:1023000011F40C94A70F803719F483E692E004C00F
:102310008F3641F482E492E09F938F930E94531191
:102320000F900F900895FC01848195810C94AE3636
:10233000CF93DF93EC010E949311CE01DF91CF91F7
:102340000C94AE36FC0190810180F281E02DF8946E
:102350008181892B81832281892F80952823228363
:10236000A7E0B0E01197F1F7218182238183A3E2F6
:10237000B0E01197F1F780817894EFECF0E03197BD
:10238000F1F7982381E009F480E00895FC012081B1
:10239000A181B281611103C085E0E1E402C087E35D
:1023A000EAE0F89412969C911297322F309593237D
:1023B00012969C93129711969C911197922B1196BD
:1023C0009C93119794E0E99FF00111243597319780
:1023D000F1F712969C911297922B12969C937894F7
:1023E000E4E08E9FC001112405970197F1F708954D
:1023F000DC012C911196ED91FC911297F89481815A
:10240000922F90958923818378948DE743E050E063
:10241000815021F1DA011197F1F730813223C1F3B4
:10242000F8948281892382838181822B81837894AD
:10243000ABE7B7E01197F1F7F89481819823918386
:1024400083E191E00197F1F78081282381E009F091
:1024500080E07894E3E6F6E03197F1F70895EF92A3
:10246000FF920F931F93CF93DF937B018C01055F46
:102470001F4F65E5C8010E94001EE70188E0E80ED5
:10248000F11C6991C8010E94001ECE15DF05C9F735
:10249000DF91CF911F910F91FF90EF900895BF9220
:1024A000CF92DF92EF92FF920F931F93CF93DF9320
:1024B000CDB7DEB76A970FB6F894DEBF0FBECDBFBB
:1024C0007C016C0126E0C20ED11C8E010F5F1F4FF4
:1024D000B801C6010E94361EF70184819581892BBF
:1024E00039F582E090E00E941636F70122813381AF
:1024F000FC0131832083F70195838483892BC1F408
:102500001F930F9385E792E09F938F931F9285E42B
:102510008F930E94D804F701848195810F900F90CA
:102520000F900F900F900F90009729F410E0BDC00E
:10253000F70184819581B6010E94A91E81159048FA
:1025400009F0ACC0F7010481158144EBB601C80164
:102550000E94F20BF801808191810B960E94A211DA
:10256000B82EF801808191810E94E90BBB20F1F225
:10257000F801808191810E94E90BB601F801808108
:1025800091810E942F12F8018081918168EB0B9656
:102590000E94001EAE014E5E5F4FB601C8010E9450
:1025A0000E0CB82E882311F28E898F3721F08FE719
:1025B0008E8B81E001C080E09C89992311F01C8AF8
:1025C00002C0882389F14EE4B601C8010E94F20BD3
:1025D000F801808191816C890B960E94001EF801A0
:1025E000808191816D890B960E94001EF801808187
:1025F00091816E890B960E94001EF8018081918165
:102600000E94E90BB601F801808191810E942F128E
:10261000F8018081918168E40B960E94001EF80108
:10262000808191810E94E90B81E08C8B4EE4B601A0
:10263000C8010E94F20BF801808191816C890B9690
:102640000E94001EF801808191816D890B960E9485
:10265000001EF801808191816E890B960E94001EF8
:10266000F801808191810E94E90BBB2009F45ECFC3
:10267000B601F701848195810E941D1E6EEE72E005
:1026800080E090E00E943820B601F70184819581B6
:102690000E94A91E8115904809F448CFB601F701A0
:1026A000848195810E941D1E11E0F701878518170E
:1026B00021F0612FC7010E94591E812F6A960FB623
:1026C000F894DEBF0FBECDBFDF91CF911F910F9168
:1026D000FF90EF90DF90CF90BF9008958F929F92E0
:1026E000AF92BF92CF92DF92EF92FF920F931F9320
:1026F000CF93DF936C017B014A0159010E947E2038
:102700008C01C0E0C8010E9488200A9738F50E9419
:10271000AF1A882331F00E947E208C01F6010995C2
:1027200002C0C11104C0F7010995C0E004C0C0385F
:1027300011F4F4010995D091B704DD2339F010921A
:10274000B704F7010995F501099509C0CF5F63E06A
:1027500070E080E090E00E943820D4CFD0E08D2F50
:10276000DF91CF911F910F91FF90EF90DF90CF906D
:10277000BF90AF909F908F900895CF930E94A71A1B
:102780008130910521F18230910551F1892B89F534
:10279000C0919B026C2F89E692E00E94920C43E06C
:1027A00050E060E070E090E00E94CE1A29E731E14D
:1027B00047E75EE066EA73E088EB9FE00E946E13F5
:1027C000811117C060E08C2FCF910C94912560E0AF
:1027D00082E60E9491250E94A603CF910C94960F49
:1027E00060E086E60E9491250E94A603CF910C949A
:1027F000A70FCF9108958F929F92AF92BF92CF92E1
:10280000DF92EF92FF920F931F93CF93DF93EC0130
:1028100088819981009709F487C0DC01ED91FC91D2
:102820000084F185E02D09958C018115B0E89B07A6
:1028300009F47AC0BC01CE0102960E946906B80173
:10284000CE01805B9F4F0E9469067E01FCEEEF0E79
:10285000F11CD7018C9181508C93843071F4FE016E
:10286000EC57FF4F84859585A685B785E759FF4FBF
:1028700080839183A283B38342C0811140C0FE0153
:10288000EC57FF4F84849584A684B7846E01EDEEE7
:10289000CE0ED11CF60180819181A281B381A50168
:1028A0009401281B390B4A0B5B0B4C3151054CF43E
:1028B000453EFFEF5F074CF420E030E045EE5FEF70
:1028C00004C020E030E04BE150E0A0EBB4E00E9417
:1028D00003368E0102561F4FAB01BC01C8010E9496
:1028E0009905065E1F4F0E151F05B1F7D6018D9293
:1028F0009D92AD92BC92139783E0F801808388810A
:1029000099810E94D51D811117C0CE01DF91CF9111
:102910001F910F91FF90EF90DF90CF90BF90AF90FD
:102920009F908F900C94CD24FE01EF50FF4F80813B
:102930008F3F29F38F5FE2CFDF91CF911F910F91EE
:10294000FF90EF90DF90CF90BF90AF909F908F90CF
:102950000895CF92DF92EF92FF920F931F93CF9340
:10296000DF9300D000D000D0CDB7DEB7F82EE92E2F
:10297000D62EC72E7F936F939F938F938EE692E010
:102980009F938F938CE08F9389E48F930E94D80458
:102990000BEC14E00FB6F894DEBF0FBECDBF46E0DF
:1029A00050E0B801CE0101960E940C3269817A8113
:1029B0008F2D9E2D0E941532892B41F46B817C81D5
:1029C000ED81FE818D2D9C2D099513C00A5F1F4F4F
:1029D00095E00937190719F783E792E09F938F93E2
:1029E0001F9287E58F930E94D8040F900F900F904D
:1029F0000F9026960FB6F894DEBF0FBECDBFDF91C5
:102A0000CF911F910F91FF90EF90DF90CF9008959D
:102A1000CF92DF92EF92FF921F93CF93DF9300D07C
:102A2000CDB7DEB77C016B01BC0186EC94E00E945F
:102A30004737892BF1F0B70180EC94E00E944737CB
:102A4000892BC9F0BE016F5F7F4FC7010E94E5214E
:102A5000162F69817A81C7010E948F2281110DC0D2
:102A6000123058F4612F6170F60160830E94FA06FB
:102A700004C061E0F9CF60E0F7CF0F900F90DF91D5
:102A8000CF911F91FF90EF90DF90CF900895AF927C
:102A9000BF92CF92DF92EF92FF920F931F93CF934B
:102AA000DF9300D0CDB7DEB75C018B01BE016F5F55
:102AB0007F4F0E94E5216B017C0169817A81C5010C
:102AC0000E948F22811113C0C114D10481E0E80655
:102AD000F10434F08FEF9FEFF8019183808305C0FC
:102AE000F7FC05C0F801D182C0820E94FA060F905F
:102AF0000F90DF91CF911F910F91FF90EF90DF909A
:102B0000CF90BF90AF9008959C01CB01B9010E9476
:102B1000342381110C94FA0608959C01CB01B9016C
:102B20000E948D2381110C94FA0608950F931F9330
:102B3000CF93DF9300D000D0CDB7DEB78B01BC01BF
:102B4000CE0101960E949F228823E1F049815A819B
:102B50006B817C81423090E859079FEF69077907C4
:102B60004CF04115E0E85E07610571052CF04FEF70
:102B70005FE702C042E050E8F801518340838111D1
:102B80000E94FA060F900F900F900F90DF91CF9157
:102B90001F910F9108950F931F93CF93DF938B0194
:102BA000EB01C370DD270E94E531F801FF27EE0F2E
:102BB000FF1FE857FE4F0190F081E02D6083033046
:102BC00028F08091B4049091B50404C080917B02F8
:102BD00090917C02C130D10539F0C230D10539F075
:102BE000CD2B49F4029605C0805B9F4F02C08256F0
:102BF0009F4F0E948706DF91CF911F910F910C94F8
:102C0000FA06FC018081809349030E94C7070C9457
:102C1000FA060F931F93CF93DF9300D0CDB7DEB7A3
:102C2000182F092F682F792FCE0101960E948D232E
:102C30008823E9F080919B028636A9F482EA94E029
:102C40009F938F930F931F9389EA94E09F938F93A1
:102C500080EB94E09F938F930E942C110FB6F89411
:102C6000DEBF0FBECDBF89819A810E9447280F9099
:102C70000F90DF91CF911F910F910895CF93DF9324
:102C8000EC0160E088810E94912582EA94E09F93A4
:102C90008F93DF93CF938DE894E09F938F9380EB96
:102CA00094E09F938F930E942C118DB79EB7089646
:102CB0000FB6F8949EBF0FBE8DBFDF91CF910895E0
:102CC0000F931F93CF93DF9300D0CDB7DEB7182FAC
:102CD000092F682F792FCE0101960E948D2388231A
:102CE00091F180919B028037A9F489819A8120918A
:102CF0009C0230919D02821B930B97FF03C091951C
:102D0000819591098536910544F489819A810E94C3
:102D1000552819C082EA94E002C087E994E09F93A5
:102D20008F930F931F9382E994E09F938F9380EB8F
:102D300094E09F938F930E9453110FB6F894DEBFD7
:102D40000FBECDBFE2CF0F900F90DF91CF911F91BB
:102D50000F9108950F931F93CF93DF93C0E1D7E2B4
:102D60000BE811E081E793E00E94EB1C892B61F4F2
:102D7000C8010197F1F72197A9F78FEF9FEFDF9136
:102D8000CF911F910F91089581E793E0DF91CF914B
:102D90001F910F910C94C91C1F93CF93DF93EC01EB
:102DA000188210E00E94AA161D31C1F08D379105DE
:102DB000A9F08F3F2FEF920789F08C32910581F0B7
:102DC0008A33910569F09C012D7F2032310551F342
:102DD000FE01E10FF11D80831F5FE4CF80E001C0A1
:102DE00081E0C10FD11D1882DF91CF911F9108950D
:102DF0002F923F924F925F926F927F928F929F920B
:102E0000AF92BF92CF92DF92EF92FF920F931F93F8
:102E1000CF93DF9300D000D000D0CDB7DEB7809144
:102E20009B02823661F0803751F0863609F0EBC1A3
:102E300081E090E890939D0280939C02E4C1E09130
:102E40009C02F0919D02FE83ED83CF019058029782
:102E500038F481E090E890939F0280939E02D3C162
:102E60008091B4049091B504DC01AC57BF4F1C961F
:102E70004D915D916D917C911F97AD81BE81A61B97
:102E8000B70BB0938002A0937F028E529F4FFC013C
:102E9000C484D584E684F7846701FF24D7FCF094CA
:102EA000EF2CD0928602C092850280914703E09178
:102EB0004C03F0914D03FA83E98320904A0330904C
:102EC0004B03E0916E03F0916F03FC83EB838C3333
:102ED00021F08F5F8093470397C080917B02909190
:102EE0007C028E5B9F4FFC0140805180628073802A
:102EF000109247038091A5029091A60280908102D2
:102F000090908202A0908302B0908402892B09F0F5
:102F100069C0CD01B7FF04C0882799278A1B9B0B86
:102F20002091540330915503821793070CF04CC045
:102F300091E01A161B060CF090E081E018141904B9
:102F40001A041B040CF080E098133AC020919E02F2
:102F500030919F02E981FA812E173F0714F4CD01C9
:102F600002C080E090E02216330614F080E090E08A
:102F7000A901ED81FE814E1B5F0BEB81FC814E1799
:102F80005F0714F080E090E04D815E81421B530B9F
:102F9000EB81FC814E175F0714F080E090E0B301F5
:102FA0001A161B062CF0A9015C5F46155705D4F0D4
:102FB0001A161B06CCF43450621773079CF014C029
:102FC000CD01880F991F10C0B501A401E3E07595EC
:102FD000679557954795EA95D1F788279927841BD8
:102FE000950B02C080E090E0AC01990F660B770B67
:102FF000840E951EA61EB71E8092810290928202B8
:10300000A0928302B092840220914E0330914F032C
:103010000E94E535DC01CB0169E0B595A795979550
:1030200087956A95D1F78230F0E89F07FFEFAF07E9
:10303000BF0744F0811520E89207A105B1053CF4D3
:103040005C0109C052E0A52E50E8B52E04C0AA24A8
:10305000AA944FE7B42EB0928802A0928702A09162
:103060005003B0915103209181023091820240912E
:103070008302509184020E940E36DC01CB0139E0BC
:10308000B595A795979587953A95D1F7823030E811
:1030900093073FEFA307B30744F0811540E8940777
:1030A000A105B1052CF48C0105C002E010E802C0B6
:1030B0000FEF1FE710938A0200938902A091520339
:1030C000B0915303A70196010E940E36DC01CB019B
:1030D00029E0B595A795979587952A95D1F78230E0
:1030E00050E895075FEFA507B50744F0811560E844
:1030F0009607A105B1052CF4BC0105C062E070E89B
:1031000002C06FEF7FE770938C0260938B026501C2
:10311000BB0CEE08FF08ED81FE81CF010F2E000CE5
:10312000AA0BBB0B8C0D9D1DAE1DBF1D012E000CEF
:10313000220B330B800F911FA21FB31F8B01770F40
:10314000220B330B080F191F2A1F3B1F8B819C81F9
:10315000820D931D8E179F072CF41F01EB81FC81BC
:103160002E1A3F0A89819A81AC01EB81FC814E1BAA
:103170005F0BED81FE81E417F50724F48B819C81C0
:103180008E0F9F1F0230F0E81F07FFEF2F073F074A
:1031900054F0011540E814072105310584F40215A7
:1031A000130534F008C053E0251650E8350654F0F6
:1031B000422D832D24C080179107CCF015C04FEF0E
:1031C0005FE702C042E050E88417950784F00230C0
:1031D00060E816076FEF2607360764F0011570E800
:1031E0001707210531054CF4402F812F08C0482FC7
:1031F000892F05C042E080E802C04FEF8FE740937F
:103200009E0280939F0226960FB6F894DEBF0FBEF3
:10321000CDBFDF91CF911F910F91FF90EF90DF9085
:10322000CF90BF90AF909F908F907F906F905F9066
:103230004F903F902F9008958091B4049091B504E1
:103240000E94FB1380917B0290917C020E94FB13F1
:1032500080910C0190910D01DC01ED91FC910084B5
:10326000F185E02D09958115904859F480910C0164
:1032700090910D01DC01ED91FC910680F781E02D2C
:1032800009940895CF93DF931092A6021092A5029D
:103290008FE680939B0260E08EE894E00E94200419
:1032A0008091B4049091B504892B21F582EF90E0D0
:1032B0000E941636EC0102960E949706CE01805BB2
:1032C0009F4F0E949706CE0182569F4F0E949706FD
:1032D000FE01E451FF4F8FEF80832EE031E0398310
:1032E000288335968083D093B504C093B404CE016F
:1032F0000E94CD2480917B0290917C02892B21F544
:1033000082EF90E00E941636EC0102960E9497062A
:10331000CE01805B9F4F0E949706CE0182569F4F41
:103320000E949706FE01E451FF4F8FEF80832EE04D
:1033300031E03983288335968083D0937C02C09313
:103340007B02CE010E94CD240E941C1910927D02A6
:1033500010927A021092B3041092B2041092B10447
:103360001092B004DF91CF9108956817790768F43F
:10337000861B970B2091AC043091AD0428173907B8
:1033800020F49093AD048093AC040895CF93DF9321
:10339000EC0160E08AE00E94CD1F8C818EBD0DB4EF
:1033A00007FEFDCF61E08AE0DF91CF910C94CD1F45
:1033B000CF93DF93EC01862F6C81962F9F7020E1D5
:1033C000829FB0011124692B6C83CE010E94C61923
:1033D0008C8182608C83CE010E94C6198C818D7F86
:1033E0008C83CE01DF91CF910C94C6190F931F935C
:1033F000CF93DF93FC0181859085DF0125E1929FCA
:10340000A00DB11D1124A80FB11D1E966C938F5FE6
:103410008187838581111FC0162FEF010FB7F894A4
:10342000848181608483CF010E94C619612F70E07E
:1034300084E0759567958A95E1F7CE010E94D819C9
:10344000612FCE010E94D8190FBF8FE99FE001972D
:10345000F1F700C0000081E090E0DF91CF911F9173
:103460000F9108951F93CF93DF93CDB7DEB7649785
:103470000FB6F894DEBF0FBECDBF80E090E00E9493
:103480002935843009F045C00E949A0A47E250E08D
:1034900066E070E089E493E00E9419350E94B62549
:1034A00049E050E06EE270E08BE992E00E9419354D
:1034B00080919C0290919D0290939A028093990230
:1034C00061E080919B020E94912510E0612FCE0166
:1034D00001960E94CA06882381F1412FBE016F5FC9
:1034E0007F4FCB010E94540B882329F0CE01019617
:1034F0000E94D30A0CC0FE01319685E1815011F083
:103500001192FCCF612FCE0101960E94AB061F5F86
:10351000DDCF0E94FA250E94F0250E949A0A83E7D7
:1035200092E09F938F9383E08F9387E58F930E9420
:10353000D8040F900F900F900F9064960FB6F894E8
:10354000DEBF0FBECDBFDF91CF911F9108952FB782
:10355000F89480914303909144032FBF0895CF9333
:103560000E94A71A209145033091460382179307C2
:1035700051F090934603809345030E94A8200E9437
:103580009220C1E008C0C091B704CC2321F00E9472
:10359000A8200E9492208C2FCF9108959C019FB764
:1035A000F894309344032093430370934203609351
:1035B00041035093400340933F039FBF089562E04F
:1035C00088E00E94FC1F62E089E00E94FC1F62E02C
:1035D00087E00E94FC1FE8E6F0E080818560808340
:1035E000EBE6F0E0808183608083EDE6F0E08081AF
:1035F0008068808308951F920F920FB60F92112456
:103600002F933F934F935F938F939F93EF93FF93EA
:10361000E3B123B1269531E02327822F817090E01A
:10362000880F991FE170E3278E2B20916D039091F5
:103630003E03E82F880FFF0B9F7084E0989FE00DFA
:10364000F11D1124222319F0EB56FA4F02C0E7585E
:10365000FA4FE491E0933E0320913E032073F1F092
:103660008091430390914403203111F4019601C0ED
:10367000019720913F0330914003409141035091C5
:1036800042032817390714F4CA0104C084179507A8
:103690000CF4C9019093440380934303FF91EF918D
:1036A0009F918F915F914F913F912F910F900FBEFE
:1036B0000F901F9018951F920F920FB60F92112422
:1036C0008F934F9903C081E08093B7048F910F903F
:1036D0000FBE0F901F901895CF92DF92EF92FF923E
:1036E0001F93CF93DF93CDB7DEB7EC970FB6F89467
:1036F000DEBF0FBECDBF7C016B0119821F8E0E9401
:10370000AA168B37910559F0BC018AE00E94C10AC4
:103710001EC010E08F8D81110EC01123C1F0CE01AB
:1037200001960E94CC168823A1F3CE014F960E94E9
:10373000CC16182FEFCF8981882379F3A601BE011B
:10374000615E7F4FCE010196F7010995E6CFEC96B9
:103750000FB6F894DEBF0FBECDBFDF91CF911F91A2
:10376000FF90EF90DF90CF900895CF93DF93EC011F
:1037700080913D03811102C06CE201C06BE781E7DB
:1037800093E00E94FE2010923D0362E281E793E005
:103790000E94FE20DF93CF930E945B1062E281E7DC
:1037A00093E00E94FE200F900F906AE381E793E080
:1037B000DF91CF910C94FE20CF93C62F0E94B51BB2
:1037C00062E281E793E00E94FE206C2F81E793E0A4
:1037D0000E94FE2062E281E793E0CF910C94FE20EC
:1037E000CF93DF93EB010E94B51BBE0181E793E00D
:1037F000DF91CF910C940521CF92DF92EF92FF924F
:103800001F93CF93DF9300D000D0CDB7DEB76B010D
:10381000142F0E94E00F1123D9F0760184E0E80E06
:10382000F11C44E050E0B601CE0101960E940C323A
:10383000EC81F0E0EE0FFF1FE458FE4F0190F081A5
:10384000E02D6B8189819A81099511506701E3CF41
:103850000E94D90F0F900F900F900F90DF91CF9192
:103860001F91FF90EF90DF90CF90089589E493E04F
:10387000909398028093970248E16DE274E083E4AC
:103880000C94FC1B833081F028F4813099F0823055
:10389000A1F008958730A9F08830B9F08430D1F4D0
:1038A000809180008F7D03C0809180008F7780930E
:1038B0008000089584B58F7702C084B58F7D84BD64
:1038C00008958091B0008F7703C08091B0008F7D04
:1038D0008093B00008953FB7F89480919C04909134
:1038E0009D04A0919E04B0919F0426B5A89B05C09D
:1038F0002F3F19F00196A11DB11D3FBFBA2FA92F6F
:10390000982F8827820F911DA11DB11DBC01CD01EB
:1039100042E0660F771F881F991F4A95D1F70895D7
:10392000CF92DF92EF92FF920F931F93CF93DF938B
:103930006C017A018B01C0E0D0E0CE15DF0581F08B
:10394000D8016D918D01D601ED91FC910190F0812E
:10395000E02DC6010995892B11F02196EECF7E014D
:10396000C701DF91CF911F910F91FF90EF90DF90F2
:10397000CF900895FC01538D448D252F30E0842F86
:1039800090E0821B930B541710F0CF960895019787
:103990000895FC01918D828D981761F0828DDF0171
:1039A000A80FB11D5D968C91928D9F5F9F73928F32
:1039B00090E008958FEF9FEF0895FC01918D828D27
:1039C000981731F0828DE80FF11D858D90E00895F4
:1039D0008FEF9FEF0895FC01918D228D892F90E04C
:1039E000805C9F4F821B91098F739927089581E70F
:1039F00093E00E94EB1C21E0892B09F420E0822F48
:103A000008950E943737EF92FF920F931F93CF9341
:103A1000DF93EC0181E0888F9B8D8C8D981305C01E
:103A2000E889F989808185FD26C0F62E0B8D10E08E
:103A30000F5F1F4F0F731127E02E8C8DE8120CC003
:103A40000FB607FCFACFE889F989808185FFF5CFA9
:103A5000CE010E94F128F1CF8B8DFE01E80FF11D00
:103A6000E35AFF4FF0829FB7F8940B8FEA89FB89E6
:103A7000808180620AC09FB7F894EE89FF896083D5
:103A8000E889F98980818370806480839FBF81E0A9
:103A900090E0DF91CF911F910F91FF90EF900895EB
:103AA000CF93DF93EC01888D8823C9F0EA89FB89E5
:103AB000808185FD05C0A889B9898C9186FD0FC0DC
:103AC0000FB607FCF5CF808185FFF2CFA889B989B1
:103AD0008C9185FFEDCFCE010E94F128E7CFDF91D9
:103AE000CF910895CF93DF93C82FDFB7F894E9E221
:103AF000F4E084818E7F8483CF010E94C6196C2FED
:103B000070E084E0759567958A95E1F789E294E025
:103B10000E94D8196C2F89E294E00E94D819DFBF67
:103B20008FE99FE00197F1F700C00000DF91CF918E
:103B300008950F931F93CF93DF9300D000D0CDB79C
:103B4000DEB700919401109195012091960130917A
:103B5000970109831A832B833C839091330469175F
:103B600008F060E06093310480933204FE01E60FB8
:103B7000F11D9181890F80680F900F900F900F9029
:103B8000DF91CF911F910F910C94721D682F82E1EC
:103B90000E94991D6FED89E294E00E94F6196091F0
:103BA000490389E294E00C94F619009739F0DC019E
:103BB000ED91FC910480F581E02D099480E0089559
:103BC00042E050E061E772E081E793E00C94901CE2
:103BD00081E00E94721DE9E2F4E020E280E090E0E2
:103BE000DF01A80FB91F1E962C9301968431910511
:103BF000B9F712A2759684E0ED37F80779F70895C2
:103C0000EF92FF920F931F93CF93DF937C01062FC8
:103C1000C8E0D0E011E061E0802F812309F460E08A
:103C2000C7010E94C611110F2197A9F7DF91CF910B
:103C30001F910F91FF90EF9008950F931F93CF93D3
:103C4000DF93EC018B01888199810E94E90BB80117
:103C5000888199810E942F128881998164E40B9652
:103C6000DF91CF911F910F910C94001ECF93DF93A2
:103C7000FB01DC019B01205F3F4FED019C91929580
:103C80009F709A3010F0995C01C0905D90831196FE
:103C900098819F709A3010F0995C01C0905D91837B
:103CA0003296E217F30749F7FB01108ADF91CF91B3
:103CB0000895DF92EF92FF920F931F93CF93DF93BC
:103CC000CDB7DEB761970FB6F894DEBF0FBECDBF9C
:103CD0007C01D62E8E010F5F1F4FB80106960E9401
:103CE000361ED7011F96DC921F971296ED91FC911C
:103CF0001397DD2061F01F930F9386851F928F939A
:103D000084E792E09F938F931F9289E40CC01F93E6
:103D10000F9386851F928F9384E792E09F938F93F2
:103D200082E08F9387E58F930E94D8040FB6F894B2
:103D3000DEBF0FBECDBF61960FB6F894DEBF0FBEDB
:103D4000CDBFDF91CF911F910F91FF90EF90DF904A
:103D50000895CF93DF93CDB7DEB729970FB6F894C8
:103D6000DEBF0FBECDBFAE014F5F5F4F0E940E0C96
:103D7000882331F08B81882319F089819A8102C0D0
:103D800080E090E829960FB6F894DEBF0FBECDBF55
:103D9000DF91CF910895AF92BF92CF92DF92EF92D1
:103DA000FF920F931F93CF93DF93CDB7DEB7A19709
:103DB0000FB6F894DEBF0FBECDBF7C015B016A0178
:103DC000FB0184818823B9F0F70164817581082E95
:103DD000000C990B01978C30910530F4FC01EA55E9
:103DE000FE4F808190E002C080E090E00E943A0B9C
:103DF000882309F498C010E0612FCE0101960E943B
:103E0000CA06882371F1F701848195812D813E8155
:103E10008217930721F581309105C9F0029719F5B2
:103E20008A858823A1F028E0215088F0822F90E035
:103E3000F701E80FF91FAAE0B0E0AC0FBD1FA80F13
:103E4000B91F31858C91381779F380E001C081E08A
:103E5000F70126819F81291302C0811104C01F5FD1
:103E6000CBCF6FEF01C0612FF6016083118267FD38
:103E700007C0F5018381811156C0C7010E94CA069F
:103E8000F5018281882309F44AC0F7018481958174
:103E9000029709F044C05601FFEFAF1ABF0A8DE048
:103EA000F7013696DE01559601900D928A95E1F75D
:103EB000F7018681823119F48EE094E002C080E03F
:103EC00090E02CE931E03A8329839C838B831E8226
:103ED0001D8281E0888B88E0FE017896DE011796CE
:103EE00001900D928A95E1F71F86CE0101960E94FE
:103EF0004F12882329F0CE0101960E94230E02C0A2
:103F000080E090E8AC01990F660B770B09E023E0A5
:103F1000C5010E947F24CE0101960E949311B60133
:103F2000C7010E94000AA1960FB6F894DEBF0FBE2B
:103F3000CDBFDF91CF911F910F91FF90EF90DF9058
:103F4000CF90BF90AF900895CF93DF93282F30E0AC
:103F5000F901EB53FA4F8491F901E950FA4FD491EA
:103F6000F901ED51FA4FC491CC2391F081110E94D7
:103F7000421CEC2FF0E0EE0FFF1FE752FA4FA59125
:103F8000B491EC91ED2381E090E021F480E002C057
:103F900080E090E0DF91CF9108951F93CF93DF935E
:103FA000282F30E0F901EB53FA4F8491F901E950E1
:103FB000FA4FD491F901ED51FA4FC491CC23C1F0DD
:103FC000162F81110E94421CEC2FF0E0EE0FFF1F14
:103FD000E554FA4FA591B4919FB7F894111104C01C
:103FE0008C91D095D82302C0EC91DE2BDC939FBF3F
:103FF000DF91CF911F910895CF93DF9390E0FC0163
:10400000E950FA4F2491FC01ED51FA4F8491882335
:1040100061F190E0880F991FFC01EF54FA4FC591B0
:10402000D491FC01E554FA4FA591B491611109C0F6
:104030009FB7F8948881209582238883EC912E2362
:104040000BC0623061F49FB7F8948881322F3095AD
:1040500083238883EC912E2B2C939FBF06C08FB7B0
:10406000F894E8812E2B28838FBFDF91CF9108959C
:104070008F929F92AF92BF92CF92DF92EF92FF9278
:104080006B017C010E946B1C4B015C01C114D104CB
:10409000E104F104F1F00E946B1CDC01CB018819F2
:1040A0009909AA09BB09883E9340A105B10570F39F
:1040B00021E0C21AD108E108F10888EE880E83E0F9
:1040C000981EA11CB11CC114D104E104F10419F71C
:1040D000DDCFFF90EF90DF90CF90BF90AF909F909B
:1040E0008F9008952FB7F894609198047091990477
:1040F00080919A0490919B042FBF08950E94722092
:1041000028EE33E040E050E00E949E35C90108955A
:10411000CF93DF93EC010E947E208C1B9D0BDF91DF
:10412000CF91089580913504909136040E948820A3
:1041300020914803222331F0CD9720F080912D0467
:10414000846003C080912D048B7F80932D0408959B
:104150000E947E2090933604809335040E94922022
:1041600089E294E00C94C6191F920F920FB60F9239
:1041700011242F933F938F939F93AF93BF9380917D
:10418000980490919904A0919A04B0919B04309165
:10419000970423E0230F2D3720F40196A11DB11DB4
:1041A00005C026E8230F0296A11DB11D2093970498
:1041B0008093980490939904A0939A04B0939B04DD
:1041C00080919C0490919D04A0919E04B0919F04C5
:1041D0000196A11DB11D80939C0490939D04A09312
:1041E0009E04B0939F04BF91AF919F918F913F9197
:1041F0002F910F900FBE0F901F901895DC01ED913D
:10420000FC910190F081E02D09946115710579F020
:10421000FB0101900020E9F73197AF01461B570BD6
:10422000DC01ED91FC910280F381E02D099480E0A6
:1042300090E00895CF93DF93CDB7DEB765970FB6C3
:10424000F894DEBF0FBECDBFBC01CE0101960E9427
:104250001E32BE016F5F7F4F89E294E00E9405210C
:1042600065960FB6F894DEBF0FBECDBFDF91CF913C
:1042700008951F920F920FB60F9211242F933F9320
:104280004F935F936F937F938F939F93AF93BF935E
:10429000EF93FF9381E793E00E94F128FF91EF9164
:1042A000BF91AF919F918F917F916F915F914F914E
:1042B0003F912F910F900FBE0F901F9018951F9256
:1042C0000F920FB60F9211242F938F939F93EF931A
:1042D000FF93E0918103F09182038081E091870355
:1042E000F091880382FD12C0908180918A038F5FD4
:1042F0008F7320918B03821751F0E0918A03F0E0D5
:10430000EF58FC4F958F80938A0301C08081FF9105
:10431000EF919F918F912F910F900FBE0F901F9053
:10432000189580919E0290919F02089580919C0221
:1043300090919D020895CF93DF93CDB7DEB79E0194
:10434000255F3F4F49855A856F8178858D819E8194
:104350000E945C32DF91CF910895CF9360911F044A
:10436000662321F06091220481E0682780E294E0D6
:104370000E9480038091B704882329F11092B7042A
:10438000C091B6048C2F8C7F8093B6040E94C7071F
:104390000E942E0842E050E060E070E080E090E093
:1043A0000E94CE1A2DEB33E14DE75EE067EC77E03B
:1043B0008AE39DE00E946E13C093B6040E94C70773
:1043C000CF910C942E08CF9108958F929F92AF9227
:1043D000BF92CF92DF92EF92FF920F931F93CF93F2
:1043E000DF937C01FB0191838083C0E0D0E0CC248B
:1043F000C39420E030E0A90100811181D801DC9054
:10440000DD2049F1B0E2DB1203C02097F9F027C0AC
:104410008DE2D816D1F080ED8D0D8A30E0F4AAE05F
:10442000B0E00E9403364D2DDD0C550B9A01205350
:1044300031094901330FAA08BB08A5019401260FD1
:10444000371F481F591F219601C0C12C0F5F1F4FF6
:1044500011830083D1CFCD2B11F4F182E082C11002
:1044600008C066277727CB01621B730B840B950B63
:1044700002C0CA01B901DF91CF911F910F91FF9046
:10448000EF90DF90CF90BF90AF909F908F90089566
:104490000F931F93209149032634F9F49B01AC013B
:1044A00022573C474F4F5F4F57FD02C0E9E101C023
:1044B000E7EEAAE5B0E00E9403360E2FEE0F110BD7
:1044C000220B330B600F711F821F931F22E330E01A
:1044D00040E050E00E94C03505C09B01AC01305A5D
:1044E0004F4F5F4F57FD03C0E0E0F1E002C0E0E056
:1044F000FFEFAAE0B0E00E9403368F01FF0F220B0E
:10450000330B600F711F821F931F20E032E040E0E9
:1045100050E00E94C035C9011F910F9108959C0180
:10452000FB019081892F8F7D11F09E3231F481E063
:104530006217730719F080E0089581E008953F92B3
:104540004F925F926F927F928F929F92AF92BF92A3
:10455000CF92DF92EF92FF920F931F93CF93DF934F
:1045600000D0CDB7DEB74C018B016DE270E0C80121
:104570000E943C375C01BE016F5F7F4FC8010E9403
:10458000E5212B013C0169817A81C8010E948F22BB
:10459000882311F080E054C06EE270E0C8010E94F0
:1045A0003C37009781F18C010F5F1F4FBE016F5F99
:1045B0007F4FC8010E94E5216B017C0139807A811F
:1045C000632DC8010E948F228111E4CFA7019601BB
:1045D00099E0220F331F441F551F9A95D1F7132DD1
:1045E000101B6AE0C62ED12CE12CF12C115070F07A
:1045F000CA01B9016B5F7F4F8F4F9F4FA701960193
:104600000E94C035F3CF20E030E0A90173016201C0
:1046100089E0CC0CDD1CEE1CFF1C8A95D1F7AB2881
:1046200029F4C20ED31EE41EF51E04C0C21AD30A1A
:10463000E40AF50AF401C082D182E282F38281E0C9
:104640000F900F90DF91CF911F910F91FF90EF90FE
:10465000DF90CF90BF90AF909F908F907F906F90A2
:104660005F904F903F9008958F929F92AF92BF922C
:10467000FF920F931F93CF93DF9300D000D0CDB75D
:10468000DEB78C01CE0101960E949F22F82E88236E
:10469000A9F129813A814B815C818091490386345B
:1046A000C1F457FD02C0EDE201C0E3EDA2E3B0E0CA
:1046B0000E9403368E2EEE0F9908AA08BB08680DDB
:1046C000791D8A1D9B1D2AE530E040E050E00E94E4
:1046D000C035223080E838078FEF480758074CF084
:1046E0002115E0E83E07410551052CF02FEF3FE78B
:1046F00002C022E030E8F801318320838F2D0F9033
:104700000F900F900F90DF91CF911F910F91FF901D
:10471000BF90AF909F908F9008958F929F92AF928D
:10472000BF92EF92FF920F931F93CF93DF9300D02E
:1047300000D0CDB7DEB78C017B018CE696E00E94FD
:104740004737892B41F481E090E8F8019183808319
:10475000FF24F39448C0B701CE0101960E949F2226
:10476000F82E882309F43FC029813A814B815C816E
:10477000809149038634D9F430544109510957FDD9
:1047800002C0EDE201C0E3EDA2E3B0E00E94033617
:104790008E2EEE0F9908AA08BB08680D791D8A1D98
:1047A0009B1D2AE530E040E050E00E94C035DA0170
:1047B000C9019056A109B1098230F0E89F07FFEFC7
:1047C000AF07BF0744F0811520E89207A105B105A6
:1047D0002CF49C0105C022E030E802C02FEF3FE737
:1047E000F801318320838F2D0F900F900F900F9041
:1047F000DF91CF911F910F91FF90EF90BF90AF90FD
:104800009F908F9008958F929F92AF92BF92DF9268
:10481000EF92FF920F931F93CF93DF93EC01D02E73
:1048200077FD03C080E2888309C08DE2888370959C
:104830006095509541955F4F6F4F7F4F4A015B01E7
:1048400039E0B594A794979487943A95D1F7740179
:10485000213061F0223029F404E610E0ECE5F6E0C6
:1048600009C008EE13E0E4E5F6E004C00AE010E059
:10487000E4E6F6E09A01AB01317044275527D801F0
:104880000E940336DC01CB019F5FAF4FBF4F29E091
:10489000B595A795979587952A95D1F7BC0180176F
:1048A000910730F074018FEFE81AF80A60E070E0C9
:1048B0007F936F93FF92EF92FF93EF930D2D10E094
:1048C000015011091F930F93CE0101969F938F936F
:1048D0000E949B218DB79EB70A960FB6F8949EBF93
:1048E0000FBE8DBFCE01DF91CF911F910F91FF9031
:1048F000EF90DF90BF90AF909F908F900895CF92F0
:10490000DF92EF92FF920F931F93CF93DF93D82FF5
:10491000C92F122FCA019058029748F46FE476E02D
:104920008D2F9C2F0E941E328D2F9C2F2DC0809189
:104930004903863409F59A01AB0122573C474F4F92
:104940005F4F57FD02C0E9E101C0E7EEAAE5B0E024
:104950000E940336CE2EEE0FDD08EE08FF086C0D28
:104960007D1D8E1D9F1D22E330E040E050E00E943F
:10497000C035BA01A90103C0505A6F4F7F4F212F94
:104980008D2F9C2F0E940324DF91CF911F910F91B7
:10499000FF90EF90DF90CF900895EF92FF920F93EA
:1049A0001F93CF93DF93FC01A081B181109709F48D
:1049B00041C0EC01ED91FC9111970680F781E02D4B
:1049C000CD0109958823B1F17E01F1EFEF0EF11CC5
:1049D000D7018C918D3370F188819981DC01ED9143
:1049E000FC910084F185E02D09958C01811590489A
:1049F00009F1B801CE0102960E944206B801CE012B
:104A0000805B9F4F0E94420660E070E0CE018256BC
:104A10009F4F0E944206FE01E351FF4FCC57DF4FEC
:104A20008C859D85AE85BF8580839183A283B3836A
:104A3000F7011082DF91CF911F910F91FF90EF90BE
:104A400008952091A5023091A60281E0243031051D
:104A500029F02830310511F080E008950895CF92B3
:104A6000DF92EF92FF92CF93DF934817590708F434
:104A7000CA019C01DB010E94FC3520E13EE040E0E0
:104A800050E00E94C03569017A01E9010E942125A8
:104A9000882321F0CC27DD27CC19DD09E0917B02AA
:104AA000F0917C02EE5BFF4F80819181A281B38106
:104AB000CA0FDB1FD0938E02C0938D02DF91CF917E
:104AC000FF90EF90DF90CF900895E0917B02F091FE
:104AD0007C02808191810E94D51D882349F0E0915C
:104AE0007B02F0917C02EE5BFF4F828193810895FF
:104AF00080E090E80895E091B404F091B5048081DD
:104B000091810E94D51D882349F0E091B404F09171
:104B1000B504EE5BFF4F82819381089580E090E8B9
:104B2000089590919B02981309C02091A50230919D
:104B3000A602255031092330310528F41092A6022F
:104B40001092A50202C0662381F080939B028F36EB
:104B500051F481E090E890939D0280939C029093A1
:104B60009F0280939E020C94E9060895CF93DF93F1
:104B7000C9E4D3E080917B0290917C026D8D029616
:104B80000E94870680917B0290917C026E8D805BF3
:104B90009F4F0E94870680917B0290917C026F8DCF
:104BA00082569F4F0E9487068091B4049091B5046D
:104BB00068A102960E9487068091B4049091B50482
:104BC00069A1805B9F4F0E9487068091B4049091F9
:104BD000B5046AA182569F4FDF91CF910C9487064E
:104BE00047E250E068E276E089E493E00E940C320C
:104BF0000C94B62560E08FE60E949125EBE9F2E087
:104C000081E090E8928381839483838386E690E0B9
:104C10009683858380E09AE09087878308958091CA
:104C2000B2049091B3040C9488208091B0049091C8
:104C3000B1040C948820FC0177FF03C07195619545
:104C4000710935E0759567953A95E1F76635710517
:104C500014F065E570E077FF02C060E070E02AEADA
:104C600031E0261B370BA081B1810E94E535DC01C4
:104C7000CB0129E0B595A795979587952A95D1F70A
:104C8000918380830C94E906FC0177FF03C0719542
:104C9000619571099B0145E0359527954A95E1F7A6
:104CA0002B39310514F02AE930E037FF02C020E04B
:104CB00030E02A593D4FA081B1810E94E535DC01E9
:104CC000CB0129E0B595A795979587952A95D1F7BA
:104CD000823020E892072FEFA207B2077CF08115FF
:104CE00020E89207A105B10524F4BC01499734F0EE
:104CF00002C06FEF7FE77183608304C089E190E0B9
:104D0000918380830C94E9067F928F929F92AF9259
:104D1000BF92CF92DF92EF92FF920F931F93CF93A8
:104D2000DF938091100190911101DC01ED91FC91D4
:104D30000190F081E02D099590917E028917A9F0EC
:104D400080937E02811103C08BE096E002C082E175
:104D500096E09F938F9389E196E09F938F930E94B3
:104D60002C110F900F900F900F9080919B028F3617
:104D700049F481E090E09093A6028093A502772405
:104D8000739401C0712C80919E0290919F02905863
:104D9000029708F467C1E0917B02F0917C02808168
:104DA00091810E94D51D882309F45CC1E091B4046F
:104DB000F091B504808191810E94D51D811108C0B8
:104DC00080919B02823609F44DC1803709F44AC1B3
:104DD0008091AE049091AF040E948820EC010E9463
:104DE00015267C010E940F266C01E0917B02F09158
:104DF0007C02EE5BFF4F80809180A280B380E091C7
:104E0000B404F091B504EE5BFF4F028113810E9460
:104E10007E20E091A502F091A602EB30F10508F0AA
:104E200028C1EC5CFF4F0C94DF359093AF04809366
:104E3000AE0471101EC11092AD041092AC046091CA
:104E40009E0270919F022091560330915703260FC6
:104E5000371F2A153B055CF5B6018AE090E00E94F9
:104E6000B51980919B02863649F080919C02909101
:104E70009D020F96801791070CF0E8C0B7018AE0F9
:104E800090E00E94B5198091060190910701865229
:104E9000944009F44EC08091AC049091AD04892BEC
:104EA00019F085E090E041C084E090E03EC0809140
:104EB000580390915903860F971FA816B9060CF056
:104EC000C5C0B7018AE090E00E94B519B6018AE03A
:104ED00090E00E94B51980919B02863649F080913E
:104EE0009C0290919D020F97081719070CF0AEC015
:104EF00080910401909105018652944059F480916B
:104F00006C038823B1F080910201909103018652D5
:104F1000944079F08091AC049091AD04892B19F004
:104F200086E090E002C083E090E09093A602809338
:104F3000A5028091A5029091A6020397029708F01E
:104F400098C080917A02882321F0B70188E097E029
:104F500008C080917D02882309F48BC0B60184E8E3
:104F600093E00E94B51987E090E077C021E020939C
:104F70007A029093B1048093B0046091A202709180
:104F8000A302AE0180916403909165030E942F25D6
:104F900084E090E09093A6028093A50220918D0278
:104FA00030918E0280919E0290919F02821793070A
:104FB00074F480919B02863609F45BC080919C0258
:104FC00090919D024097081719070CF052C02B973B
:104FD00028F03093900220938F0238C088E090E050
:104FE0003CC021E020937D029093B3048093B204EF
:104FF0006091A0027091A102AE0180916203909134
:1050000063030E942F2583E090E09093A602809393
:10501000A50220918D0230918E0280919E02909186
:105020009F022817390764F480919B02863609F1A4
:1050300080919C0290919D02409680179107CCF43C
:105040002B9748F030939202209391021092A6027F
:105050001092A5020EC089E090E09093A602809382
:10506000A50207C01092A6021092A502772473949D
:10507000AFCEDF91CF911F910F91FF90EF90DF9016
:10508000CF90BF90AF909F908F907F900895909316
:105090009F0280939E0210927D0210927A020E94DB
:1050A000F8160E9484260C94E906CF93DF93EC0156
:1050B00080919C0290919D02D0939D02C0939C028E
:1050C0008C1B9D0B97FF03C09195819591098130B1
:1050D000914024F010927D0210927A020E94F816FC
:1050E0000E94842680919B02803771F480919902FE
:1050F00090919A028C1B9D0B97FF03C0919581950F
:1051000091098138910524F0DF91CF910C94E90643
:10511000DF91CF91089580E090E0892B29F00E94E3
:10512000F71C81110C940000089585ED8093BC005C
:105130008091BC0084FDFCCF1092FD040895409145
:10514000D904262F30E0240F311D21323105DCF443
:105150002091FD042430C9F4FC0180E090E0861722
:1051600058F43091D9042191DC01A754BB4FA30F0F
:10517000B11D2C930196F3CF8091D904680F6093F1
:10518000D90480E0089581E0089582E008950895AB
:105190008FEF9FEF08958FEF9FEF08958091B804F0
:1051A00090E09195819591090895CF93DF93CB017C
:1051B000EA01642F0E949F28CE01DF91CF910895CC
:1051C000CF93DF931F92CDB7DEB7698361E0CE0145
:1051D00001960E949F2881E090E00F90DF91CF918F
:1051E0000895FC01848DDF01A80FB11DA35ABF4FA4
:1051F0002C91848D90E001968F739927848FA689D6
:10520000B7892C93A089B1898C91837080648C9329
:10521000938D848D981306C00288F389E02D8081D8
:105220008F7D808308951F920F920FB60F921124E5
:105230002F933F934F935F936F937F938F939F939E
:10524000AF93BF93EF93FF938091B900887F80362F
:1052500009F49CC068F5883209F45BC090F4803191
:1052600009F454C038F4882309F4F2C0883009F4F2
:105270004DC0F2C0883109F44CC0803209F45DC0E1
:10528000EBC0803409F468C048F4803309F455C099
:10529000883309F0E1C08093FC04D4C0803509F460
:1052A0004FC0883509F45DC0883409F0D5C0D2C03C
:1052B000883909F4C3C0A8F4883709F467C038F402
:1052C000883609F463C0803709F460C0C5C08838E7
:1052D00009F4B4C0803909F45FC0803809F0BCC05B
:1052E0005BC0803B09F484C038F4803A09F466C09E
:1052F000883A09F47DC0B0C0803C09F4A3C0883C62
:1053000009F4A0C0883B09F486C0A6C0809122059C
:1053100010C09091210580912005981770F5E091BB
:10532000210581E08E0F80932105F0E0E050FB4FD6
:1053300080818093BB0085EC82C08093FC048AC08E
:10534000E091210581E08E0F809321058091BB00C3
:10535000F0E0E050FB4F8083909121058091200583
:105360006AC0E091210581E08E0F80932105809134
:10537000BB00F0E0E050FB4F80838091FF0481117F
:1053800069C081E08093FE0484EA5DC083E080937D
:10539000FD041092FB04CFCF8091FB04803208F013
:1053A0004DC0E091FB0481E08E0F8093FB0480915F
:1053B000BB00F0E0E552FB4F8083BDCF85EC8093CE
:1053C000BC001092FD048091FB04803230F4E09127
:1053D000FB04F0E0E552FB4F10826091FB0470E0AB
:1053E0008BED94E0E0E0F0E009951092FB0434C00E
:1053F00084E08093FD041092DA041092D904E0E076
:10540000F0E009958091D904811105C081E0809375
:10541000D9041092B904E091DA0481E08E0F8093F0
:10542000DA04F0E0E754FB4F80818093BB00909159
:10543000DA048091D904981708F47DCF85E8809329
:10544000BC000AC085EC8093BC001092FD0404C02F
:105450001092FC040E949528FF91EF91BF91AF91AB
:105460009F918F917F916F915F914F913F912F917C
:105470000F900FBE0F901F901895CDB7DEB7E59730
:10548000DEBFCDBF789484B5826084BD84B5816071
:1054900084BD85B5826085BD85B5816085BD8091FF
:1054A0006E00816080936E00109281008091810077
:1054B000826080938100809181008160809381006F
:1054C000809180008160809380008091B100846031
:1054D0008093B1008091B00081608093B000809192
:1054E0007A00846080937A0080917A008260809351
:1054F0007A0080917A00816080937A0080917A00AE
:10550000806880937A001092C10061E083E00E947D
:10551000FC1F81E28093B0008BE08093B1008DE7A7
:105520008093B3008EE38093B4008091B0008062DA
:105530008093B00064EF71E080E090E00E9438203A
:105540008091B0008F7D8093B00064EF71E080E0C7
:1055500090E00E9438208091B00080628093B0007B
:1055600064EF71E080E090E00E9438208091B0000C
:105570008F7D8093B0000E9486080E94DF1AE09120
:105580008103F091820382E08083E0918103F091B6
:1055900082031082E0917D03F0917E031082E091FE
:1055A0007F03F091800380E1808310928903E09172
:1055B0008503F091860386E08083E0918303F09178
:1055C0008403808180618083E0918303F091840370
:1055D000808188608083E0918303F09184038081DF
:1055E00080688083E0918303F091840380818F7DC4
:1055F00080830E9442190E94321A0E9472206B011D
:105600007C010E947220C616D706E806F90619F436
:105610000E94AD21F6CF0E94C7070E940E0762E0EC
:1056200087E00E94FC1F87E00E94A41F21E00197F1
:1056300009F020E0209348039E012B5E3F4F3AABD8
:1056400029ABCE0101966C01DE0156967D01FE016B
:105650007296FCABEBAB0E94AD210E947E20A0E0D5
:10566000B0E04091B9025091BA026091BB027091D2
:10567000BC02841B950BA60BB70B80319E40A10585
:10568000B105A0F00E947E20A0E0B0E08093B902B6
:105690009093BA02A093BB02B093BC020E9486080A
:1056A0000E94C7070E940E070E94DF1A0E94722004
:1056B000009108011091090120910A0130910B011C
:1056C000DC01CB01801B910BA20BB30B883E9340F6
:1056D000A105B10508F474C00E947220609308010E
:1056E0007093090180930A0190930B010E941C1989
:1056F00080917D02882309F4B3C38091A502909123
:10570000A6028330910509F4ABC3099709F4A8C335
:10571000E0917B02F0917C02EC57FF4F80899189E8
:10572000A289B389448555856685778548175907C9
:105730006A077B070CF045C54489558966897789D6
:1057400084179507A607B7070CF43BC58D01A090F9
:105750009102B090920248018A189B086090A002C2
:105760007090A102011530E8130709F02DC50E94C1
:105770000F268538934008F040C50E94F816009126
:10578000A5021091A6020E94842611278091A502ED
:105790009091A6020817190731F060E070E080E0F0
:1057A00090E00E94A81080919B02843709F062C3A8
:1057B0000E940E070E942E080E94A6030E949220BB
:1057C00081E793E00E94EB1C181619060CF045C304
:1057D00081E793E00E94C91C813609F47EC044F53C
:1057E000833409F484C07CF48D3051F31CF48A3086
:1057F00039F31CC3803221F3813409F017C381E0EF
:1058000080931F04DDCF823509F405C334F4853459
:1058100009F00CC300E010E0C6C0833509F473C082
:10582000853509F003C3E7EAF2E083E19FEFCCC1DD
:105830008C3609F47EC0BCF4843609F400C124F42B
:10584000833609F4ADC0F2C2883609F4CDC18A3678
:1058500009F0ECC260E070E089EA94E10E946C1B00
:105860000E94EE0F9DC0833709F460C024F58E3688
:1058700009F0DCC21F9283E08F931F9283E78F931E
:105880001F921F921F9282E08F938FEE91E09F9361
:105890008F9387EF91E09F938F938EEF91E09F938B
:1058A0008F930E945B100E94E01D0FB6F894DEBF3C
:1058B0000FBECDBF85CF843799F0863709F0B6C2C9
:1058C0008FE792E090939802809397024BE06BEB06
:1058D00071E086E50E94FC1B73CF10921F0470CF0D
:1058E00060E070E080E090E00E94A81069CF0E9424
:1058F000F0250E94C7070E94361C83E792E09F9321
:105900008F938DE009C00E94FA250E94EE0F83E775
:1059100092E09F938F938EE08F9389E48F930E9400
:10592000D8040F900F900F900F904ACF0E94EE0F67
:1059300047CF8CE40E94E00F6BE581E793E00E9483
:10594000FE2007E314E0B12CFE013196D8019F013F
:105950008D918F3D09F480EB819389A99AA98E17C7
:105960009F07B1F71D8A3F932F93AAEEB1E0BF9333
:10597000AF930E945B100F900F900F900F90F3E089
:10598000BF1611F06CE201C06DE581E793E00E9463
:10599000FE20B3940B5E1F4F24E0B212D5CF38C265
:1059A0000E94361C0DCF60E0C8010E9441350F5F98
:1059B0001F4F011534E01307B1F70E949A0A0E94A5
:1059C000F0250E94FA2506E010E047E250E0B80119
:1059D00089E493E00E943135580188E2A80EB11C99
:1059E00006591F4F49E050E0B5018BE992E00E9453
:1059F000313580919C0290919D0290939A02809300
:105A000099029BE0A90EB11C0A151B0559F70E3A25
:105A1000A1E01A07D1F664E080E090E00E944135F1
:105A20000E94421983E792E09F938F938FE08F93B8
:105A300089E48F930E94D8040E94321A72CF84E6C0
:105A40000E94E00F6BE581E793E00E94FE208FEF5C
:105A50008AA78BA78CA71DA6BE01665D7F4F83EA30
:105A60009CE00E946C1B8AA58E3F61F48CA587FD8B
:105A7000CAC161E0811101C060E08EE894E00E943B
:105A80002004C1C181E08093A402712C37EEA32EC3
:105A900031E0B32E672DC6010E94CA06882309F49F
:105AA000B2C18AA58F3F41F48DA581110EC08B81B3
:105AB0009C81892B51F486C0082E000C990B272D50
:105AC00030E08217930709F07DC01E8A8B809C808E
:105AD000C40101978C30910508F06DC0FC01EA55B6
