:100000000C943A030C9462030C9462030C94BF1F8B
:100010000C9462030C941F200C9462030C946203F2
:100020000C9462030C9462030C9462030C946203BC
:100030000C9462030C9462030C9462030C946203AC
:100040000C94BD180C9462030C94F4290C94CE29E2
:100050000C9462030C9462030C9462030C9462038C
:100060000C94262A0C9462038A268A26B4276B27CE
:100070002F278A268A268A262F276B278A262074EE
:10008000696D65206C65667400696E6720666F72C5
:100090000057616974696E6720666F7220706561D0
:1000A0006B005761697420746F2000436F6F6C00A0
:1000B0004865617400446F6F72206F70656E005404
:1000C000656D702E20636F6E74726F6C204F4646A4
:1000D0000049646C00222563223A256400202D2DFE
:1000E0002E2D2000526F6F6D2020004D6F64650033
:1000F000496E76616C6964206D6F6465002A2A2000
:1001000054657374696E67202A2A004F6666005032
:10011000726F66696C6500426565722000436F6EA0
:1001200073742E0046726964676520002564682533
:100130003032646D253032640000556E6B6E6F771F
:100140006E2073746174757321002225732200255B
:1001500064002C2256223A5B006C6F674944006CA5
:100160006F675479706500706F735065616B006ED6
:1001700065675065616B00706F735065616B4573A7
:1001800074006E65675065616B45737400657374C8
:100190005065616B006400690070006265657253B0
:1001A0006C6F70650064696666496E74656772613C
:1001B0006C00626565724469666600B2010003A561
:1001C0000102039B0106039901080297010A0295A7
:1001D000010C028D010E0182011001770112016FE5
:1001E00001140167011601257500222573220061A3
:1001F00032666138663000302E322E3133004E3A8E
:100200007B2276223A222553222C226E223A222564
:1002100053222C2273223A25642C2279223A256417
:100220002C2262223A222563222C226C223A222599
:1002300064227D002020202020202020202020203B
:10024000200054656D7020636F6E74726F6C207443
:1002500075726E6564206F666620696E206D656ECE
:10026000752E004368616E67656420746F2070723C
:100270006F66696C65206D6F646520696E206D65C1
:100280006E752E002020202020200025532074652C
:100290006D702073657420746F20257320696E2043
:1002A0004D656E752E00467269646765004265652E
:1002B00072006E756C6C0022257322005374617499
:1002C0006500526F6F6D54656D70004672696467AA
:1002D00065416E6E004672696467655365740046D9
:1002E000726964676554656D700042656572416E40
:1002F0006E004265657253657400426565725465AF
:100300006D700025750000000000240027002A0001
:1003100000000000250028002B000000000800025B
:1003200001000003040700000000000000000000BE
:10033000000023002600290004040404040404042B
:100340000202020202020303030303030102040880
:10035000102040800102040810200102040810202F
:1003600062656572536C6F706546696C7400626596
:100370006572536C6F7746696C740062656572468E
:1003800061737446696C7400667269646765536C66
:100390006F706546696C7400667269646765536C5A
:1003A0006F7746696C74006672696467654661734D
:1003B0007446696C74006873006C6168006D6178E4
:1003C000436F6F6C54696D65466F72457374006D51
:1003D00061784865617454696D65466F72457374E0
:1003E00000636F6F6C5461726765744C00636F6F6C
:1003F0006C54617267657448006865617454617219
:100400006765744C0068656174546172676574480F
:100410000069646C6552616E67654C0069646C6567
:1004200052616E67654800694D6178457272004B94
:1004300064004B69004B70007069644D6178007412
:10044000656D705365744D61780074656D705365AA
:10045000744D696E0074656D70466F726D617400E5
:10046000636F6F6C457374006865617445737400E5
:100470006672696467655365740062656572536589
:1004800074006D6F646500550400044A0401013F67
:100490000403013804250335040502320407022F42
:1004A00004090227040B031C040D0311040F0305A8
:1004B000041103F9031303ED031503E1031703CF3D
:1004C000031905BD031B05A7031D0098031E008823
:1004D000031F007B0320006E03210060032200B98C
:1004E000032300B60324004D6F6465004265657206
:1004F0000062792070726F66696C6500627920779E
:1005000065620046726964676500255320736574EF
:1005100020746F2025732025530066616C7365007D
:10052000747275650082040000661B7A04000088FE
:100530001B70040000311B68049E02BE1A6004A0F8
:1005400002BE1A55040000291B4A043D03B51A3F98
:10055000043F03B51A38046103AC1A35044103BEE5
:100560001A32044303BE1A2F044503BE1A27044758
:1005700003AC1A1C044903AC1A11044B03AC1A0552
:10058000044D03AC1AF9034F03AC1AED035103AC4D
:100590001AE1035303AC1ACF0355036F1ABD035777
:1005A000036F1AB9035F03301AB6036003301AA74A
:1005B000030000F31A98030100F31A88030200F302
:1005C0001A7B030300F31A6E030400F31A60030599
:1005D00000F31A00020400030001100302000003EC
:1005E00002010006000400060500200605040003C1
:1005F00002010023000100130200000305040003B0
:100600000304100305032000000000636C6F736592
:1006100064006F70656E656400467269646765208A
:10062000646F6F72202553004300A200DC000A8033
:100630000000030001000200FE9A009AFF660066B7
:10064000FF5802B004010403030404000000146E08
:10065000756C6C0025642E253033640025642E25CE
:100660003032640025642E25303164006E756C6C68
:100670000000373211241FBECFEFD8E0DEBFCDBF60
:1006800012E0A0E0B1E0E0EEF0E702C005900D92CC
:10069000A637B107D9F725E0A6E7B2E001C01D9261
:1006A000AF36B207E1F713E0CAE3D3E004C0219705
:1006B000FE010E94FD36C933D107C9F70E94542BB1
:1006C0000C946E380C94000080E00895089508950D
:1006D000FC018785089580E090E80895DC01ED91A4
:1006E000FC910084F185E02D099521E08115904869
:1006F00009F420E0822F08950F931F93CF938C016C
:10070000C62FDC01ED91FC910280F381E02D09956B
:100710008C1759F0F801C2838091B000CC2311F0FE
:10072000806201C08F7D8093B000CF911F910F91A7
:100730000895FC0182810895FC0180850895FC01E3
:10074000628308951F93CF93DF93EC01162F688780
:100750008E819F81DC01ED91FC910190F081E02D73
:100760000995112321F00E9492189B838A83DF91BF
:10077000CF911F910895FC019281692783810C9488
:1007800078170C94CC370C94CC370C94CC370C9451
:10079000CC370C94CC370C94CC370C94CC37EF92EC
:1007A000FF920F931F93CF93DF93CDB7DEB7A09740
:1007B0000FB6F894DEBF0FBECDBF8C01F62EE42E2F
:1007C000211103C06CE20E9407198E2D0E2C000C23
:1007D000990B9F93EF928F2D0F2C000C990B9F93E9
:1007E000FF9285ED90E09F938F93CE0101967C015F
:1007F0009F938F930E945833B701C8010E940E192E
:100800000FB6F894DEBF0FBECDBFA0960FB6F8941A
:10081000DEBF0FBECDBFDF91CF911F910F91FF9033
:10082000EF900895EF92FF920F931F93CF93DF9372
:100830008C01FC01848195818130910519F002972A
:1008400061F151C084E090E06230710589F40E944A
:100850003437EC01F801F78016818AE391E099833F
:10086000888362E0812F0E94A717FA821B833DC014
:100870000E943437EC01F8018781168124E431E0CD
:10088000398328838A831B8360E0CE010E94BB03E7
:1008900061E0812F0E94A71728C0F80186818E3061
:1008A00019F0E12CF12C04C088E5E82E84E0F82E44
:1008B00080E190E00E943437EC01F801918928E84A
:1008C00031E039832883FB82EA821D821C8281E029
:1008D0008F87DE011696399688E001900D928A95F1
:1008E000E1F79E8702C0C0E0D0E0CE01DF91CF915A
:1008F0001F910F91FF90EF900895CF93DF93EC013C
:100900008B810E944F172A8130E041E02817390778
:1009100009F440E0842FDF91CF910895CF93DF93C6
:10092000EC018B810E944F1721E0892B09F420E014
:100930008A818227DF91CF9108956F927F928F9263
:100940009F92AF92BF92DF92EF92FF920F931F930D
:10095000CF93DF93CDB7DEB729970FB6F894DEBFFC
:100960000FBECDBF6B8C7C8C84E40E942510698DFA
:100970008FE591E00E94A02089E591E00E94792016
:100980001F928A8D8F9383E093E09F938F930E94B1
:10099000A01082E591E09F938F930E94A0108E019A
:1009A000035E1F4F0F900F900F900F900F900F90BE
:1009B000D12C8AE4E82E81E0F82E9FE4A92E91E064
:1009C000B92EF301ED0DF11D8081882309F45BC080
:1009D000863679F17CF4843609F047C0480182E01C
:1009E000880E911CF80181818F9380818F93BF9233
:1009F000AF9234C08337A1F08437B9F54801F2E0F3
:100A00008F0E911CF80140815181052E000C660B60
:100A1000770B0CE021E0CE0101960E94F4231AC06E
:100A20004801F2E08F0E911CF80181818F93808143
:100A300012C04801F2E08F0E911CF80140815181F3
:100A4000052E000C660B770B0CE023E0CE0101961F
:100A50000E9478239F938F93FF92EF920E94A010A1
:100A60000F900F900F900F908401D394F301ED0D30
:100A7000F11D8081882309F4A4CF6CE28FEA93E012
:100A80000E9407199ECF6DE58FEA93E00E94071937
:100A90000E941E1029960FB6F894DEBF0FBECDBF80
:100AA000DF91CF911F910F91FF90EF90DF90BF905A
:100AB000AF909F908F907F906F900895FC019385E9
:100AC000692B828191E090938A038093AC0310920A
:100AD0008B031092AD038CE494E00E949F290C9448
:100AE000AF140F931F93CF938C01C62F0E945E0506
:100AF0006C2F6460C8010E945E056C2F6B7FC8017B
:100B00000E945E0583EC90E00197F1F7CF911F9171
:100B10000F9108950F931F93CF93DF938C01C62FEE
:100B2000D42F607F642B0E94710580E1C89FB001C3
:100B300011246D2BC801DF91CF911F910F910C945F
:100B40007105FC0180859781DF0125E1929FA00D51
:100B5000B11D1124A80FB11D1F966C938F5F808764
:100B60008685811104C0CF0141E00E948A0580E0A2
:100B700090E0089560E087E00E940B158091990253
:100B80008F36E9F03CF4823661F08636D9F484E29F
:100B900091E009C0803761F08437A1F48DEF90E0D7
:100BA00013C087E191E00E943E158DE191E00CC0F9
:100BB00087E191E00E943E158FE091E005C08BE057
:100BC00091E002C080EF90E00E943E1590917B047E
:100BD00080917C04981730F460E283E794E00E94EF
:100BE000A105F4CF08952F923F924F925F926F929A
:100BF0007F928F929F92AF92BF92CF92DF92EF92AD
:100C0000FF920F931F93CF93DF93FC018481958113
:100C1000A681B78180879187A287B387C080D18062
:100C2000E280F380C482D582E682F78240835183DA
:100C3000628373830089118922893389048B158B20
:100C4000268B378B84849584A684B784808A918A86
:100C5000A28AB38A218C308CC32DD0E024013501C7
:100C6000401A510A620A730A480C591C6A1C7B1C00
:100C7000022C04C0B594A794979487940A94D2F751
:100C8000481859086A087B084801590104C0B594FE
:100C9000A794979487942A94D2F7480C591C6A1CFD
:100CA0007B1C032C04C075956795579547950A944E
:100CB000D2F7440E551E661E771E5E0141E0A41A4F
:100CC000B10804C0F594E794D794C794AA94D2F7D6
:100CD000C40CD51CE61CF71C04C0B595A7959795C8
:100CE00087953A94D2F78C0D9D1DAE1DBF1D22979E
:100CF00004C03595279517950795CA95D2F7BC017D
:100D0000CD01601B710B820B930B648775878687FF
:100D10009787DF91CF911F910F91FF90EF90DF9018
:100D2000CF90BF90AF909F908F907F906F905F908B
:100D30004F903F902F900895AB01770F660B770B84
:100D4000BA0155274427FC01825B9F4F40835183A2
:100D50006283738344835583668377834087518797
:100D6000628773874487558766877787408B518B67
:100D7000628B738B448B558B668B778B7A96E817D7
:100D8000F90721F708950F931F93CF93DF93EC0199
:100D9000CB01770FAA0BBB0B7727662700E010E08B
:100DA000AB01BC01CE01800F911F0E94F305065ECE
:100DB0001F4F0E341105A1F7DF91CF911F910F91B5
:100DC0000895FC01862F880F8C5F808F618F82AB26
:100DD00063ABDF01A45BBF4F8C93E35BFF4F60838A
:100DE0000895CF93DF93FC01EC01C45BDF4FDC017E
:100DF000A35BBF4F98E0908F82E0818F92AB83AB73
:100E000098838C93DF91CF9108950F931F93CF9385
:100E10008C01C62F80E090E00E944736843011F4A8
:100E2000C03110F080E00CC084E1C89FB0011124F3
:100E300062557E4F44E150E0C8010E944F3681E088
:100E4000CF911F910F9108950F931F93CF938C0112
:100E5000C62F80E090E00E944736843011F4C03104
:100E600010F080E00CC084E1C89FB00111246255ED
:100E70007E4F44E150E0C8010E94373681E0CF91B7
:100E80001F910F91089549E050E06EE270E089E90A
:100E900092E00E944F3680919A0290919B0290932B
:100EA000980280939702089547E250E066E070E070
:100EB0008CE393E00E944F360C944307CF93DF936B
:100EC000EA010E940B15CE01DF91CF910C943E15E3
:100ED000EF92FF920F931F93CF93DF93CDB7DEB7BF
:100EE0002A970FB6F894DEBF0FBECDBF80917C026B
:100EF000811103C01091A30201C012E0809176021B
:100F0000811761F1109376021A3078F4812F90E006
:100F1000880F991FFC01E05AFE4F40815181FC016E
:100F2000E45BFE4FE080F18006C089E3E82E81E0BB
:100F3000F82E4AE351E063E080E00E945E07C701BB
:100F40000E943E1590917B0480917C04981730F4A8
:100F500060E283E794E00E94A105F4CF8091F80459
:100F60009091F9040E949C189C0111110FC00E94DD
:100F70008A258C010E9484250817190718F40E94FD
:100F80008A2502C00E9484259C0116C08DEF810F26
:100F9000823090F0183011F0193039F484EB90E081
:100FA000AC01421B530B9A0107C015501230E0F5FB
:100FB0002091F6043091F7042F3F5FEF3507A1F140
:100FC000C90160E17EE00E94A8367B01ECE3F0E01D
:100FD000C901BF010E94A8369F938F93CB01BF0127
:100FE0000E94A8369F938F93FF92EF928CE291E03C
:100FF0009F938F938E010F5F1F4F1F930F930E943C
:1010000058330FB6F894DEBF0FBECDBFEF2819F4EA
:1010100002970E5F1F4F63E094E1981B892F0E9497
:101020000B15C8010E9490142A960FB6F894DEBFE3
:101030000FBECDBFDF91CF911F910F91FF90EF9029
:1010400008954BEE50E060E080E00E945E0747E1CB
:1010500051E061E080E00E945E078091000580FD24
:1010600003C044E251E002C044EE50E062E080E0A0
:101070000E945E0781E00E945C1582E00C945C1582
:10108000EF92FF920F931F93CF93DF93CDB7DEB70D
:1010900029970FB6F894DEBF0FBECDBF7A010E942C
:1010A0000B15C7019058029728F48DED90E00E942F
:1010B0003E151FC0A701FF0C660B770B09E021E06E
:1010C000CE0101967C010E94F423F70101900020DB
:1010D000E9F70E2D0E1B0A5F10E010173CF460E2DA
:1010E00083E794E00E94A1051F5FF7CFC7010E942C
:1010F000901429960FB6F894DEBF0FBECDBFDF91D6
:10110000CF911F910F91FF90EF900895809100056E
:1011100081FF20C00E94921883FD0CC080910E01B7
:1011200090910F01DC01ED91FC910480F581E02D9F
:10113000099501C080E090910005292F2170821748
:1011400049F0882311F0916001C09E7F90930005C3
:101150000E9421080E94F024AC0161E086E00E9418
:10116000400840919A0250919B0261E08CE00E94FD
:1011700040088091000580FF0CC080910E01909185
:101180000F01DC01ED91FC910084F185E02D0995C2
:1011900002C00E94DA24AC0162E086E00E944008AE
:1011A00040919C0250919D028091000580FF02C0F9
:1011B00041E050E862E08CE00C944008CF93DF936C
:1011C0008FEF8093760282E0809300051092800476
:1011D00010927F04109203051092020510928B0367
:1011E0001092AD031092890381E0809388031092DE
:1011F000630361E082E10E94781761E083E10E946D
:1012000078178091B9008E7F8093B9008091B900E2
:101210008D7F8093B90088E48093B80085E4809343
:10122000BC0084E499E2909305058093040585E46D
:1012300099E29093070580930605C8E0D1E0D0932A
:101240008A03C093AC0310928B031092AD030E94EB
:10125000AF14811109C0C093750461E070E080E0B3
:1012600090E00E94E317C8E7CF5FC83740F31092C1
:10127000760480917D040E941D1888E080937E048E
:1012800060E083E794E00E945E0584E00E941D1800
:10129000DF91CF910C947E15089508959F92AF929F
:1012A000BF92CF92DF92EF92FF920F931F93CF9353
:1012B000DF93CDB7DEB761970FB6F894DEBF0FBEF0
:1012C000CDBF982E8B016A017901FB018281938148
:1012D00001978C30910528F4FC01EE56FE4FA0805A
:1012E00002C0A12CB12C8091A202811104C06CE239
:1012F000C7010E9407191092A2026BE7C7010E9462
:10130000071921E0492D69E6C7010E94CF0320E0BB
:101310004A2D64E7C7010E94CF0320E0F801408115
:1013200063E6C7010E94CF0320E0F801418162E635
:10133000C7010E94CF0320E0F801428166E6C701A1
:101340000E94CF0320E0F801448168E6C7010E94B3
:10135000CF0320E0F801408564E6C7010E94CF0377
:1013600020E0F801468160E7C7010E94CF03C11465
:10137000D10469F0F6018081882349F060E472E0CD
:10138000C7010E940E19B601C7010E940E19F8018B
:1013900084819581019731F420E0478168E7C70196
:1013A0000E94CF03F801848195810297B1F466E42D
:1013B00072E0C7010E940E19BE016F5F7F4FC80126
:1013C00009960E94E115BE016F5F7F4FC7010E9421
:1013D0000E1962E2C7010E940719F8018481958104
:1013E0000297C9F5A189F0E2AF02D0011124AD0145
:1013F0000B2E000C660B770B80913C038634D1F4E6
:10140000B7FF02C047EE01C049E12AE530E00E9483
:101410001A37042F440F110B220B330B600F711F6F
:10142000821F931F22E330E040E050E00E94DE364E
:10143000BA01A90108E023E0CE0101960E947823B9
:101440006DE472E0C7010E940E19BE016F5F7F4F0D
:10145000C7010E940E196DE7C7010E940719619626
:101460000FB6F894DEBF0FBECDBFDF91CF911F91B5
:101470000F91FF90EF90DF90CF90BF90AF909F9033
:101480000895FB0123853485AB014F5F5F4FBC019D
:1014900080810C944E09FC018081823088F4818126
:1014A000823070F48281938101978930910540F4F4
:1014B000880F991FFC01E85EFE4F8081918108959D
:1014C00080E090E008950F931F93CF93DF938C01FA
:1014D0000E944B0AEC01892B09F468C0D8011296CE
:1014E0002D913C911397C90101978C30910508F01B
:1014F0005DC0FC01EE56FE4F80818230C9F1833021
:1015000029F1813009F052C0E881F9812630310596
:1015100009F442C080819181B1E08C309B0709F4CD
:1015200045C02CE031E031832083EF50FF4F2FEF97
:1015300020830097D9F1DC01ED91FC910280F381C9
:10154000E02DDF91CF911F910F91099488819981AE
:10155000B4E080379B0751F1009739F0DC01ED9141
:10156000FC910680F781E02D099580E794E011C099
:1015700088819981B4E08D369B07C1F0009739F0DE
:10158000DC01ED91FC910480F581E02D09958DE65B
:1015900094E0998388830AC0B1E0EC30FB0731F016
:1015A0008CE091E099838883CF01C3CFDF91CF9105
:1015B0001F910F9108950F931F93CF93DF93CDB792
:1015C000DEB764970FB6F894DEBF0FBECDBF81E0E3
:1015D00089838A8300E010E01C830B83CE0101968F
:1015E0000E94630A0F5F1F4F00311105A9F764962F
:1015F0000FB6F894DEBF0FBECDBFDF91CF911F9124
:101600000F9108957F936F9325E532E03F932F93D9
:101610008F9385E48F930E949D040F900F900F90FD
:101620000F900F900F900895EF92FF920F931F93DA
:10163000CF93DF93EC018A819B8101978C309105D8
:1016400030F4FC01EE56FE4F008110E002C000E0D5
:1016500010E0CE010E944B0A7C01892B09F444C0A2
:101660008885811141C00130110561F0E8F1043035
:101670001105D0F5B801CE010E941204D7018D9357
:101680009C9332C061E070E0CE010E9412048C0194
:10169000D7018D919C91892B29F46A817B8182E00D
:1016A0000E94020B8A819B81069761F4D801ED911B
:1016B000FC910680F781E02DC8010995F70111839F
:1016C000008312C0D7018D919C91FC01118300838E
:1016D000EF50FF4F2FEF2083DF91CF911F910F919C
:1016E000FF90EF900C944224DF91CF911F910F91C6
:1016F000FF90EF9008959C016130710539F42250FC
:10170000310981E02230310578F00DC06230710579
:1017100029F481E02130310531F406C0672B19F43A
:1017200081E0232B09F080E00895CF92DF92EF92C1
:10173000FF920F931F93CF937C01FC018081682F50
:1017400070E06530710514F084E072C0F70191819A
:10175000692F70E06730710514F085E069C0F7010A
:1017600062817381603108F062C06115710521F0FA
:101770006930710534F460C0911107C08823F1F01D
:1017800004C091111BC062E070E01F928F931F9202
:101790009F937F936F9383E592E09F938F9387E06E
:1017A0008F9385E48F930E949D048DB79EB70A9610
:1017B0000FB6F8949EBF0FBE8DBF3CC0615071093B
:1017C0006C30710530F4FB01EE56FE4F008110E0E5
:1017D00002C000E010E0F701C480D580B601C80166
:1017E0000E947B0BC82F811117C0DF92CF921F93ED
:1017F0000F9384E592E09F938F9388E08F9385E425
:101800008F930E949D048DB79EB708960FB6F894EB
:101810009EBF0FBE8DBF15C092E0C916D10489F4DA
:10182000F70166816E3069F070E089E001C086E002
:101830000E94020BC0E005C08111C0CF61E070E0E2
:10184000A4CF8C2FCF911F910F91FF90EF90DF903D
:10185000CF9008950B960E943D1291E0811101C036
:1018600090E0892F0895EF92FF921F93CF93DF931B
:10187000EC017B01142F888199810E942A0CB70109
:10188000888199810E94741288819981612F0B96B9
:10189000DF91CF911F91FF90EF900C94AB152F9299
:1018A0003F924F925F926F927F928F929F92AF92F0
:1018B000BF92CF92DF92EF92FF920F931F93CF933D
:1018C000DF9300D01F92CDB7DEB78C015B015B8345
:1018D0004A8382E089832A01E9E04E0E511C4EEBD7
:1018E000B501C8010E94330C6A807B807301F80146
:1018F000C080D180FBE0CF0ED11C98E0892E912CC6
:10190000312C22242394C6010E94E7118111322830
:10191000220C81E0881A9108B1F7F70131927F011A
:10192000E415F50521F7F801808191810E942A0CC8
:1019300099E080E0915099F0F30151913F0148E026
:10194000682F6527282F30E035952795822F60FF77
:1019500002C08CE882275695415091F7EBCFEA817F
:10196000FB819085981739F0F981F150F983F111D5
:10197000B6CF80E001C081E00F900F900F90DF9113
:10198000CF911F910F91FF90EF90DF90CF90BF907C
:10199000AF909F908F907F906F905F904F903F900F
:1019A0002F9008950895AC019FEF9F5FFA01E90F12
:1019B000F11D97FDFA952081222321F02613F5CF02
:1019C000892F08958FEF08950F931F93CF93DF937F
:1019D0008B01EA01FC01608187E592E00E94D30C53
:1019E00087FD08C0C80FD11D87FDDA95C8010E9488
:1019F000FA326883DF91CF911F910F9108950F9371
:101A00001F93CF93DF938B01EA01FC0160818CE58A
:101A100092E00E94D30C87FD08C0C80FD11D87FD3E
:101A2000DA95C8010E94FA326883DF91CF911F9145
:101A30000F910895DF92EF92FF920F931F93CF9330
:101A4000DF9300D0CDB7DEB77B018A01FC01D080E7
:101A50006D2D8AE291E00E94D30CF1E6DF1215C0F1
:101A6000F701D8011A968081882371F181340CF036
:101A700087538295807F9181913414F0975301C0F0
:101A80009053892B8D933296EECF9AE6D91211C0DE
:101A9000B701CE0101960E94A9228823A9F089816D
:101AA0009A8125E0959587952A95E1F7F801818738
:101AB0000BC087FD09C0080F111D87FD1A95C701CE
:101AC0000E94FA32F80160830F900F90DF91CF915E
:101AD0001F910F91FF90EF90DF9008950895089562
:101AE00080910E0190910F01DC01ED91FC91008439
:101AF000F185E02D0994089580E090E0089508951F
:101B0000E0919502F0919602E60FF11D60810C9430
:101B1000A020EF92FF920F931F93CF93DF93CDB747
:101B2000DEB72C970FB6F894DEBF0FBECDBF7C0199
:101B3000E0919502F0919602E60FF11DA081B1812E
:101B4000AD010B2E000C660B770B80913C038634A5
:101B5000D1F477FD02C049E101C047EE2AE530E04B
:101B60000E941A37042F440F110B220B330B600F06
:101B7000711F821F931F22E330E040E050E00E947B
:101B8000DE36BA01A9010CE023E0CE0101960E94E5
:101B90007823BC01C7010E94B4202C960FB6F8949C
:101BA000DEBF0FBECDBFDF91CF911F910F91FF9090
:101BB000EF900895EF92FF920F93CF93DF93CDB7FD
:101BC000DEB72C970FB6F894DEBF0FBECDBF7C01F9
:101BD000E0919502F0919602E60FF11D408151814E
:101BE000052E000C660B770B0CE023E0CE0101966E
:101BF0000E947823BC01C7010E94B4202C960FB626
:101C0000F894DEBF0FBECDBFDF91CF910F91FF9053
:101C1000EF900895EF92FF920F93CF93DF93CDB79C
:101C2000DEB72C970FB6F894DEBF0FBECDBF7C0198
:101C3000E0919502F0919602E60FF11D40815181ED
:101C4000052E000C660B770B0CE021E0CE0101960F
:101C50000E94F423BC01C7010E94B4202C960FB649
:101C6000F894DEBF0FBECDBFDF91CF910F91FF90F3
:101C7000EF900895EF92FF920F93CF93DF93CDB73C
:101C8000DEB729970FB6F894DEBF0FBECDBF7C013B
:101C9000AB01770F660B770B09E022E0CE010196CE
:101CA0000E94F423C7010E947920BE016F5F7F4F1D
:101CB0008FEA93E00E940E1929960FB6F894DEBFC2
:101CC0000FBECDBFDF91CF910F91FF90EF900895A0
:101CD000EF92FF920F931F93CF93DF93FC01278521
:101CE000222309F43FC07C018C010A5F1F4FB80119
:101CF000848195810E9454168115F0E89F0749F46C
:101D0000F7018785882329F160E0C7010E94041646
:101D100020C0F7012685AC01420F511D27FD5A95C1
:101D20009A013350223050E8350754F0211584E0F1
:101D3000380714F02FEF33E02115ECEF3E0714F4D1
:101D400020E03CEFE90185E0CC0FDD1F8A95E1F74B
:101D500002C0C0E0D0E8B801F701848195810E94FB
:101D6000C81502C0C0E0D0E8CE01DF91CF911F912D
:101D70000F91FF90EF90089544E352E060E087E018
:101D80000C945E070E94631F44E852E0682F80E0D5
:101D90000C945E072F923F924F925F926F927F92C8
:101DA0008F929F92AF92BF92CF92DF92EF92FF926B
:101DB0000F931F93CF93DF93CDB7DEB72D970FB659
:101DC000F894DEBF0FBECDBF7B876A871A013D87BF
:101DD0002C87E02EFC0109958C01C0903D03D0902A
:101DE0003E0360913F03709140039058029710F4B6
:101DF00000E018EC072E000C880B990B0E94BD2107
:101E00003C01B601DD0C880B990B0E94BD216C01D1
:101E1000B801012E000C880B990B0E94BD21A30173
:101E2000B6010E94921F0E9492186C01F12C3AE0B8
:101E3000432E512C612C712C4AE5842E912CA12C1F
:101E4000B12CC6010E949C180A9708F09BC00E9402
:101E50006B1F882309F47DC00E9492186C010E94B8
:101E6000631F092E000CAA0BBB0B29E0880F991FDA
:101E7000AA1FBB1F2A95D1F7BC01CD016B5F7F4F15
:101E80008F4F9F4FA30192010E94DE3660913C0369
:101E90006634C9F430544109510957FD02C0EDE2DE
:101EA00001C0E3EDA2E3B0E00E9421370E2FEE0F58
:101EB000110B220B330B600F711F821F931FA501A3
:101EC00094010E94DE36DA01C9019056A109B109D8
:101ED0008230F0E89F07FFEFAF07BF0744F081159E
:101EE00020E89207A105B1052CF48C0105C002E0A1
:101EF00010E802C00FEF1FE7A8016E2D8CE00E94D2
:101F0000400880910105811102C0F12C9ACF1092F6
:101F10000105C801EA85FB850995A801110F660B2B
:101F2000770B09E021E0CE0101960E94F4239F93F4
:101F30008F933F922F928BE892E09F938F93EC8543
:101F4000FD8509950F900F900F900F900F900F90B7
:101F500019C0F11006C0A8016E2D8CE00E94400847
:101F600009C0F0E8FF1206C044E852E06E2D8CE094
:101F70000E945E07F39463E070E080E090E00E94CE
:101F8000E3175FCF2D960FB6F894DEBF0FBECDBF1F
:101F9000DF91CF911F910F91FF90EF90DF90CF9045
:101FA000BF90AF909F908F907F906F905F904F9079
:101FB0003F902F9008950F931F9301E010E028E9C0
:101FC00031E14DEA52E060ED77E28BE091E20E9470
:101FD000CA0E1F910F9108950F931F9302E010E016
:101FE00021E731E146EA52E062EC77E286E091E2F5
:101FF0000E94CA0E1F910F910895CF93DF9300D0D6
:1020000000D0CDB7DEB78091780190917901A09191
:102010007A01B0917B0189839A83AB83BC830E9450
:10202000631F8C0F9D1F60E0FC0181810F900F905A
:102030000F900F90DF91CF910C9406256DE78FEAFA
:1020400093E00E9407190C947615682F8FEA93E0AD
:102050000E9407196AE38FEA93E00E94071981E062
:102060008093EB040895EF92FF920F93CF93DF9349
:10207000CDB7DEB72C970FB6F894DEBF0FBECDBF3D
:1020800083E50E94251089E9E82E82E0F82EF70109
:10209000608182E894E00E94A020F7014181528192
:1020A000052E000C660B770B0CE022E0CE010196AA
:1020B0000E94F423BC018AE794E00E94B420F70157
:1020C00043815481052E000C660B770B22E0CE0174
:1020D00001960E94F423BC0180E794E00E94B420A2
:1020E000F70145815681052E000C660B770B23E026
:1020F000CE0101960E947823BC0188E694E00E94FC
:10210000B420F70147815085052E000C660B770B34
:1021100023E0CE0101960E947823BC0180E694E082
:102120000E94B4200E941E102C960FB6F894DEBFB9
:102130000FBECDBFDF91CF910F91FF90EF9008952B
:10214000CF93DF93CDB7DEB79E012B5F3F4FF901F1
:10215000419151919F0160E870E08BEB92E00E9409
:102160007A336BEB72E08FEA93E00E940E19DF91F5
:10217000CF910895CF93DF93E0919502F09196026D
:10218000E60FF11DC081D1810E947920DF93CF93AA
:1021900083E093E09F938F930E94A0100F900F9085
:1021A0000F900F90DF91CF910895CF93E09195021A
:1021B000F0919602E60FF11DC0810E9479201F92D6
:1021C000CF9383E093E09F938F930E94A0100F9092
:1021D0000F900F900F90CF9108950F931F93CF936F
:1021E000DF938C01EB0184E50E9425100E94F0240E
:1021F000BC018AEF92E00E943A0E60919A027091BF
:102200009B0282EF92E00E943A0E8AEE92E00E94D8
:1022100079200115110519F482EB92E002C087EBD9
:1022200092E01F930F939F938F930E94A0100E94A0
:10223000DA24BC018FED92E00E943A0E60919C027C
:1022400070919D0285ED92E00E943A0E8BEC92E037
:102250000E9479200F900F900F900F90209719F403
:1022600082EB92E002C087EB92E0DF93CF939F93E3
:102270008F930E94A0100E94700D80910E0190918A
:102280000F01DC01ED91FC910480F581E02D0995B1
:102290000F900F900F900F9081111BC0C091A3025F
:1022A000D091A402DD278CEB92E00E947920DF938D
:1022B000CF9383E093E09F938F930E94A0100F90A1
:1022C0000F900F900F90DF91CF911F910F910C9471
:1022D0001E100E94700DBC0182EC92E00E943A0E2A
:1022E000DDCFCF93DF93CDB7DEB7A0970FB6F894CD
:1022F000DEBF0FBECDBF9E012B5D3F4FF901419167
:1023000051919F0160E270E0CE0101960E947A3304
:10231000BE016F5F7F4F80E090E00E94ED10A096BD
:102320000FB6F894DEBF0FBECDBFDF91CF910895F9
:10233000CF93DF93CDB7DEB7A0970FB6F894DEBF8B
:102340000FBECDBF9E012B5D3F4FF90141915191D1
:102350009F0160E270E0CE0101960E947A3360E056
:1023600070E0CE0101960E94ED10A0960FB6F89491
:10237000DEBF0FBECDBFDF91CF910895809199024E
:10238000823611F40C94DB0F863611F40C94EC0FAA
:10239000803719F483E692E004C08F3641F482E47A
:1023A00092E09F938F930E9498110F900F90089541
:1023B000FC01848195810C94CC37CF93DF93EC01A1
:1023C0000E94D811CE01DF91CF910C94CC37FC0143
:1023D00090810180F281E02DF8948181892B8183A5
:1023E0002281892F809528232283A7E0B0E01197CE
:1023F000F1F7218182238183A3E2B0E01197F1F705
:1024000080817894EFECF0E03197F1F7982381E048
:1024100009F480E00895FC012081A181B28161115D
:1024200003C085E0E1E402C087E3EAE0F894129695
:102430009C911297322F3095932312969C9312976A
:1024400011969C911197922B11969C93119794E061
:10245000E99FF001112435973197F1F712969C917D
:102460001297922B12969C937894E4E08E9FC00171
:10247000112405970197F1F70895DC012C9111962D
:10248000ED91FC911297F8948181922F9095892378
:10249000818378948DE743E050E0815021F1DA01A7
:1024A0001197F1F730813223C1F3F89482818923A7
:1024B00082838181822B81837894ABE7B7E0119787
:1024C000F1F7F89481819823918383E191E001975A
:1024D000F1F78081282381E009F080E07894E3E639
:1024E000F6E03197F1F70895EF92FF920F931F9363
:1024F000CF93DF937B018C01055F1F4F65E5C8011A
:102500000E94AB15E70188E0E80EF11C6991C80153
:102510000E94AB15CE15DF05C9F7DF91CF911F9152
:102520000F91FF90EF900895BF92CF92DF92EF92BC
:10253000FF920F931F93CF93DF93CDB7DEB76A97C8
:102540000FB6F894DEBF0FBECDBF7C016C0126E054
:10255000C20ED11C8E010F5F1F4FB801C6010E9431
:10256000E115F70184819581892B39F582E090E0AE
:102570000E943437F70122813381FC0131832083AB
:10258000F70195838483892BC1F41F930F9380E710
:1025900092E09F938F931F9285E48F930E949D04F6
:1025A000F701848195810F900F900F900F900F90FD
:1025B0000F90009729F410E0BDC0F7018481958148
:1025C000B6010E9454168115904809F0ACC0F7017D
:1025D0000481158144EBB601C8010E94330CF80157
:1025E000808191810B960E94E711B82EF8018081BD
:1025F00091810E942A0CBB20F1F2F8018081918127
:102600000E942A0CB601F801808191810E94741207
:10261000F8018081918168EB0B960E94AB15AE01A9
:102620004E5E5F4FB601C8010E944F0CB82E882342
:1026300011F28E898F3721F08FE78E8B81E001C0F8
:1026400080E09C89992311F01C8A02C0882389F1BB
:102650004EE4B601C8010E94330CF80180819181DB
:102660006C890B960E94AB15F801808191816D8970
:102670000B960E94AB15F801808191816E890B96B3
:102680000E94AB15F801808191810E942A0CB6014D
:10269000F801808191810E947412F80180819181FA
:1026A00068E40B960E94AB15F801808191810E942D
:1026B0002A0C81E08C8B4EE4B601C8010E94330CD9
:1026C000F801808191816C890B960E94AB15F8010D
:1026D000808191816D890B960E94AB15F8018081F4
:1026E00091816E890B960E94AB15F80180819181D2
:1026F0000E942A0CBB2009F45ECFB601F701848149
:1027000095810E94C8156EEE72E080E090E00E9414
:10271000E317B601F701848195810E945416811553
:10272000904809F448CFB601F701848195810E9451
:10273000C81511E0F7018785181721F0612FC7012F
:102740000E940416812F6A960FB6F894DEBF0FBE62
:10275000CDBFDF91CF911F910F91FF90EF90DF9050
:10276000CF90BF9008958F929F92AF92BF92CF92D9
:10277000DF92EF92FF920F931F93CF93DF936C0141
:102780007B014A0159010E9492188C01C0E0C801E6
:102790000E949C180A9738F50E946B1F882331F01D
:1027A0000E9492188C01F601099502C0C11104C063
:1027B000F7010995C0E004C0C03811F4F40109958F
:1027C000D0910105DD2339F010920105F70109953B
:1027D000F501099509C0CF5F63E070E080E090E00B
:1027E0000E94E317D4CFD0E08D2FDF91CF911F91BE
:1027F0000F91FF90EF90DF90CF90BF90AF909F90A0
:102800008F900895CF930E94631F8130910521F12D
:102810008230910551F1892B89F5C09199026C2F75
:1028200087E692E00E94D30C43E050E060E070E065
:1028300090E00E94921F2EEB31E14CEB5EE06AEBE0
:1028400075E08DEF9FE00E94B313811117C060E027
:102850008C2FCF910C94062560E082E60E9406251D
:102860000E94BA05CF910C94DB0F60E086E60E94CF
:1028700006250E94BA05CF910C94EC0FCF910895D4
:10288000833081F028F4813099F08230A1F00895EE
:102890008730A9F08830B9F08430D1F4809180007D
:1028A0008F7D03C0809180008F7780938000089592
:1028B00084B58F7702C084B58F7D84BD08958091E3
:1028C000B0008F7703C08091B0008F7D8093B000FF
:1028D00008953FB7F8948091E7049091E804A0919F
:1028E000E904B091EA0426B5A89B05C02F3F19F072
:1028F0000196A11DB11D3FBFBA2FA92F982F882780
:10290000820F911DA11DB11DBC01CD0142E0660FDA
:10291000771F881F991F4A95D1F708950E9455384F
:102920000F931F93CF938C01C0E08C2F90E0F801A0
:1029300001900020E9F73197E01BF10B8E179F07FC
:1029400050F4F801E80FF91F608183E794E00E94DA
:10295000A105CF5FEACFCF911F910F9108953091DC
:10296000AD03313208F04BC0809189038111FCCF57
:102970009091AC0322E02093890321E02093880307
:102980002FEF209387031092860330938503ECE8A2
:10299000F3E0A5E6B3E020E0321721F041914D933A
:1029A0002F5FFACF1092640320916403990F922B4A
:1029B0009093640390916303913061F410926303E8
:1029C000909164039093BB009091BC0093FDF8CF6D
:1029D00095EC01C095EE9093BC00909189039230E4
:1029E000E1F3909187039F3F79F0809187038032D4
:1029F00041F080918703803331F084E005C081E0AD
:102A000003C082E001C083E010928B031092AD03FB
:102A100010928A030895CF93DF93CDB7DEB728973E
:102A20000FB6F894DEBF0FBECDBF98E0ECE7F1E043
:102A3000DE01119601900D929A95E1F7909179043B
:102A4000961710F46FEF690F60937A0480937B04FC
:102A5000FE013196E60FF11DE60FF11D6081680F52
:102A6000606840E083E794E028960FB6F894DEBFF4
:102A70000FBECDBFDF91CF910C948A05EF92FF92EC
:102A80000F931F93CF938C010E943A337C01C0E0D7
:102A9000EC2FF0E0EE15FF0548F4E00FF11F649114
:102AA00083E794E00E94A105CF5FF2CFCF911F9101
:102AB0000F91FF90EF900895682F82E10E940B150F
:102AC0006FED83E794E00E94A10560913C0383E7EA
:102AD00094E00C94A105009739F0DC01ED91FC9194
:102AE0000480F581E02D099480E0089542E050E0F3
:102AF0006CE672E08FEA93E00C94062840E061E017
:102B000083E794E00E948A0540917D0490917C04C3
:102B1000E92FF0E0ED58FB4F80E050E24817B1F0AC
:102B200025E1829FB001112420E030E0291750F404
:102B3000D901A60FB71FAD58BB4F1F965C932F5FEF
:102B40003F4FF4CF17868F5F7596E8CF8BE39FE1F9
:102B50000197F1F70895EF92FF920F931F93CF9390
:102B6000DF937C01062FC8E0D0E011E061E0802F08
:102B7000812309F460E0C7010E940B12110F219715
:102B8000A9F7DF91CF911F910F91FF90EF900895DA
:102B90000F931F93CF93DF93EC018B018881998171
:102BA0000E942A0CB801888199810E947412888140
:102BB000998164E40B96DF91CF911F910F910C9452
:102BC000AB15CF93DF93FB01DC019B01205F3F4FEF
:102BD000ED019C9192959F709A3010F0995C01C024
:102BE000905D9083119698819F709A3010F0995C57
:102BF00001C0905D91833296E217F30749F7FB011C
:102C0000108ADF91CF910895DF92EF92FF920F9398
:102C10001F93CF93DF93CDB7DEB761970FB6F894CC
:102C2000DEBF0FBECDBF7C01D62E8E010F5F1F4FC2
:102C3000B80106960E94E115D7011F96DC921F97F6
:102C40001296ED91FC911397DD2061F01F930F9385
:102C500086851F928F938FE692E09F938F931F92AA
:102C600089E40CC01F930F9386851F928F938FE684
:102C700092E09F938F9382E08F9387E58F930E94DA
:102C80009D040FB6F894DEBF0FBECDBF61960FB6A0
:102C9000F894DEBF0FBECDBFDF91CF911F910F9192
:102CA000FF90EF90DF900895CF93DF93CDB7DEB71D
:102CB00029970FB6F894DEBF0FBECDBFAE014F5FB0
:102CC0005F4F0E944F0C882331F08B81882319F0CD
:102CD00089819A8102C080E090E829960FB6F89425
:102CE000DEBF0FBECDBFDF91CF910895AF92BF92EF
:102CF000CF92DF92EF92FF920F931F93CF93DF93C8
:102D0000CDB7DEB7A1970FB6F894DEBF0FBECDBF2B
:102D10007C015B016A01FB0184818823B9F0F70122
:102D200064817581082E000C990B01978C309105F8
:102D300030F4FC01EE56FE4F808190E002C080E04E
:102D400090E00E947B0B882309F498C010E0612F6B
:102D5000CE0101960E942407882371F1F701848136
:102D600095812D813E818217930721F58130910550
:102D7000C9F0029719F58A858823A1F028E021502F
:102D800088F0822F90E0F701E80FF91FAAE0B0E089
:102D9000AC0FBD1FA80FB91F31858C91381779F37F
:102DA00080E001C081E0F70126819F81291302C0E4
:102DB000811104C01F5FCBCF6FEF01C0612FF601FF
:102DC0006083118267FD07C0F5018381811156C0C0
:102DD000C7010E942407F5018281882309F44AC0B3
:102DE000F70184819581029709F044C05601FFEFF5
:102DF000AF1ABF0A8DE0F7013696DE0155960190B5
:102E00000D928A95E1F7F70186818E3019F488E5F5
:102E100094E002C080E090E028E831E03A83298322
:102E20009C838B831E821D8281E0888B88E0FE015B
:102E30007896DE01179601900D928A95E1F71F862C
:102E4000CE0101960E949412882329F0CE010196AA
:102E50000E94680E02C080E090E8AC01990F660BFA
:102E6000770B09E023E0C5010E94F423CE0101960F
:102E70000E94D811B601C7010E94410AA1960FB65F
:102E8000F894DEBF0FBECDBFDF91CF911F910F91A0
:102E9000FF90EF90DF90CF90BF90AF900895CF93C9
:102EA000DF93282F30E0F901E65EFC4F8491F901B1
:102EB000E45BFC4FD491F901E85CFC4FC491CC2356
:102EC00091F081110E944014EC2FF0E0EE0FFF1FF3
:102ED000E25DFC4FA591B491EC91ED2381E090E08F
:102EE00021F480E002C080E090E0DF91CF9108956E
:102EF0001F93CF93DF93282F30E0F901E65EFC4F5C
:102F00008491F901E45BFC4FD491F901E85CFC4F3A
:102F1000C491CC23C1F0162F81110E944014EC2FD4
:102F2000F0E0EE0FFF1FE05FFC4FA591B4919FB75B
:102F3000F894111104C08C91D095D82302C0EC9163
:102F4000DE2BDC939FBFDF91CF911F910895CF932C
:102F5000DF9390E0FC01E45BFC4F2491FC01E85C12
:102F6000FC4F8491882361F190E0880F991FFC0148
:102F7000EA5FFC4FC591D491FC01E05FFC4FA59145
:102F8000B491611109C09FB7F8948881209582237C
:102F90008883EC912E230BC0623061F49FB7F894C4
:102FA0008881322F309583238883EC912E2B2C93AC
:102FB0009FBF06C08FB7F894E8812E2B28838FBF60
:102FC000DF91CF9108958F929F92AF92BF92CF924F
:102FD000DF92EF92FF926B017C010E9469144B011A
:102FE0005C01C114D104E104F104F1F00E94691400
:102FF000DC01CB0188199909AA09BB09883E9340D5
:10300000A105B10570F321E0C21AD108E108F10869
:1030100088EE880E83E0981EA11CB11CC114D10457
:10302000E104F10419F7DDCFFF90EF90DF90CF902E
:10303000BF90AF909F908F900895CF93DF93823091
:1030400028F09091760498609093760480937904A8
:1030500010927A0410927B0462E370E080E090E0CA
:103060000E94E31760917E0483E794E00E945E056E
:1030700068EE73E080E090E00E94E31760E383E78E
:1030800094E00E947105CBE4D6E4CE010197F1F7FC
:1030900060E383E794E00E9471052197F1F760E314
:1030A00083E794E00E94710583E592E00197F1F7D0
:1030B00060E283E794E00E947105609176046062AB
:1030C00040E083E794E00E948A0584E080937704DF
:1030D00040E06CE083E794E00E948A050E947E1540
:1030E00082E08093780440E066E083E794E00E9409
:1030F0008A0540E062E083E794E00E948A058BE362
:103100009FE10197F1F7DF91CF9108952FB7F894E0
:103110006091E3047091E4048091E5049091E604E9
:103120002FBF08950E94861828EE33E040E050E05B
:103130000E94BC36C9010895CF93DF93EC010E9431
:1031400092188C1B9D0BDF91CF91089580917F0485
:10315000909180040E949C1820913B03222329F027
:10316000CD9718F010927E0403C088E080937E040F
:1031700060E083E794E00C945E051F920F920FB617
:103180000F9211242F933F938F939F93AF93BF93ED
:103190008091E3049091E404A091E504B091E604E9
:1031A0003091E20423E0230F2D3720F40196A11D76
:1031B000B11D05C026E8230F0296A11DB11D209365
:1031C000E2048093E3049093E404A093E504B093B5
:1031D000E6048091E7049091E804A091E904B0919D
:1031E000EA040196A11DB11D8093E7049093E804C1
:1031F000A093E904B093EA04BF91AF919F918F919E
:103200003F912F910F900FBE0F901F901895DC01EA
:10321000ED91FC910190F081E02D0994611571050B
:1032200079F0FB0101900020E9F73197AF01461BCF
:10323000570BDC01ED91FC910280F381E02D0994A4
:1032400080E090E008958F929F92AF92BF92CF92CC
:10325000DF92EF92FF920F931F93CF93DF93EC01D6
:1032600088819981009709F487C0DC01ED91FC9178
:103270000084F185E02D09958C018115B0E89B074C
:1032800009F47AC0BC01CE0102960E94C306B801BF
:10329000CE01805B9F4F0E94C3067E01FCEEEF0EC5
:1032A000F11CD7018C9181508C93843071F4FE0114
:1032B000EC57FF4F84859585A685B785E759FF4F65
:1032C00080839183A283B38342C0811140C0FE01F9
:1032D000EC57FF4F84849584A684B7846E01EDEE8D
:1032E000CE0ED11CF60180819181A281B381A5010E
:1032F0009401281B390B4A0B5B0B4C3151054CF4E4
:10330000453EFFEF5F074CF420E030E045EE5FEF15
:1033100004C020E030E04BE150E0A0EBB4E00E94BC
:1033200021378E0102561F4FAB01BC01C8010E941C
:10333000F305065E1F4F0E151F05B1F7D6018D92DE
:103340009D92AD92BC92139783E0F80180838881AF
:1033500099810E946B15811117C0CE01DF91CF9129
:103360001F910F91FF90EF90DF90CF90BF90AF90A3
:103370009F908F900C944224FE01EF50FF4F80816C
:103380008F3F29F38F5FE2CFDF91CF911F910F9194
:10339000FF90EF90DF90CF90BF90AF909F908F9075
:1033A0000895CF92DF92EF92FF920F931F93CF93E6
:1033B000DF9300D000D000D0CDB7DEB7F82EE92ED5
:1033C000D62EC72E7F936F939F938F9382E792E0C1
:1033D0009F938F938CE08F9389E48F930E949D0439
:1033E00005E215E00FB6F894DEBF0FBECDBF46E094
:1033F00050E0B801CE0101960E94213369817A81A3
:103400008F2D9E2D0E942A33892B41F46B817C8164
:10341000ED81FE818D2D9C2D099513C00A5F1F4FF4
:1034200095E0033D190719F78EE692E09F938F937D
:103430001F9287E58F930E949D040F900F900F902D
:103440000F9026960FB6F894DEBF0FBECDBFDF916A
:10345000CF911F910F91FF90EF90DF90CF90089543
:10346000CF92DF92EF92FF921F93CF93DF9300D022
:10347000CDB7DEB77C016B01BC0180E295E00E9414
:103480006538892BF1F0B7018AE195E00E94653833
:10349000892BC9F0BE016F5F7F4FC7010E945A217F
:1034A000162F69817A81C7010E94042281110DC003
:1034B000123058F4612F6170F60160830E94540746
:1034C00004C061E0F9CF60E0F7CF0F900F90DF917B
:1034D000CF911F91FF90EF90DF90CF900895AF9222
:1034E000BF92CF92DF92EF92FF920F931F93CF93F1
:1034F000DF9300D0CDB7DEB75C018B01BE016F5FFB
:103500007F4F0E945A216B017C0169817A81C5013C
:103510000E940422811113C0C114D10481E0E80685
:10352000F10434F08FEF9FEFF8019183808305C0A1
:10353000F7FC05C0F801D182C0820E9454070F90A9
:103540000F90DF91CF911F910F91FF90EF90DF903F
:10355000CF90BF90AF9008959C01CB01B9010E941C
:10356000A92281110C94540708959C01CB01B90143
:103570000E94022381110C94540708950F931F9306
:10358000CF93DF9300D000D0CDB7DEB78B01BC0165
:10359000CE0101960E9414228823E1F049815A81CC
:1035A0006B817C81423090E859079FEF690779076A
:1035B0004CF04115E0E85E07610571052CF04FEF16
:1035C0005FE702C042E050E8F80151834083811177
:1035D0000E9454070F900F900F900F90DF91CF91A2
:1035E0001F910F9108950F931F93CF93DF938B013A
:1035F000EB01C370DD270E94FA32F801FF27EE0FBE
:10360000FF1FEC5CFD4F0190F081E02D60830330E3
:1036100028F08091FE049091FF0404C0809179020B
:1036200090917A02C130D10539F0C230D10539F01C
:10363000CD2B49F4029605C0805B9F4F02C0825695
:103640009F4F0E94E106DF91CF911F910F910C9443
:103650005407FC01808180933C030E9421080C9454
:1036600054070F931F93CF93DF9300D0CDB7DEB7EE
:10367000182F092F682F792FCE0101960E9402235F
:103680008823E9F0809199028636A9F48CEF94E0C2
:103690009F938F930F931F9383E095E09F938F9356
:1036A0008AE095E09F938F930E9471110FB6F89472
:1036B000DEBF0FBECDBF89819A810E94C2270F90C5
:1036C0000F90DF91CF911F910F910895CF93DF93CA
:1036D000EC0160E088810E9406258CEF94E09F93C6
:1036E0008F93DF93CF9387EE94E09F938F938AE03D
:1036F00095E09F938F930E9471118DB79EB70896A6
:103700000FB6F8949EBF0FBE8DBFDF91CF91089585
:103710000F931F93CF93DF9300D0CDB7DEB7182F51
:10372000092F682F792FCE0101960E94022388234A
:1037300091F1809199028037A9F489819A81209131
:103740009A0230919B02821B930B97FF03C09195C5
:10375000819591098536910544F489819A810E9469
:10376000D02719C08CEF94E002C081EF94E09F93C2
:103770008F930F931F938CEE94E09F938F938AE027
:1037800095E09F938F930E9498110FB6F894DEBF37
:103790000FBECDBFE2CF0F900F90DF91CF911F9161
:1037A0000F9108950F931F93CF93DF93C0E1D7E25A
:1037B0000BE811E08FEA93E00E946128892B61F405
:1037C000C8010197F1F72197A9F78FEF9FEFDF91DC
:1037D000CF911F910F9108958FEA93E0DF91CF91E0
:1037E0001F910F910C943F281F93CF93DF93EC010F
:1037F000188210E00E94D21B1D31C1F08D37910557
:10380000A9F08F3F2FEF920789F08C32910581F05C
:103810008A33910569F09C012D7F2032310551F3E7
:10382000FE01E10FF11D80831F5FE4CF80E001C046
:1038300081E0C10FD11D1882DF91CF911F910895B2
:103840002F923F924F925F926F927F928F929F92B0
:10385000AF92BF92CF92DF92EF92FF920F931F939E
:10386000CF93DF9300D000D000D0CDB7DEB78091EA
:103870009902823661F0803751F0863609F0EBC14B
:1038800081E090E890939B0280939A02E4C1E091DA
:103890009A02F0919B02FE83ED83CF01905802972C
:1038A00038F481E090E890939D0280939C02D3C10C
:1038B0008091FE049091FF04DC01AC57BF4F1C9631
:1038C0004D915D916D917C911F97AD81BE81A61B3D
:1038D000B70BB0937E02A0937D028E529F4FFC01E6
:1038E000C484D584E684F7846701FF24D7FCF09470
:1038F000EF2CD0928402C09283028091F504E09173
:103900003F03F0914003FA83E98320903D03309018
:103910003E03E0916103F0916203FC83EB838C33FF
:1039200021F08F5F8093F50497C080917902909188
:103930007A028E5B9F4FFC014080518062807380D1
:103940001092F5048091A3029091A40280907F02CE
:1039500090908002A0908102B0908202892B09F0A1
:1039600069C0CD01B7FF04C0882799278A1B9B0B2C
:103970002091470330914803821793070CF04CC005
:1039800091E01A161B060CF090E081E0181419045F
:103990001A041B040CF080E098133AC020919C029A
:1039A00030919D02E981FA812E173F0714F4CD0171
:1039B00002C080E090E02216330614F080E090E030
:1039C000A901ED81FE814E1B5F0BEB81FC814E173F
:1039D0005F0714F080E090E04D815E81421B530B45
:1039E000EB81FC814E175F0714F080E090E0B3019B
:1039F0001A161B062CF0A9015C5F46155705D4F07A
:103A00001A161B06CCF43450621773079CF014C0CE
:103A1000CD01880F991F10C0B501A401E3E0759591
:103A2000679557954795EA95D1F788279927841B7D
:103A3000950B02C080E090E0AC01990F660B770B0C
:103A4000840E951EA61EB71E80927F029092800261
:103A5000A0928102B09282022091410330914203F0
:103A60000E940337DC01CB0169E0B595A7959795D6
:103A700087956A95D1F78230F0E89F07FFEFAF078F
:103A8000BF0744F0811520E89207A105B1053CF479
:103A90005C0109C052E0A52E50E8B52E04C0AA244E
:103AA000AA944FE7B42EB0928602A0928502A0910C
:103AB0004303B091440320917F02309180024091F2
:103AC0008102509182020E942C37DC01CB0139E047
:103AD000B595A795979587953A95D1F7823030E8B7
:103AE00093073FEFA307B30744F0811540E894071D
:103AF000A105B1052CF48C0105C002E010E802C05C
:103B00000FEF1FE71093880200938702A0914503EF
:103B1000B0914603A70196010E942C37DC01CB012E
:103B200029E0B595A795979587952A95D1F7823085
:103B300050E895075FEFA507B50744F0811560E8E9
:103B40009607A105B1052CF4BC0105C062E070E840
:103B500002C06FEF7FE770938A026093890265016C
:103B6000BB0CEE08FF08ED81FE81CF010F2E000C8B
:103B7000AA0BBB0B8C0D9D1DAE1DBF1D012E000C95
:103B8000220B330B800F911FA21FB31F8B01770FE6
:103B9000220B330B080F191F2A1F3B1F8B819C819F
:103BA000820D931D8E179F072CF41F01EB81FC8162
:103BB0002E1A3F0A89819A81AC01EB81FC814E1B50
:103BC0005F0BED81FE81E417F50724F48B819C8166
:103BD0008E0F9F1F0230F0E81F07FFEF2F073F07F0
:103BE00054F0011540E814072105310584F402154D
:103BF000130534F008C053E0251650E8350654F09C
:103C0000422D832D24C080179107CCF015C04FEFB3
:103C10005FE702C042E050E88417950784F0023065
:103C200060E816076FEF2607360764F0011570E8A5
:103C30001707210531054CF4402F812F08C0482F6C
:103C4000892F05C042E080E802C04FEF8FE7409324
:103C50009C0280939D0226960FB6F894DEBF0FBE9D
:103C6000CDBFDF91CF911F910F91FF90EF90DF902B
:103C7000CF90BF90AF909F908F907F906F905F900C
:103C80004F903F902F9008958091FE049091FF04F3
:103C90000E9423198091790290917A020E9423193F
:103CA00080910E0190910F01DC01ED91FC91008457
:103CB000F185E02D09958115904859F480910E0108
:103CC00090910F01DC01ED91FC910680F781E02DD0
:103CD00009940895CF93DF931092A4021092A30247
:103CE0008FE68093990260E089ED94E00E94A20340
:103CF0008091FE049091FF04892B21F582EF90E0E2
:103D00000E943437EC0102960E94F106CE01805BDE
:103D10009F4F0E94F106CE0182569F4F0E94F106EE
:103D2000FE01E451FF4F8FEF80832CE031E03983B7
:103D3000288335968083D093FF04C093FE04CE0180
:103D40000E9442248091790290917A02892B21F578
:103D500082EF90E00E943437EC0102960E94F10657
:103D6000CE01805B9F4F0E94F106CE0182569F4F8D
:103D70000E94F106FE01E451FF4F8FEF80832CE09B
:103D800031E03983288335968083D0937A02C093BB
:103D90007902CE010E9442240E94441E10927B02AE
:103DA000109278021092FD041092FC041092FB0411
:103DB0001092FA04DF91CF9108956817790768F49B
:103DC000861B970B2091F6043091F70428173907CA
:103DD00020F49093F7048093F60408951F93CF93F3
:103DE000DF93CDB7DEB764970FB6F894DEBF0FBE92
:103DF000CDBF80E090E00E944736843009F045C096
:103E00000E94DB0A47E250E066E070E08CE393E05A
:103E10000E9437360E942B2549E050E06EE270E0A8
:103E200089E992E00E94373680919A0290919B0234
:103E3000909398028093970261E0809199020E948A
:103E4000062510E0612FCE0101960E9424078823E9
:103E500081F1412FBE016F5F7F4FCB010E94950B17
:103E6000882329F0CE0101960E94140B0CC0FE019C
:103E7000319685E1815011F01192FCCF612FCE0176
:103E800001960E9405071F5FDDCF0E946F250E94EB
:103E900065250E94DB0A8EE692E09F938F9383E074
:103EA0008F9387E58F930E949D040F900F900F9042
:103EB0000F9064960FB6F894DEBF0FBECDBFDF91B2
:103EC000CF911F9108952FB7F8948091F1049091AC
:103ED000F2042FBF0895CF930E94631F2091F30433
:103EE0003091F4048217930771F09093F404809357
:103EF000F3040E9492189093800480937F040E94A0
:103F0000A618C1E00CC0C0910105CC2341F00E946D
:103F100092189093800480937F040E94A6188C2F9F
:103F2000CF9108959C019FB7F8943093F2042093A9
:103F3000F1047093F0046093EF045093EE04409307
:103F4000ED049FBF089562E088E00E94A71762E039
:103F500089E00E94A71762E087E00E94A717E8E6C1
:103F6000F0E0808185608083EBE6F0E08081836013
:103F70008083EDE6F0E080818068808308951F9261
:103F80000F920FB60F9211242F933F934F935F938D
:103F90008F939F93EF93FF93E3B123B1269531E085
:103FA0002327822F817090E0880F991FE170E3270B
:103FB0008E2B209160039091EC04E82F880FFF0B6B
:103FC0009F7084E0989FE00DF11D1124222319F0C9
:103FD000E151FA4F02C0ED52FA4FE491E093EC0444
:103FE0002091EC042073F1F08091F1049091F2049F
:103FF000203111F4019601C001972091ED04309118
:10400000EE044091EF045091F0042817390714F49E
:10401000CA0104C0841795070CF4C9019093F204F7
:104020008093F104FF91EF919F918F915F914F9158
:104030003F912F910F900FBE0F901F9018951F92D8
:104040000F920FB60F9211248F934F9903C081E006
:10405000809301058F910F900FBE0F901F901895C0
:10406000CF92DF92EF92FF921F93CF93DF93CDB762
:10407000DEB7EC970FB6F894DEBF0FBECDBF7C0164
:104080006B0119821F8E0E94D21B8B37910559F04C
:10409000BC018AE00E94020B1EC010E08F8D8111CE
:1040A0000EC01123C1F0CE0101960E94F41B88239B
:1040B000A1F3CE014F960E94F41B182FEFCF8981F8
:1040C000882379F3A601BE01615E7F4FCE01019680
:1040D000F7010995E6CFEC960FB6F894DEBF0FBE58
:1040E000CDBFDF91CF911F91FF90EF90DF90CF90E8
:1040F0000895CF93DF93EC018091EB04811102C00E
:104100006CE201C06BE78FEA93E00E9407191092FE
:10411000EB0462E28FEA93E00E940719DF93CF93EA
:104120000E94A01062E28FEA93E00E9407190F90AC
:104130000F906AE38FEA93E0DF91CF910C94071917
:10414000CF93C62F0E94792062E28FEA93E00E940B
:1041500007196C2F8FEA93E00E94071962E28FEA39
:1041600093E0CF910C940719CF93DF93EB010E945A
:104170007920BE018FEA93E0DF91CF910C940E1964
:10418000CF92DF92EF92FF921F93CF93DF9300D0F5
:1041900000D0CDB7DEB76B01142F0E94251011237C
:1041A000D9F0760184E0E80EF11C44E050E0B6015D
:1041B000CE0101960E942133EC81F0E0EE0FFF1F4B
:1041C000E85DFD4F0190F081E02D6B8189819A813E
:1041D000099511506701E3CF0E941E100F900F90B8
:1041E0000F900F90DF91CF911F91FF90EF90DF9094
:1041F000CF9008958CE393E090939602809395027C
:1042000048E167E874E083E40C94C02080919C024C
:1042100090919D02089580919A0290919B02089539
:10422000CF93DF93CDB7DEB79E01255F3F4F498522
:104230005A856F8178858D819E810E947A33DF91C6
:10424000CF910895CF9360916904662321F0609126
:104250006C0481E068278AE694E00E947C038091E8
:104260000105882329F110920105C09100058C2FCA
:104270008C7F809300050E9421080E94860842E0FE
:1042800050E060E070E080E090E00E94921F22E049
:1042900034E142EC5EE061E278E08FE79DE00E946D
:1042A000B313C09300050E942108CF910C94860897
:1042B000CF9108958F929F92AF92BF92CF92DF924B
:1042C000EF92FF920F931F93CF93DF937C01FB013B
:1042D00091838083C0E0D0E0CC24C39420E030E020
:1042E000A90100811181D801DC90DD2049F1B0E203
:1042F000DB1203C02097F9F027C08DE2D816D1F069
:1043000080ED8D0D8A30E0F4AAE0B0E00E94213704
:104310004D2DDD0C550B9A01205331094901330F06
:10432000AA08BB08A5019401260F371F481F591F73
:10433000219601C0C12C0F5F1F4F11830083D1CF85
:10434000CD2B11F4F182E082C11008C066277727D7
:10435000CB01621B730B840B950B02C0CA01B90120
:10436000DF91CF911F910F91FF90EF90DF90CF9051
:10437000BF90AF909F908F9008950F931F932091BF
:104380003C032634F9F49B01AC0122573C474F4FC4
:104390005F4F57FD02C0E9E101C0E7EEAAE5B0E0DA
:1043A0000E9421370E2FEE0F110B220B330B600FE3
:1043B000711F821F931F22E330E040E050E00E9413
:1043C000DE3605C09B01AC01305A4F4F5F4F57FDA1
:1043D00003C0E0E0F1E002C0E0E0FFEFAAE0B0E0FF
:1043E0000E9421378F01FF0F220B330B600F711FCB
:1043F000821F931F20E032E040E050E00E94DE3652
:10440000C9011F910F9108959C01FB019081892F93
:104410008F7D11F09E3231F481E06217730719F03D
:1044200080E0089581E008953F924F925F926F92ED
:104430007F928F929F92AF92BF92CF92DF92EF9234
:10444000FF920F931F93CF93DF9300D0CDB7DEB7CA
:104450004C018B016DE270E0C8010E945A385C018A
:10446000BE016F5F7F4FC8010E945A212B013C01A2
:1044700069817A81C8010E940422882311F080E0BA
:1044800054C06EE270E0C8010E945A38009781F172
:104490008C010F5F1F4FBE016F5F7F4FC8010E94ED
:1044A0005A216B017C0139807A81632DC8010E94F9
:1044B00004228111E4CFA701960199E0220F331F56
:1044C000441F551F9A95D1F7132D101B6AE0C62E75
:1044D000D12CE12CF12C115070F0CA01B9016B5FA5
:1044E0007F4F8F4F9F4FA70196010E94DE36F3CF7B
:1044F00020E030E0A9017301620189E0CC0CDD1CF1
:10450000EE1CFF1C8A95D1F7AB2829F4C20ED31EEE
:10451000E41EF51E04C0C21AD30AE40AF50AF40127
:10452000C082D182E282F38281E00F900F90DF910E
:10453000CF911F910F91FF90EF90DF90CF90BF90A0
:10454000AF909F908F907F906F905F904F903F9033
:1045500008958F929F92AF92BF92FF920F931F93F5
:10456000CF93DF9300D000D0CDB7DEB78C01CE0162
:1045700001960E941422F82E8823A9F129813A81FC
:104580004B815C8180913C038634C1F457FD02C0AD
:10459000EDE201C0E3EDA2E3B0E00E9421378E2EF0
:1045A000EE0F9908AA08BB08680D791D8A1D9B1D8E
:1045B0002AE530E040E050E00E94DE36223080E81C
:1045C00038078FEF480758074CF02115E0E83E0701
:1045D000410551052CF02FEF3FE702C022E030E803
:1045E000F801318320838F2D0F900F900F900F9043
:1045F000DF91CF911F910F91FF90BF90AF909F904F
:104600008F9008958F929F92AF92BF92EF92FF92F8
:104610000F931F93CF93DF9300D000D0CDB7DEB7B9
:104620008C017B018CE696E00E946538892B41F471
:1046300081E090E8F80191838083FF24F39448C0DF
:10464000B701CE0101960E941422F82E882309F4A6
:104650003FC029813A814B815C8180913C03863443
:10466000D9F430544109510957FD02C0EDE201C0AF
:10467000E3EDA2E3B0E00E9421378E2EEE0F990801
:10468000AA08BB08680D791D8A1D9B1D2AE530E02C
:1046900040E050E00E94DE36DA01C9019056A109DF
:1046A000B1098230F0E89F07FFEFAF07BF0744F082
:1046B000811520E89207A105B1052CF49C0105C0E5
:1046C00022E030E802C02FEF3FE7F801318320837A
:1046D0008F2D0F900F900F900F90DF91CF911F9122
:1046E0000F91FF90EF90BF90AF909F908F900895A3
:1046F0008F929F92AF92BF92DF92EF92FF920F93B1
:104700001F93CF93DF93EC01D02E77FD03C080E29F
:10471000888309C08DE28883709560955095419596
:104720005F4F6F4F7F4F4A015B0139E0B594A7940B
:10473000979487943A95D1F77401213061F0223033
:1047400029F404E610E0ECE5F6E009C008EE13E019
:10475000E4E5F6E004C00AE010E0E4E6F6E09A01E1
:10476000AB01317044275527D8010E942137DC0165
:10477000CB019F5FAF4FBF4F29E0B595A7959795A8
:1047800087952A95D1F7BC018017910730F0740105
:104790008FEFE81AF80A60E070E07F936F93FF9262
:1047A000EF92FF93EF930D2D10E0015011091F932D
:1047B0000F93CE0101969F938F930E9410218DB786
:1047C0009EB70A960FB6F8949EBF0FBE8DBFCE015E
:1047D000DF91CF911F910F91FF90EF90DF90BF90ED
:1047E000AF909F908F900895CF92DF92EF92FF92BB
:1047F0000F931F93CF93DF93D82FC92F122FCA0186
:104800009058029748F46FE476E08D2F9C2F0E9419
:1048100033338D2F9C2F2DC080913C03863409F5B6
:104820009A01AB0122573C474F4F5F4F57FD02C0E3
:10483000E9E101C0E7EEAAE5B0E00E942137CE2E03
:10484000EE0FDD08EE08FF086C0D7D1D8E1D9F1D0F
:1048500022E330E040E050E00E94DE36BA01A901D8
:1048600003C0505A6F4F7F4F212F8D2F9C2F0E94D6
:104870007823DF91CF911F910F91FF90EF90DF9000
:10488000CF900895EF92FF920F931F93CF93DF93F2
:10489000FC01A081B181109709F441C0EC01ED91B8
:1048A000FC9111970680F781E02DCD0109958823B1
:1048B000B1F17E01F1EFEF0EF11CD7018C918D3338
:1048C00070F188819981DC01ED91FC910084F18582
:1048D000E02D09958C018115904809F1B801CE01B0
:1048E00002960E949C06B801CE01805B9F4F0E94F9
:1048F0009C0660E070E0CE0182569F4F0E949C06AD
:10490000FE01E351FF4FCC57DF4F8C859D85AE856F
:10491000BF8580839183A283B383F7011082DF91E7
:10492000CF911F910F91FF90EF9008952091A302D6
:104930003091A40281E02430310529F0283031057E
:1049400011F080E008950895CF92DF92EF92FF92E8
:10495000CF93DF934817590708F4CA019C01DB0184
:104960000E941A3720E13EE040E050E00E94DE362F
:1049700069017A01E9010E949624882321F0CC275D
:10498000DD27CC19DD09E0917902F0917A02EE5B26
:10499000FF4F80819181A281B381CA0FDB1FD09329
:1049A0008C02C0938B02DF91CF91FF90EF90DF904C
:1049B000CF900895E0917902F0917A0280819181FF
:1049C0000E946B15882349F0E0917902F0917A02F8
:1049D000EE5BFF4F82819381089580E090E8089517
:1049E000E091FE04F091FF04808191810E946B159B
:1049F000882349F0E091FE04F091FF04EE5BFF4F45
:104A000082819381089580E090E8089590919902C1
:104A1000981309C02091A3023091A40225503109B6
:104A20002330310528F41092A4021092A30202C090
:104A3000662381F0809399028F3651F481E090E8EB
:104A400090939B0280939A0290939D0280939C0284
:104A50000C9443070895CF93DF93CCE3D3E0809188
:104A6000790290917A026D8D02960E94E106809102
:104A7000790290917A026E8D805B9F4F0E94E106D1
:104A80008091790290917A026F8D82569F4F0E9499
:104A9000E1068091FE049091FF0468A102960E94B5
:104AA000E1068091FE049091FF0469A1805B9F4F15
:104AB0000E94E1068091FE049091FF046AA1825653
:104AC0009F4FDF91CF910C94E10647E250E068E2FE
:104AD00076E08CE393E00E9421330C942B2560E078
:104AE0008FE60E940625E9E9F2E081E090E89283F2
:104AF00081839483838386E690E09683858380E038
:104B00009AE09087878308958091FC049091FD043A
:104B10000C949C188091FA049091FB040C949C18BE
:104B2000FC0177FF03C071956195710935E07595BA
:104B300067953A95E1F76635710514F065E570E023
:104B400077FF02C060E070E02AEA31E0261B370BF5
:104B5000A081B1810E940337DC01CB0129E0B5952A
:104B6000A795979587952A95D1F7918380830C9483
:104B70004307FC0177FF03C07195619571099B01A3
:104B800045E0359527954A95E1F72B39310514F025
:104B90002AE930E037FF02C020E030E02A593D4FDB
:104BA000A081B1810E940337DC01CB0129E0B595DA
:104BB000A795979587952A95D1F7823020E8920797
:104BC0002FEFA207B2077CF0811520E89207A1051C
:104BD000B10524F4BC01499734F002C06FEF7FE7C0
:104BE0007183608304C089E190E0918380830C9499
:104BF00043077F928F929F92AF92BF92CF92DF92A4
:104C0000EF92FF920F931F93CF93DF938091100148
:104C100090911101DC01ED91FC910190F081E02D6A
:104C2000099590917C028917A9F080937C028111EB
:104C300003C08BE096E002C082E196E09F938F93E1
:104C400089E196E09F938F930E9471110F900F90CE
:104C50000F900F90809199028F3649F481E090E097
:104C60009093A4028093A3027724739401C0712CC3
:104C700080919C0290919D029058029708F46DC11A
:104C8000E0917902F0917A02808191810E946B1506
:104C9000882309F462C1E091FE04F091FF04808151
:104CA00091810E946B15811108C080919902823612
:104CB00009F453C1803709F450C18091F8049091F0
:104CC000F9040E949C18EC010E948A257C010E9434
:104CD00084256C01E0917902F0917A02EE5BFF4F3E
:104CE00080809180A280B380E091FE04F091FF0467
:104CF000EE5BFF4F028113810E949218E091A302A4
:104D0000F091A402EB30F10508F02EC1EC5CFF4FEE
:104D10000C94FD369093F9048093F804711024C12B
:104D20001092F7041092F60460919C0270919D021B
:104D30002091490330914A03260F371F2A153B055E
:104D40007CF5B60188E592E00E94DD1E8091990213
:104D5000863621F4B70188E592E00CC080919A0272
:104D600090919B020F96801791070CF0EAC0B70153
:104D70008CE291E00E94DD1E809106019091070176
:104D80008057944009F44EC08091F6049091F70446
:104D9000892B19F085E090E041C084E090E03EC0AE
:104DA00080914B0390914C03860F971FA816B9066C
:104DB0000CF0C7C0B70188E592E00E94DD1EB60185
:104DC0008CE291E00E94DD1E80919902863649F0C6
:104DD00080919A0290919B020F97081719070CF087
:104DE000B0C080910401909105018057944059F41E
:104DF00080915F038823B1F08091020190910301BB
:104E00008057944079F08091F6049091F704892BB3
:104E100019F086E090E002C083E090E09093A40255
:104E20008093A3028091A3029091A402039702971A
:104E300008F09AC080917802882321F0B70188E0B9
:104E400097E008C080917B02882309F48DC0B601E9
:104E500084E893E00E94DD1E87E090E079C021E0C5
:104E6000209378029093FB048093FA046091A0024F
:104E70007091A102AE0180915703909158030E9456
:104E8000A42484E090E09093A4028093A302209154
:104E90008B0230918C0280919C0290919D0282172E
:104EA000930774F480919902863609F45DC080916D
:104EB0009A0290919B024097081719070CF054C072
:104EC000C53BD10528F030938E0220938D0239C066
:104ED00088E090E03DC021E020937B029093FD04A8
:104EE0008093FC0460919E0270919F02AE018091BC
:104EF0005503909156030E94A42483E090E0909380
:104F0000A4028093A30220918B0230918C028091A5
:104F10009C0290919D022817390764F480919902B0
:104F2000863611F180919A0290919B0240968017EB
:104F30009107D4F4C53BD10548F0309390022093FB
:104F40008F021092A4021092A3020EC089E090E09A
:104F50009093A4028093A30207C01092A40210921F
:104F6000A30277247394A9CEDF91CF911F910F9163
:104F7000FF90EF90DF90CF90BF90AF909F908F9079
:104F80007F90089590939D0280939C0210927B02E3
:104F9000109278020E94201C0E94F9250C9443076D
:104FA000CF93DF93EC0180919A0290919B02D09372
:104FB0009B02C0939A028C1B9D0B97FF03C0919597
:104FC000819591098130914024F010927B021092DA
:104FD00078020E94201C0E94F92580919902803756
:104FE00071F480919702909198028C1B9D0B97FF12
:104FF00003C09195819591098138910524F0DF9145
:10500000CF910C944307DF91CF910895CF92DF9217
:10501000EF92FF920F931F93CF93DF936C017A016E
:105020008B01C0E0D0E0CE15DF0581F0D8016D9195
:105030008D01D601ED91FC910190F081E02DC6012A
:105040000995892B11F02196EECF7E01C701DF91E2
:10505000CF911F910F91FF90EF90DF90CF90089527
:10506000FC01538D448D252F30E0842F90E0821B6E
:10507000930B541710F0CF96089501970895FC01F3
:10508000918D828D981761F0828DDF01A80FB11D7F
:105090005D968C91928D9F5F9F73928F90E00895A3
:1050A0008FEF9FEF0895FC01918D828D981731F05D
:1050B000828DE80FF11D858D90E008958FEF9FEFB1
:1050C0000895FC01918D228D892F90E0805C9F4F87
:1050D000821B91098F73992708958FEA93E00E94AC
:1050E000612821E0892B09F420E0822F0895FC013A
:1050F000848DDF01A80FB11DA35ABF4F2C91848D61
:1051000090E001968F739927848FA689B7892C9395
:10511000A089B1898C91837080648C93938D848DE8
:10512000981306C00288F389E02D80818F7D8083EB
:105130000895EF92FF920F931F93CF93DF93EC01AB
:1051400081E0888F9B8D8C8D981305C0E889F98943
:10515000808185FD26C0F62E0B8D10E00F5F1F4F5E
:105160000F731127E02E8C8DE8120CC00FB607FCD0
:10517000FACFE889F989808185FFF5CFCE010E94B9
:105180007728F1CF8B8DFE01E80FF11DE35AFF4F19
:10519000F0829FB7F8940B8FEA89FB898081806247
:1051A0000AC09FB7F894EE89FF896083E889F9897E
:1051B00080818370806480839FBF81E090E0DF9175
:1051C000CF911F910F91FF90EF900895CF93DF93B0
:1051D000EC01888D8823C9F0EA89FB89808185FDEF
:1051E00005C0A889B9898C9186FD0FC00FB607FC50
:1051F000F5CF808185FFF2CFA889B9898C9185FF91
:10520000EDCFCE010E947728E7CFDF91CF910895AF
:1052100080E090E0892B29F00E946D2881110C9488
:105220000000089585ED8093BC008091BC0084FD52
:10523000FCCF10928903089540914805262F30E055
:10524000240F311D21323105DCF4209189032430F3
:10525000C9F4FC0180E090E0861758F430914805CD
:105260002191DC01A85DBA4FA30FB11D2C930196CB
:10527000F3CF80914805680F6093480580E008955A
:1052800081E0089582E00895089508950895E091D9
:10529000030580910205E81730F4F0E0E85FFA4F6B
:1052A000808190E008958FEF9FEF0895909103051E
:1052B00080910205981750F4E92FF0E0E85FFA4F6B
:1052C000208130E09F5F9093030502C02FEF3FEFF6
:1052D000C90108958091020590E020910305821B89
:1052E00091090895CF92DF92EF92FF920F931F934F
:1052F000CF93DF937C01CB018A0120918A03222383
:1053000089F0EB016B01C40ED51ECC15DD0569F0EB
:105310006991D701ED91FC910190F081E02DC701D9
:105320000995F3CF642F0E941C29C801DF91CF910A
:105330001F910F91FF90EF90DF90CF900895CF9342
:10534000DF931F92CDB7DEB7698320918A032223B2
:10535000D1F02091AD03203240F021E030E0FC019B
:105360003383228380E090E015C080918B03E82F87
:10537000F0E0E457FC4F998190838F5F80938B031B
:105380008093AD0305C061E0CE0101960E941C2907
:1053900081E090E00F90DF91CF9108951F920F92DE
:1053A0000FB60F9211242F933F934F935F936F93F8
:1053B0007F938F939F93AF93BF93EF93FF938FEA66
:1053C00093E00E947728FF91EF91BF91AF919F9159
:1053D0008F917F916F915F914F913F912F910F909E
:1053E0000FBE0F901F9018951F920F920FB60F923D
:1053F00011242F938F939F93EF93FF93E091BF031B
:10540000F091C0038081E091C503F091C60382FD55
:1054100012C090818091C8038F5F8F732091C90360
:10542000821751F0E091C803F0E0E155FC4F958FF1
:105430008093C80301C08081FF91EF919F918F916C
:105440002F910F900FBE0F901F9018951F920F92E3
:105450000FB60F9211242F933F934F935F936F9347
:105460007F938F939F93AF93BF93EF93FF9380911D
:10547000B900887F803609F49CC068F5883209F449
:105480005BC090F4803109F454C038F4882309F4E7
:10549000F6C0883009F44DC0F6C0883109F44CC01C
:1054A000803209F45DC0EFC0803409F468C048F46C
:1054B000803309F455C0883309F0E5C08093870331
:1054C000D8C0803509F44FC0883509F45DC08834F0
:1054D00009F0D9C0D6C0883909F4C7C0A8F4883704
:1054E00009F467C038F4883609F463C0803709F4DA
:1054F00060C0C9C0883809F4B8C0803909F45FC0F9
:10550000803809F0C0C05BC0803B09F486C038F425
:10551000803A09F466C0883A09F47FC0B4C0803C80
:1055200009F4A7C0883C09F4A4C0883B09F48AC0E8
:10553000AAC08091640310C0909186038091850376
:10554000981770F5E091860381E08E0F80938603B3
:10555000F0E0EB59FC4F80818093BB0085EC86C066
:10556000809387038EC0E091860381E08E0F809345
:1055700086038091BB00F0E0EB59FC4F8083909153
:105580008603809185036EC0E091860381E08E0FD3
:10559000809386038091BB00F0E0EB59FC4F808341
:1055A0008091880381116DC081E08093630384EA58
:1055B00061C083E08093890310926A05CFCF809108
:1055C0006A05803208F051C0E0916A0581E08E0FD3
:1055D00080936A058091BB00F0E0E65BFA4F808320
:1055E000BDCF85EC8093BC001092890380916A0541
:1055F000803230F4E0916A05F0E0E65BFA4F108209
:1056000060916A0570E0E0910605F09107058AE473
:1056100095E0099510926A0536C084E0809389036D
:105620001092490510924805E0910405F091050596
:10563000099580914805811105C081E08093480556
:1056400010922805E091490581E08E0F809349056D
:10565000F0E0E85DFA4F80818093BB0090914905AE
:1056600080914805981708F479CF85E88093BC00AD
:105670000AC085EC8093BC001092890304C010928C
:1056800087030E941229FF91EF91BF91AF919F91E3
:105690008F917F916F915F914F913F912F910F90DB
:1056A0000FBE0F901F901895CDB7DEB7E397DEBF02
:1056B000CDBF789484B5826084BD84B5816084BD9B
:1056C00085B5826085BD85B5816085BD80916E00A0
:1056D000816080936E0010928100809181008260D1
:1056E000809381008091810081608093810080910E
:1056F00080008160809380008091B10084608093FD
:10570000B1008091B00081608093B00080917A00F8
:10571000846080937A0080917A00826080937A001E
:1057200080917A00816080937A0080917A0080680D
:1057300080937A001092C10061E083E00E94A71775
:1057400081E28093B0008BE08093B1008DE780937D
:10575000B3008EE38093B4008091B00080628093A8
:10576000B00064EF71E080E090E00E94E317809168
:10577000B0008F7D8093B00064EF71E080E090E036
:105780000E94E3178091B00080628093B00064EFC4
:1057900071E080E090E00E94E3178091B0008F7D7F
:1057A0008093B0000E94DE080E94A31FE091BF0317
:1057B000F091C00382E08083E091BF03F091C003C9
:1057C0001082E091BB03F091BC031082E091BD0315
:1057D000F091BE0380E180831092C703E091C30380
:1057E000F091C40386E08083E091C103F091C2038D
:1057F000808180618083E091C103F091C203808148
:1058000088608083E091C103F091C2038081806849
:105810008083E091C103F091C20380818F7D8083FA
:105820000E946A1E0E94EE1E0E9486186B017C0177
:105830000E948618C616D706E806F90619F40E94D3
:105840002221F6CF0E9421080E94680762E087E0CB
:105850000E94A71787E00E944F1721E0019709F0E7
:1058600020E020933B039E012F5F3F4F6901CE0153
:1058700046967C01DE015296BAABA9AB0E9422216A
:105880000E949218A0E0B0E04091B7025091B80297
:105890006091B9027091BA02841B950BA60BB70BED
:1058A00080319E40A105B105A0F00E949218A0E0B1
:1058B000B0E08093B7029093B802A093B902B0937E
:1058C000BA020E94DE080E9421080E9468070E9416
:1058D000A31F0E94861800910801109109012091D0
:1058E0000A0130910B01DC01CB01801B910BA20B53
:1058F000B30B883E9340A105B10508F474C00E9423
:105900008618609308017093090180930A019093AF
:105910000B010E94441E80917B02882309F4AEC3D0
:105920008091A3029091A4028330910509F4A6C34B
:10593000099709F4A3C3E0917902F0917A02EC5738
:10594000FF4F80899189A289B389448555856685F1
:105950007785481759076A077B070CF041C54489CA
:1059600055896689778984179507A607B7070CF4C8
:1059700037C58D01A0908F02B090900248018A181F
:105980009B0870909E0260909F02011520E812070C
:1059900009F029C50E9484258538934008F03CC54C
:1059A0000E94201C0091A3021091A4020E94F925DC
:1059B00011278091A3029091A4020817190731F0D2
:1059C00060E070E080E090E00E94ED10809199022C
:1059D000843709F05DC30E9468070E9486080E9410
:1059E000BA050E94A61837EEA32E31E0B32E8FEA37
:1059F00093E00E946128181619060CF03CC38FEA48
:105A000093E00E943F28813609F47EC044F5833438
:105A100009F484C07CF48D3051F31CF48A3039F3DE
:105A200013C3803221F3813409F00EC381E08093E7
:105A30006904DDCF823509F4FCC234F4853409F001
:105A400003C300E010E0C6C0833509F473C0853598
:105A500009F0FAC2E5EAF2E083E19FEFC7C18C36B4
:105A600009F47EC0BCF4843609F4FFC024F4833604
:105A700009F4ADC0E9C2883609F4C8C18A3609F014
:105A8000E3C260E070E081ED99E10E9430200E9465
:105A900033109DC0833709F460C024F58E3609F0B9
:105AA000D3C21F9283E08F931F9283E78F931F923D
:105AB0001F921F9285E08F938FEE91E09F938F93BB
:105AC00087EF91E09F938F938EEF91E09F938F9359
:105AD0000E94A0100E9476150FB6F894DEBF0FBE8C
