:100000000C942F030C9457030C9457030C943A2B25
:100010000C9457030C949C2B0C9457030C9457038B
:100020000C9457030C9457030C9457030C945703E8
:100030000C9457030C9457030C9457030C945703D8
:100040000C9479290C9457030C94E9290C94C32936
:100050000C9457030C9457030C9457030C945703B8
:100060000C941B2A0C9457032074696D65206C65F1
:10007000667400696E6720666F7200576169746903
:100080006E6720666F72207065616B0057616974DE
:1000900020746F2000436F6F6C00486561740044EA
:1000A0006F6F72206F70656E0054656D702E2063E7
:1000B0006F6E74726F6C204F46460049646C00622C
:1000C000656572536C6F706546696C740062656536
:1000D00072536C6F7746696C740062656572466135
:1000E000737446696C7400667269646765536C6FFB
:1000F000706546696C7400667269646765536C6FFD
:100100007746696C740066726964676546617374EA
:1001100046696C74006873006C6168006D617843B7
:100120006F6F6C54696D65466F72457374006D61D5
:10013000784865617454696D65466F7245737400E3
:10014000636F6F6C5461726765744C00636F6F6CA2
:1001500054617267657448006865617454617267C0
:1001600065744C0068656174546172676574480019
:1001700069646C6552616E67654C0069646C6552B8
:10018000616E67654800694D6178457272004B6425
:10019000004B69004B70007069644D6178007465B4
:1001A0006D705365744D61780074656D705365743E
:1001B0004D696E0074656D70466F726D617400708C
:1001C0006F735065616B006E65675065616B0070A1
:1001D0006F735065616B457374006E656750656140
:1001E0006B457374006573745065616B00640069DE
:1001F00000700062656572536C6F706500646966BB
:1002000066496E74656772616C0062656572446907
:10021000666600222563223A256400202D2D2E2DAE
:100220002000526F6F6D2020004D6F646500496E95
:1002300076616C6964206D6F6465002A2A205465BC
:100240007374696E67202A2A004F66660050726FC9
:1002500066696C6500426565722000436F6E737459
:100260002E00467269646765200025646825303277
:10027000646D253032640000556E6B6E6F776E20B2
:100280007374617475732100222573220025640044
:100290002C2256223A5B006C6F674944006C6F67F2
:1002A000547970650020202020202020202020204C
:1002B00020200054656D7020636F6E74726F6C2027
:1002C0007475726E6564206F666620696E206D6558
:1002D0006E752E004368616E67656420746F2070D0
:1002E000726F66696C65206D6F646520696E206D44
:1002F000656E752E002020202020200025532074BC
:10030000656D702073657420746F20257320696E8D
:10031000204D656E752E0046726964676500426502
:100320006572006E756C6C00222573220053746137
:10033000746500526F6F6D54656D7000467269642C
:100340006765416E6E004672696467655365740047
:1003500046726964676554656D70004265657241F7
:100360006E6E004265657253657400426565725435
:10037000656D7000636F6F6C4573740068656174C0
:1003800045737400667269646765536574006265DD
:100390006572536574006D6F646500257500B40166
:1003A0000004A90101019E010301970125039401A5
:1003B0000502910107028E01090286010B037B01F0
:1003C0000D0370010F0364011103580113034C0165
:1003D0001503400117032E0119051C011B05060119
:1003E0001D00F7001E00E7001F00DA002000CD000E
:1003F0002100BF00220018012300150124004D6FC9
:1004000064650062792070726F66696C6500426590
:10041000657200627920776562004672696467657B
:100420000025532073657420746F20257320255395
:100430000066616C73650074727565009603000058
:10044000E01C8E030000281D84030000AB1C7C030D
:1004500010034F15740312034F15B4010000082553
:10046000A901A203F4159E01A403F4159701C60384
:10047000EF149401A6034F159101A8034F158E01A7
:10048000AA034F158601AC03EF147B01AE03EF14F2
:100490007001B003EF146401B203EF145801B40308
:1004A000EF144C01B603EF144001B803EF142E0112
:1004B000BA0342131C01BC0342131801C403FD1507
:1004C0001501C503FD15060100007F13F7000100AB
:1004D0007F13E70002007F13DA0003007F13CD00D3
:1004E00004007F13BF0005007F1300020400030017
:1004F00001100302000003020100060004000605CB
:10050000002006050400030201002300010013027D
:10051000000003050400030304100305032000008A
:100520000000636C6F736564006F70656E656400D6
:1005300046726964676520646F6F722025530043BB
:1005400000A200DC0000000000000001000200FE2C
:100550009A009AFF660066FF5802B0040104030384
:100560000404000000146E756C6C0025642E2530A8
:1005700033640025642E253032640025642E253036
:100580003164006E756C6C000A020003FD01020309
:10059000F3010603F1010802EF010A02ED010C026A
:1005A000E5010E01DA011001CF011201C7011401AA
:1005B000BF01160125750022257322006362616464
:1005C0006538363300302E322E3132004E3A7B22DF
:1005D00076223A222553222C226E223A22255322B9
:1005E0002C2273223A25642C2279223A25642C226B
:1005F00062223A222563222C226C223A222564228E
:100600007D0000000000240027002A0000000000F8
:10061000250028002B000000000800020100000354
:10062000040700000000000000000000000023009C
:100630002600290004040404040404040202020243
:100640000202030303030303010204081020408095
:10065000010204081020010204081020AD2B11240F
:100660001FBECFEFD8E0DEBFCDBF12E0A0E0B1E00B
:10067000E6E1F1E702C005900D92A235B107D9F786
:1006800025E0A2E5B2E001C01D92AF34B207E1F768
:1006900013E0CFE2D3E004C02197FE010E94193796
:1006A000CE32D107C9F70E944A2C0C9489380C9499
:1006B0000000CF93DF93FB01DC019B01205F3F4FE4
:1006C0009D9192959F709A3098F0995C9083ED017E
:1006D000219798819F709A3068F0995C9183329647
:1006E000E217F30769F7FB01108ADF91CF910895B4
:1006F000905DECCF905DF2CF833081F028F48130B3
:1007000099F08230A9F008958730A9F08830C9F0B7
:100710008430B1F4809180008F7D03C0809180008F
:100720008F7780938000089584B58F7784BD089576
:1007300084B58F7DFBCF8091B0008F778093B00020
:1007400008958091B0008F7DF9CFCF93DF93282F4C
:1007500030E0F901EA5EF94F8491F901E85BF94F65
:10076000D491F901EC5CF94FC491CC23A1F0811133
:100770000E947C03EC2FF0E0EE0FFF1FE65DF94FC7
:10078000A591B491EC91ED2381E090E009F480E033
:10079000DF91CF91089580E090E0FACF1F93CF933F
:1007A000DF93282F30E0F901EA5EF94F8491F901D7
:1007B000E85BF94FD491F901EC5CF94FC491CC237B
:1007C000A9F0162F81110E947C03EC2FF0E0EE0FB0
:1007D000FF1FE45FF94FA591B4918FB7F894EC91A6
:1007E000111108C0D095DE23DC938FBFDF91CF912C
:1007F0001F910895DE2BF8CFCF93DF9390E0FC019B
:10080000E85BF94F24918C5C994FFC01849188231B
:10081000C9F090E0880F991FFC01EE5FF94FA59198
:10082000B491FC01E45FF94FC591D49161110DC001
:100830009FB7F8948C91209582238C9388812823EC
:1008400028839FBFDF91CF910895623051F49FB705
:10085000F8943C91822F809583238C93E8812E2BF2
:10086000EFCF8FB7F894EC912E2B2C938FBFEACF5C
:100870003FB7F89480919C0390919D03A0919E03B3
:10088000B0919F0326B5A89B05C02F3F19F0019694
:10089000A11DB11D3FBFBA2FA92F982F8827BC01DA
:1008A000CD01620F711D811D911D42E0660F771F02
:1008B000881F991F4A95D1F708958F929F92AF9202
:1008C000BF92CF92DF92EF92FF926B017C010E9468
:1008D00038044B015C01C114D104E104F104B9F006
:1008E0000E943804681979098A099B09683E734097
:1008F0008105910580F321E0C21AD108E108F108D1
:1009000088EE880E83E0981EA11CB11CE4CFFF90F6
:10091000EF90DF90CF90BF90AF909F908F90089511
:100920002FB7F894609198037091990380919A037E
:1009300090919B032FBF08950E94900428EE33E00E
:1009400040E050E00E94D836C9010895CF93DF936C
:10095000EC010E949C048C1B9D0BDF91CF910895AC
:10096000DC01ED91FC910190F081E02D0994AF92B2
:10097000BF92CF92DF92EF92FF920F931F93CF938C
:10098000DF936C017B018B01040F151FEB015E01EE
:10099000AE18BF08C017D10759F06991D601ED9183
:1009A000FC910190F081E02DC6010995892B79F722
:1009B000C501DF91CF911F910F91FF90EF90DF90D4
:1009C000CF90BF90AF900895FC01538D448D252F9B
:1009D00030E0842F90E0821B930B541710F0CF96D9
:1009E000089501970895FC01918D828D981761F00B
:1009F000A28DAE0FBF2FB11D5D968C91928D9F5F22
:100A00009F73928F90E008958FEF9FEF0895FC0100
:100A1000918D828D981731F0828DE80FF11D858DB3
:100A200090E008958FEF9FEF0895FC01918D228D46
:100A3000892F90E0805C9F4F821B91098F739927CB
:100A4000089588E194E00E94150521E0892B09F4BE
:100A500020E0822F0895FC01A48DA80FB92FB11DAD
:100A6000A35ABF4F2C91848D90E001968F739927E4
:100A7000848FA689B7892C93A089B1898C918370C2
:100A800080648C93938D848D981306C00288F389BB
:100A9000E02D80818F7D80830895EF92FF920F93E8
:100AA0001F93CF93DF93EC0181E0888F9B8D8C8D1A
:100AB00098131AC0E889F989808185FF15C09FB70E
:100AC000F894EE89FF896083E889F98980818370D1
:100AD000806480839FBF81E090E0DF91CF911F9180
:100AE0000F91FF90EF900895F62E0B8D10E00F5FA1
:100AF0001F4F0F731127E02E8C8D8E110CC00FB677
:100B000007FCFACFE889F989808185FFF5CFCE010E
:100B10000E942B05F1CFEB8DEC0FFD2FF11DE35A59
:100B2000FF4FF0829FB7F8940B8FEA89FB89808191
:100B30008062CFCFCF93DF93EC01888D8823B9F00B
:100B4000AA89BB89E889F9898C9185FD03C08081D8
:100B500086FD0DC00FB607FCF7CF8C9185FFF2CF55
:100B6000808185FFEDCFCE010E942B05E9CFDF917B
:100B7000CF91089580E090E0892B29F00E94210513
:100B800081110C940000089520917203260F3327E1
:100B9000331F21323105ECF42091EE03FC0190E08B
:100BA00080E0243069F082E00895A09172032191E1
:100BB000AC01405B5C4FA40FB52FB11D2C93019687
:100BC000861798F380917203680F6093720380E038
:100BD000089581E008951092EE0381E08093ED0383
:100BE0001092C80361E082E10E94CE0361E083E1DC
:100BF0000E94CE03E9EBF0E080818E7F80838081CC
:100C00008D7F808388E48093B80085E48093BC0066
:100C10000895CF93DF9391E090934F038823B9F029
:100C2000C091B800D091BA008091BC008A7B8093BB
:100C3000BC0060E082E10E94CE0360E083E10E949C
:100C4000CE030E94EB05D093BA00C093B800DF91A9
:100C5000CF910895CF92DF92EF92FF920F931F935F
:100C6000CF93DF93D091170481E0D13208F09CC07C
:100C7000C09116040E9438046B017C018091EE0340
:100C800081116CC082E08093EE0381E08093ED03DC
:100C90008FEF8093EC031092EB03D093EA03A6EF5F
:100CA000B3E0EAECF3E080E0D8138DC01092C90302
:100CB0008091C903CC0FC82BC093C9038091C8038E
:100CC000813009F084C01092C8030E9438046B017F
:100CD0007C018091C9038093BB008091F0039091C7
:100CE000F103A091F203B091F303892B8A2B8B2B94
:100CF000A1F00E9438040091F0031091F1032091BB
:100D0000F2033091F3036C197D098E099F090617D0
:100D100017072807390708F442C08091BC0083FDFB
:100D2000D8CF85EC8093BC000E9438046B017C0115
:100D30008091EE03823009F44CC08091EC038F3F28
:100D400009F469C08091EC03803209F466C0809197
:100D5000EC03803309F463C084E026C08091F00383
:100D60009091F103A091F203B091F303892B8A2BA8
:100D70008B2B09F483CF0E9438040091F00310916B
:100D8000F1032091F2033091F3036C197D098E0970
:100D90009F09061717072807390708F06FCF8091BA
:100DA000EF030E94090685E01092F50310921704E4
:100DB0001092F403DF91CF911F910F91FF90EF906C
:100DC000DF90CF9008959D9191938F5F6DCF85EEC9
:100DD000A9CF8091F0039091F103A091F203B0911B
:100DE000F303892B8A2B8B2B09F4A2CF0E943804A2
:100DF0000091F0031091F1032091F2033091F3037D
:100E00006C197D098E099F090617170728073907EE
:100E100008F08ECFC4CF80E0C7CF82E0C5CF83E09B
:100E2000C3CF089508950895E0914E0380914D0336
:100E3000E81730F4F0E0E35DFC4F808190E0089526
:100E40008FEF9FEF089590914E0380914D032FEF08
:100E50003FEF981748F4E92FF0E0E35DFC4F208165
:100E600030E09F5F90934E03C901089580914D0338
:100E700090914E03891B990B0895CF92DF92EF92C8
:100E8000FF920F931F93CF93DF937C01CB018A01D5
:100E90002091F403222389F0EB016B01C40ED51ECF
:100EA000CC15DD0569F06991D701ED91FC910190B8
:100EB000F081E02DC7010995F3CF642F0E94C4058E
:100EC000C801DF91CF911F910F91FF90EF90DF90BC
:100ED000CF900895CF93DF931F92CDB7DEB769838C
:100EE0002091F4032223F9F020911704203258F0C6
:100EF00021E030E0FC013383228390E080E00F901A
:100F0000DF91CF9108958091F503E82FF0E0EA504A
:100F1000FC4F998190838F5F8093F5038093170432
:100F200081E090E0ECCF61E0CE0101960E94C40523
:100F3000F7CF0895CF92DF92EF92FF920F931F9316
:100F4000CF93DF937C01FB0191838083D0E0C0E0ED
:100F5000CC24C39420E030E0A90100811181D801A4
:100F6000DC90DD20C9F1B0E2DB1216C0209769F1F8
:100F7000C11007C050954095309521953F4F4F4F78
:100F80005F4FCA01B901DF91CF911F910F91FF907F
:100F9000EF90DF90CF9008958DE2D816D9F080EDD4
:100FA0008D0D8A30C8F4AAE0B0E00E943D372D2DA7
:100FB000DD0C330B20533109032E000C440B550B71
:100FC000260F371F481F591F21960F5F1F4F118390
:100FD0000083C3CFC12CF9CFCD2B51F6F182E08233
:100FE000C7CF0F931F932091A1032634B9F49B011F
:100FF000AC0122573C474F4F5F4FAAE5B0E00E943B
:101000003D37675E7F4F8F4F9F4F22E330E040E0D8
:1010100050E00E94FA36E0E0F1E009C09B01AC012B
:10102000305A4F4F5F4FE0E0FFEF57FFF4CFAAE099
:10103000B0E00E943D378F01FF0F220B330B600F92
:10104000711F821F931F20E032E040E050E00E94B9
:10105000FA36C9011F910F9108959C01FB019081FF
:10106000892F8F7D19F081E09E3231F481E0621783
:10107000730711F080E008950895009739F0DC01BE
:10108000ED91FC910480F581E02D099480E00895B4
:10109000209127033091280381E02430310529F085
:1010A0002830310511F080E00895089580910E03F5
:1010B00090910F030895E091EB02F091EC02808192
:1010C00091810E943D08882349F0E091EB02F09164
:1010D000EC02EE5BFF4F82819381089580E090E8FF
:1010E000089580910C0390910D030895E091E00222
:1010F000F091E102808191810E943D08882349F0AE
:10110000E091E002F091E102EE5BFF4F828193817A
:10111000089580E090E808958091DE029091DF02CA
:101120000C94A6048091DC029091DD020C94A6043C
:10113000CF92DF92EF92FF92CF93DF934817590738
:1011400008F4CA019C01DB010E94363720E13EE031
:1011500040E050E00E94FA366901E9010E94480827
:10116000882321F0CC27DD27CC19DD09E091EB02A3
:10117000F091EC02EE5BFF4F80819181A281B381FF
:10118000CA0FDB1FD093FE02C093FD02DF91CF9107
:10119000FF90EF90DF90CF9008952F923F924F9263
:1011A0005F926F927F928F929F92AF92BF92CF92F7
:1011B000DF92EF92FF920F931F93CF93DF93809173
:1011C0000B03823659F0803749F08636A9F481E066
:1011D00090E890930D0380930C030EC0E0910C03F4
:1011E000F0910D03CF0190580297C8F481E090E888
:1011F00090930F0380930E03DF91CF911F910F9176
:10120000FF90EF90DF90CF90BF90AF909F908F9026
:101210007F906F905F904F903F902F9008958091B6
:10122000E0029091E102DC01AC57BF4F1C964D915A
:101230005D916D917C911F979F01261B370BB90122
:101240003093F0022093EF028E529F4FDC011C96E8
:10125000CD90DD90ED90FC901F976701FF24D7FCA7
:10126000F094EF2CD092F602C092F502A091EB021E
:10127000B091EC02AE5BBF4F4D905D906D907C9055
:101280008091D70291E0980F9093D702C091A40368
:10129000D091A5032090A2033090A3030091C60330
:1012A0001091C7038C3309F065C08090F1029090D3
:1012B000F202A090F302B090F4021092D702809153
:1012C000270390912803892B09F034C137FF04C00C
:1012D00022273327261B370B8091AC039091AD0357
:1012E000281739070CF00EC191E0161617060CF0FE
:1012F00090E081E0181419041A041B040CF080E03B
:101300009813FCC040910E0350910F03CB014C1772
:101310005D0714F090E080E02416350614F090E0AC
:1013200080E09A012E1B3F0B2017310714F090E04C
:1013300080E09F01241B350B2017310714F090E04B
:1013400080E0161617060CF4F0C05C5F46155705D2
:101350000CF4F0C0092E000CAA0BBB0B880D991DD4
:10136000AA1DBB1D8093F1029093F202A093F30299
:10137000B093F402A091A603B091A7039B010E9431
:101380001F37DC01CB0129E0B595A7959795879587
:101390002A95D1F772E0A72E70E8B72E823020E8A8
:1013A00092072FEFA207B20754F05C018115904815
:1013B000A105B10524F0AA24AA946FE7B62EB09235
:1013C000F802A092F702A091A803B091A90320917E
:1013D000F1023091F2024091F3025091F4020E9426
:1013E0004837DC01CB0159E0B595A79597958795CE
:1013F0005A95D1F742E0842E40E8942E823020E8BE
:1014000092072FEFA207B20754F04C0181159048C4
:10141000A105B10524F088248A943FE7932E909289
:10142000FA028092F902A091AA03B091AB03A7013E
:1014300096010E94483729E095958795779567959D
:101440002A95D1F76230A0E87A07AFEF8A079A07AA
:101450000CF465C06115B0E87B07810591050CF0BF
:1014600061C07093FC026093FB02C501BB0CAA0B28
:10147000BB0B6F010F2E000CEE08FF088C0D9D1D9D
:10148000AE1DBF1D092C000CAA08BB08880D991DB4
:10149000AA1DBB1D4B01770FAA08BB08880E991E19
:1014A000AA1EBB1EC1019101200F311F2E173F073D
:1014B0001CF4CF01801B910B9E01201B310BE21706
:1014C000F3071CF4EF01C00FD11F22E0821620E8C1
:1014D00092062FEFA206B20684F1811430E893063B
:1014E000A104B1044CF4881699060CF481CEC40111
:1014F000C815D9050CF07CCECE017ACECB01880F71
:10150000991F28CFD501C40133E0B595A7959795CC
:1015100087953A95D1F79195819591091BCF62E016
:1015200070E89FCF6FEF7FE79CCF5450641675062D
:101530000CF010CF90E080E00DCF8330A0E89A0748
:101540000CF056CECE01C330D0480CF451CE82E020
:1015500090E84ECE6817790768F4861B970B2091A8
:10156000D8023091D9022817390720F49093D90274
:101570008093D80208952FB7F8948091E602909155
:10158000E7022FBF089562E088E00E94FC0362E05A
:1015900089E00E94FC0362E087E00E94FC03E8E629
:1015A000F0E0808185608083EBE6F0E080818360FD
:1015B0008083EDE6F0E080818068808308950F935A
:1015C0001F93CF93DF93C0E1D7E20BE811E088E1EE
:1015D00094E00E941505892B61F4C8010197F1F789
:1015E0002197A9F78FEF9FEFDF91CF911F910F9177
:1015F000089588E194E0DF91CF911F910F910C94B1
:10160000F3040F931F93CF93DF938C01FC0110829F
:10161000C0E00E94DF0ACD31B9F08D379105A1F00D
:101620008F3F980789F08C329105C1F08A3391057C
:10163000A9F09C012D7F2032310559F3F801EC0F00
:10164000F11D8083CF5FE5CF80E0C00FD12FD11D8A
:101650001882DF91CF911F910F91089581E0F5CF0E
:10166000682F88E194E00E94B0046AE388E194E086
:101670000E94B00481E08093D3020895809102011A
:1016800090910301DC01ED91FC910084F185E02D46
:101690000994DC012C911196ED91FC91F8948181D3
:1016A000822B81839281322F30959323928387E01E
:1016B00090E00197F1F781818323818383E290E0B9
:1016C0000197F1F790817894EFECF0E03197F1F722
:1016D000922381E009F480E00895FC012081A1813A
:1016E000B28187E3EAE0611102C085E0E1E4F894A9
:1016F00012963C911297922F9095932312969C9359
:10170000129711969C911197922B11969C93119779
:1017100094E0E99FF001112435973197F1F7129683
:101720009C911297922B12969C937894E4E08E9F52
:10173000C001112405970197F1F70895EF92FF92E8
:101740000F931F93CF93DF937C01062FC8E0D0E067
:1017500011E061E0802F812309F460E0C7010E945D
:101760006D0B110F2197A9F7DF91CF911F910F9169
:10177000FF90EF900895FC0190810180F281E02DAF
:10178000F8948181292F20958223818378943DE7E5
:1017900043E050E0315029F1DA011197F1F78081EF
:1017A0008923C1F3F8948281822382838181892BEA
:1017B00081837894ABE7B7E01197F1F7F8948181D2
:1017C00082238183A3E1B1E01197F1F7808198230F
:1017D00081E009F080E07894E3E6F6E03197F1F7F4
:1017E000089580E00895EF92FF920F931F93CF9397
:1017F000DF937B018C01055F1F4F65E5C8010E94E7
:101800009E0BE70188E0E80EF11C6991C8010E9477
:101810009E0BCE15DF05C9F7DF91CF911F910F9178
:10182000FF90EF90089590E080E00895FC012385FB
:10183000622B828191E09093F403809316041092BE
:10184000F5031092170485EB94E00E946A070C944C
:101850002A068091E8049091E9040E94A604209150
:10186000A003222349F0CD9738F01092E70460E0FE
:101870008CED94E00C94160C88E08093E704F7CF8D
:10188000CF930E94BB0A2091D5023091D60228172F
:10189000390781F09093D6028093D5020E949C0470
:1018A0009093E9048093E8040E94290CC1E08C2FF6
:1018B000CF910895C091E902CC23C9F30E949C0402
:1018C0009093E9048093E8040E94290CF0CF8F9252
:1018D0009F92AF92BF92CF92DF92EF92FF920F93BF
:1018E0001F93CF93DF936C017B014A0159010E9442
:1018F0009C048C01C0E0C8010E94A6040A9798F5D8
:101900000E94400C882301F10E949C048C01F60186
:101910000995F7010995C0E0D091E902DD23D9F0DE
:101920001092E902F7010995F50109958D2FDF91D4
:10193000CF911F910F91FF90EF90DF90CF90BF90CC
:10194000AF909F908F900895CC2319F3C03821F762
:10195000F4010995E1CFCF5F63E070E080E090E0B3
:101960000E945D04C8CFD0E0E1CF2F923F924F920A
:101970005F926F927F928F929F92AF92BF92CF921F
:10198000DF92EF92FF920F931F93CF93DF9300D0DC
:1019900000D000D0CDB7DEB7FC0184809580A68052
:1019A000B78080869186A286B3864080518062800F
:1019B000738044825582668277824083518362833A
:1019C000738380899189A289B389848B958BA68B37
:1019D000B78BC484D584E684F784C08AD18AE28A2E
:1019E000F38A218C308C032D10E01E830D83970128
:1019F0008601081B190B2A0B3B0B0C0D1D1D2E1D00
:101A00003F1D022C04C0F594E794D794C7940A9420
:101A1000D2F70C191D092E093F09680179018C01C3
:101A20009D0104C035952795179507952A94D2F7FF
:101A30000C0D1D1D2E1D3F1D032C04C075956795B3
:101A4000579547950A94D2F7400F511F621F731F95
:101A50002D813E812150310904C0759467945794BB
:101A600047942A95D2F7440E551E661E771E04C071
:101A7000B594A794979487943A94D2F7840C951CC4
:101A8000A61CB71C2D813E81225031093A8329833F
:101A9000098004C0B595A795979587950A94D2F7C4
:101AA00095018401081B190B2A0B3B0BC901B801D6
:101AB000648775878687978726960FB6F894DEBF6A
:101AC0000FBECDBFDF91CF911F910F91FF90EF908F
:101AD000DF90CF90BF90AF909F908F907F906F904E
:101AE0005F904F903F902F900895AB01770F660B5A
:101AF000770BBA0155274427FC01825B9F4F408337
:101B000051836283738344835583668377834087DD
:101B10005187628773874487558766877787408BAD
:101B2000518B628B738B448B558B668B778B7A963C
:101B3000E817F90721F70895EF92FF920F931F938B
:101B4000CF93DF93FC01A081B181109709F442C0CB
:101B5000EC01ED91FC9111970680F781E02DCD010C
:101B600009958823B9F17E01F1EFEF0EF11CD70141
:101B70008C918D3378F188819981DC01ED91FC9114
:101B80000084F185E02D09958C018115B0E89B0753
:101B900009F1BC01CE0102960E94750DB801CE017B
:101BA000805B9F4F0E94750D70E060E0CE01825611
:101BB0009F4F0E94750DFE01E351FF4FCC57DF4F41
:101BC0008C859D85AE85BF8580839183A283B383F9
:101BD000F7011082DF91CF911F910F91FF90EF904D
:101BE00008950F931F93CF93DF93AB01770F660B8D
:101BF000770BBA0155274427EC018C01025B1F4F7C
:101C0000CE010E94B50CAB01BC016A96C017D1078A
:101C1000B9F7DF91CF911F910F9108958F929F9205
:101C2000AF92BF92CF92DF92EF92FF920F931F93EA
:101C3000CF93DF93EC01888199810097E1F4FE0155
:101C4000EF50FF4F80818F3F09F044C08881998118
:101C50000E943D08811183C0CE01DF91CF911F9179
:101C60000F91FF90EF90DF90CF90BF90AF909F903B
:101C70008F900C949C0DDC01ED91FC910084F1851A
:101C8000E02D09958C018115B0E89B07C1F2BC01DC
:101C9000CE0102960E94F10DB801CE01805B9F4FEC
:101CA0000E94F10D7E01ECEEEE0EF11CD7018C913D
:101CB00081508C93843089F4FE01EC57FF4F84856A
:101CC0009585A685B785E759FF4F80839183A283C9
:101CD000B383BCCF8F5F8083B9CF8111B7CFFE01B3
:101CE000EC57FF4F84849584A684B7846E01BDEEC3
:101CF000CB0ED11CF60180819181A281B381A50117
:101D00009401281B390B4A0B5B0B4C31510514F520
:101D1000453EFFEF5F0724F420E030E045EE5FEF43
:101D2000A0EBB4E00E943D378E0102561F4FAB017D
:101D3000BC01C8010E94B50C065E1F4F0E151F05A1
:101D4000B1F7D6018D929D92AD92BC92139783E02C
:101D5000F801C1CF20E030E04BE150E0E1CFDF916E
:101D6000CF911F910F91FF90EF90DF90CF90BF9098
:101D7000AF909F908F9008958091E0029091E10242
:101D80000E940E0E8091EB029091EC020E940E0ECA
:101D90008091020190910301DC01ED91FC9100849E
:101DA000F185E02D09958115904859F48091020143
:101DB00090910301DC01ED91FC910680F781E02D0B
:101DC00009940895FC0182E0860F880F808F618F4F
:101DD00082AB63ABDF01A45BBF4F8C93E35BFF4F30
:101DE00060830895CF93DF93C1EAD3E08091EB0243
:101DF0009091EC026D8D02960E94E20E8091EB02B2
:101E00009091EC026E8D805B9F4F0E94E20E80915C
:101E1000EB029091EC026F8D82569F4F0E94E20E72
:101E20008091E0029091E10268A102960E94E20E88
:101E30008091E0029091E10269A1805B9F4F0E9436
:101E4000E20E8091E0029091E1026AA182569F4FDA
:101E5000DF91CF910C94E20EFC0198E0908F82E02C
:101E6000818F92AB83ABDF01A45BBF4F9C93E35B9D
:101E7000FF4F8083089580E00895089508950895A0
:101E8000FC018081823088F48181823070F482810B
:101E9000938101978930910540F4880F991FFC01C7
:101EA000E85BFE4F80819181089590E080E0089585
:101EB0000F931F93CF93DF938C010E94400FEC018F
:101EC000892BF1F0D80112962D913C91C90101970F
:101ED0008C309105A8F488549E4FFC01808182309B
:101EE00089F18330D9F0813059F4E881F9812630C5
:101EF0003105D1F18081918121E08030920729F470
:101F0000DF91CF911F910F91089520E031E031834F
:101F10002083EF50FF4F2FEF20832FC088819981BE
:101F2000B5E08F339B0761F3009739F0DC01ED9149
:101F3000FC910680F781E02D09958FE395E0998368
:101F40008883DECF88819981B5E082349B07C1F216
:101F5000009739F0DC01ED91FC910480F581E02DD2
:101F6000099582E495E0EBCFB1E0E030FB0741F268
:101F700080E091E099838883CF01009709F2DC012A
:101F8000ED91FC910280F381E02DDF91CF911F91C3
:101F90000F9109940F931F93CF93DF93CDB7DEB7C3
:101FA00064970FB6F894DEBF0FBECDBF81E0898382
:101FB0008A8310E000E01C830B83CE0101960E940F
:101FC000580F0F5F1F4F00311105A9F764960FB628
:101FD000F894DEBF0FBECDBFDF91CF911F910F915F
:101FE0000895CF93DF93EC018B810E94A5033A8182
:101FF00021E03817190609F420E0822FDF91CF91F4
:102000000895CF93DF93EC018B810E94A50321E01B
:10201000892B09F420E08A818227DF91CF910895EE
:10202000FC012281622783810C94CE03FC01878509
:10203000089580E090E80895DC01ED91FC91008422
:10204000F185E02D099521E08115904809F420E003
:10205000822F08959C016130710541F422503109AD
:1020600081E02230310548F080E007C06230710520
:1020700029F481E021303105B9F70895672BA1F7E4
:1020800081E0232BD1F3F0CF0B960E94BB0B91E0A4
:10209000811101C090E0892F08950F931F93CF9372
:1020A000DF93EC018B01888199810E944410B80173
:1020B000888199810E94F30B8881998164E40B9651
:1020C000DF91CF911F910F910C949E0BEF92FF9295
:1020D0001F93CF93DF93EC017B01142F88819981AB
:1020E0000E944410B701888199810E94F30B888176
:1020F0009981612F0B96DF91CF911F91FF90EF9007
:102100000C949E0B2F923F924F925F926F927F9210
:102110008F929F92AF92BF92CF92DF92EF92FF92F7
:102120000F931F93CF93DF9300D01F92CDB7DEB7ED
:102130008C015B015B834A8382E089832A01E9E0A9
:102140004E0E511C4EEBB501C8010E9466106A800C
:102150007B807301F801C080D180FBE0CF0ED11CE1
:1021600098E0892E912C312C22242394C6010E94C0
:10217000490B81113228220C81E0881A9108B1F7AD
:10218000F70131927F014E165F0621F7F801808139
:1021900091810E94441099E080E09150B1F0F301E8
:1021A00051913F0148E0682F6527282F30E0359591
:1021B0002795822F60FF02C08CE8822756954150F8
:1021C00091F7EBCFF1E0F983BDCFEA81FB819085F8
:1021D0009817D1F0F981F130A9F780E00F900F90B6
:1021E0000F90DF91CF911F910F91FF90EF90DF90B3
:1021F000CF90BF90AF909F908F907F906F905F90A7
:102200004F903F902F90089581E0E8CFCF93DF93D8
:10221000CDB7DEB729970FB6F894DEBF0FBECDBF9E
:10222000AE014F5F5F4F0E948210882371F08B8157
:10223000882359F089819A8129960FB6F894DEBFD8
:102240000FBECDBFDF91CF91089580E090E8F4CF2D
:102250000F931F93CF938C01C62FDC01ED91FC915E
:102260000280F381E02D09958C1749F0F801C283B3
:102270008091B000CC2339F080628093B000CF9180
:102280001F910F9108958F7DF8CF08959C018FEFD6
:102290008F5FF901E80FF11D87FDFA959081992371
:1022A00019F09613F5CF08958FEF0895FC01828100
:1022B000089508951F93CF93DF93EC01162F68873D
:1022C0008E819F81DC01ED91FC910190F081E02DE8
:1022D0000995112321F00E949C049B838A83DF913E
:1022E000CF911F910895FC0180850895FC016283C0
:1022F00008956115710579F0FB0101900020E9F75F
:102300003197AF01461B570BDC01ED91FC91028028
:10231000F381E02D099490E080E0089542E050E0E0
:102320006CE172E088E194E00C94B7046DE788E119
:1023300094E00E94B0040C948E1185ED8093BC0053
:102340008091F0039091F103A091F203B091F30317
:102350000796A11DB11D23E0B695A7959795879582
:102360002A95D1F72091BC0024FD03C01092EE0302
:1023700008954091F0035091F1036091F203709140
:10238000F303452B462B472B69F30097A105B105B5
:1023900041F025E32A95F1F700000197A109B10961
:1023A000E1CF8091EF030C940906EF92FF921F9307
:1023B000CF93DF937B01EA01FC0160818FE192E022
:1023C0000E944611182F87FD08C0C7010E942833BC
:1023D000C10FD11D17FDDA956883DF91CF911F9151
:1023E000FF90EF900895EF92FF921F93CF93DF93AA
:1023F0007B01EA01FC01608185E292E00E944611C6
:10240000182F87FD08C0C7010E942833C10FD11DB6
:1024100017FDDA956883DF91CF911F91FF90EF90C0
:102420000895EF92FF920F931F93CF93DF93CDB751
:10243000DEB7A0970FB6F894DEBF0FBECDBF8C01FC
:10244000F62EE42E211103C06CE20E94B0048E2D02
:102450000E2C000C990B9F93EF928F2D0F2C000CDC
:10246000990B9F93FF9283E192E09F938F93CE010C
:1024700001967C019F938F930E948633B701C80118
:102480000E9479110FB6F894DEBF0FBECDBFA096A3
:102490000FB6F894DEBF0FBECDBFDF91CF911F9175
:1024A0000F91FF90EF90089549E050E06EE270E0E8
:1024B0008BE093E00E946B3680910C0390910D03AA
:1024C00090930A0380930903089590910B03981346
:1024D00009C020912703309128032550310923306A
:1024E0003105A0F4109228031092270380930B0368
:1024F0008F3651F481E090E890930D0380930C03A4
:1025000090930F0380930E030C9454126111EECF3D
:10251000089560E08FE60E946512EBE0F3E081E051
:1025200090E8928381839483838386E690E0968308
:10253000858380E09AE0908787830895CF93DF9327
:1025400000D000D0CDB7DEB780911801909119016D
:10255000A0911A01B0911B0189839A83AB83BC833C
:102560000E94BB0A8C0F9D1F60E0FC0181810F90CF
:102570000F900F900F90DF91CF910C946512FC019A
:1025800077FF03C071956195710935E07595679581
:102590003A95E1F76635710514F065E570E077FF6F
:1025A00002C070E060E02AEA31E0261B370BA08110
:1025B000B1810E941F3729E095958795779567959A
:1025C0002A95D1F7623020E872072FEF8207920731
:1025D00054F0611520E87207810591053CF4718380
:1025E00060830C94541262E070E8F9CF6FEF7FE7DC
:1025F000F6CFFC0177FF03C07195619571099B01CE
:1026000045E0359527954A95E1F72B39310514F0CA
:102610002AE930E037FF02C030E020E02A593D4F80
:10262000A081B1810E941F37DC01CB0129E0B59563
:10263000A795979587952A95D1F7823020E892073C
:102640002FEFA207B20734F489E190E091838083F1
:102650000C945412811520E89207A105B1051CF0D5
:102660008FEF9FE7F3CF9183808349976CF3F0CF8F
:1026700047E250E066E070E081EA93E00E946B364A
:102680000C945412AF92BF92CF92DF92EF92FF92CE
:102690000F931F93CF93DF9300D0CDB7DEB75C01CC
:1026A0008B01BE016F5F7F4F0E949A076B017C0117
:1026B00069817A81C5010E942D0881110DC0C11464
:1026C000D10481E0E806F104A4F08FEF9FEFF80158
:1026D000918380830E9438130F900F90DF91CF91E8
:1026E0001F910F91FF90EF90DF90CF90BF90AF9030
:1026F0000895F7FCF1CFF801D182C082EBCF0F93A0
:102700001F93CF93DF938B01EB01C370DD270E94F2
:102710002833F801FF27EE0FFF1FE656FE4F01900A
:10272000F081E02D60838091E0029091E10203301E
:1027300020F48091EB029091EC02C130D10561F060
:10274000C230D10571F00296CD2B41F0DF91CF91CF
:102750001F910F910C943813805B9F4F0E94E20EE3
:10276000F5CF82569F4FFACF47E250E06FE375E016
:1027700081EA93E00E944F330C94F20EDF92EF92C5
:10278000FF920F931F93CF93DF9300D000D0CDB76C
:10279000DEB77B01D42E0E94300BDA948FEFD8166F
:1027A000C9F087010C5F1F4F44E050E0B701CE0134
:1027B00001960E944F33EC81F0E0EE0FFF1FE257CD
:1027C000FE4F0190F081E02D6B8189819A810995FE
:1027D0007801E3CF0E9496110F900F900F900F9009
:1027E000DF91CF911F910F91FF90EF90DF900895AF
:1027F00081EA93E0909308038093070348E16EE930
:1028000073E083E40C94BE133F924F925F926F92F9
:102810007F928F929F92AF92BF92CF92DF92EF9270
:10282000FF920F931F93CF93DF9300D0CDB7DEB706
:102830004C018B016DE270E0C8010E9475385C01AB
:10284000BE016F5F7F4FC8010E949A072B013C01B8
:1028500069817A81C8010E942D088823A9F080E04F
:102860000F900F90DF91CF911F910F91FF90EF90FC
:10287000DF90CF90BF90AF909F908F907F906F90A0
:102880005F904F903F90089529E0440C551C661CC2
:10289000771C2A95D1F76EE270E0C8010E94753866
:1028A000009781F18C010F5F1F4FBE016F5F7F4F5B
:1028B000C8010E949A076B017C0139807A81632DDF
:1028C000C8010E942D088111CACFA701960189E095
:1028D000220F331F441F551F8A95D1F7132D101B4C
:1028E0009AE0C92ED12CE12CF12C115070F0CA01C4
:1028F000B9016B5F7F4F8F4F9F4FA70196010E94D9
:10290000FA36F3CF20E030E0A901AB2859F4420EAB
:10291000531E641E751EF4014082518262827382CE
:1029200081E09ECF421A530A640A750AF4CF8F924F
:102930009F92AF92BF92FF920F931F93CF93DF931B
:1029400000D000D0CDB7DEB78C01CE0101960E9439
:102950000414F82E882371F129813A814B815C811E
:102960008091A1038634B1F4EDE257FDE3EDA2E3DB
:10297000B0E00E943D378E2EEE0F9908AA08BB08E2
:10298000680D791D8A1D9B1D2AE530E040E050E06E
:102990000E94FA36223080E838078FEF4807580740
:1029A000C4F02115E0E83E0741055105ACF4F801FB
:1029B000318320838F2D0F900F900F900F90DF9118
:1029C000CF911F910F91FF90BF90AF909F908F90EC
:1029D000089522E030E8EBCF2FEF3FE7E8CF9C01EE
:1029E000CB01B9010E94971481110C9438130895FA
:1029F000CF92DF92EF92FF920F931F93CF93DF93CB
:102A000000D0CDB7DEB77B018A01FC01D0806D2DEF
:102A10008AE591E00E944611C82EF1E6DF1215C04A
:102A2000F701D8011A968081882311F181340CF0C6
:102A300087538295807F918191342CF09753892B15
:102A40008D933296F0CF9053FACF8AE6D8121BC0FE
:102A5000B701CE0101960E949714882349F089811D
:102A60009A8125E0959587952A95E1F7F801818768
:102A70000F900F90DF91CF911F910F91FF90EF90EA
:102A8000DF90CF900895C7FCF3CFC7010E94283391
:102A9000F801EC0DF11DC7FCFA956083E9CF0F93A7
:102AA0001F93CF93DF9300D000D0CDB7DEB78B015B
:102AB000BC01CE0101960E9404148823B1F08981E3
:102AC0009A81AB81BC81823020E892072FEFA20768
:102AD000B207A4F08115E0E89E07A105B1058CF4CA
:102AE000F801918380830E9438130F900F900F900C
:102AF0000F90DF91CF911F910F91089582E090E8A0
:102B0000EFCF8FEF9FE7ECCF8F929F92AF92BF9264
:102B1000EF92FF920F931F93CF93DF9300D000D0DB
:102B2000CDB7DEB78C017B0183E895E00E94803849
:102B3000892BB9F481E090E8F80191838083FF2428
:102B4000F3948F2D0F900F900F900F90DF91CF91F6
:102B50001F910F91FF90EF90BF90AF909F908F903B
:102B60000895B701CE0101960E940414F82E88231F
:102B700041F329813A814B815C818091A1038634A4
:102B8000C9F4305441095109EDE257FDE3EDA2E3E8
:102B9000B0E00E943D378E2EEE0F9908AA08BB08C0
:102BA000680D791D8A1D9B1D2AE530E040E050E04C
:102BB0000E94FA363056410951092230F0E83F07A9
:102BC000FFEF4F075F0754F0211580E838074105F4
:102BD00051053CF4F80131832083B3CF22E030E883
:102BE000F9CF2FEF3FE7F6CF9C01CB01B9010E944F
:102BF000841581110C9438130895CF92DF92EF92CF
:102C0000FF921F93CF93DF9300D0CDB7DEB77C0147
:102C10006B01BC0187E394E00E948038892B39F175
:102C2000B70181E394E00E94803810E0892B89F09D
:102C3000BE016F5F7F4FC7010E949A07162F6981FF
:102C40007A81C7010E942D08811107C0123028F433
:102C50001170F60110830E9438130F900F90DF91CE
:102C6000CF911F91FF90EF90DF90CF90089511E0EA
:102C7000F0CFCF93DF93CDB7DEB79E01255F3F4FF7
:102C800049855A856F8178858D819E810E94A933FF
:102C9000DF91CF9108958F929F92AF92BF92DF9272
:102CA000EF92FF920F931F93CF93DF93EC01D02EFF
:102CB00077FD5EC080E288834A015B0139E0B5940C
:102CC000A794979487943A95D1F774010AE010E09D
:102CD000EBE7F5E0213051F004E610E0E3E7F5E042
:102CE000223021F008EE13E0EBE6F5E09A01AB01AB
:102CF000317044275527D8010E943D377F5F8F4FA1
:102D00009F4F29E095958795779567952A95D1F7F7
:102D10006017710730F074018FEFE81AF80A70E05D
:102D200060E07F936F93FF92EF92FF93EF938D2D6F
:102D30008150990B8C011F938F93CE0101969F9325
:102D40008F930E9439168DB79EB70A960FB6F894E6
:102D50009EBF0FBE8DBFCE01DF91CF911F910F910E
:102D6000FF90EF90DF90BF90AF909F908F9008956D
:102D70008DE2888370956095509541955F4F6F4FB8
:102D80007F4F9ACF9F92AF92BF92CF92DF92EF92F6
:102D9000FF920F931F93CF93DF93CDB7DEB7619769
:102DA0000FB6F894DEBF0FBECDBF982E8B016A011F
:102DB0007901FB01828193810197A12C8C309105CF
:102DC00020F488549E4FFC01A0808091260381113D
:102DD00004C06CE2C7010E94B004109226036BE7A6
:102DE000C7010E94B00421E0492D69E6C7010E9495
:102DF000111220E04A2D64E7C7010E94111220E061
:102E0000F801408163E6C7010E94111220E0F80139
:102E1000418162E6C7010E94111220E0F80142815F
:102E200066E6C7010E94111220E0F801448168E6BD
:102E3000C7010E94111220E0F801408564E6C70135
:102E40000E94111220E0F801468160E7C7010E944C
:102E50001112C114D10469F0F6018081882349F070
:102E60006AE272E0C7010E947911B601C7010E94AF
:102E70007911F80184819581019731F420E047812F
:102E800068E7C7010E941112F801848195810297B9
:102E9000B1F460E372E0C7010E947911BE016F5F77
:102EA0007F4FC80109960E945903BE016F5F7F4F93
:102EB000C7010E94791162E2C7010E94B004F801C3
:102EC000848195810297B9F5A189F0E2AF02D00122
:102ED0001124AD010B2E000C660B770B8091A10322
:102EE0008634C1F447EEB7FF49E12AE530E00E949D
:102EF0003637042F440F110B220B330B600F711F59
:102F0000821F931F22E330E040E050E00E94FA3637
:102F1000BA01A90108E023E0CE0101960E944B16F8
:102F200067E372E0C7010E947911BE016F5F7F4FB6
:102F3000C7010E9479116DE7C7010E94B004619634
:102F40000FB6F894DEBF0FBECDBFDF91CF911F91BA
:102F50000F91FF90EF90DF90CF90BF90AF909F9038
:102F60000895FB0123853485AB014F5F5F4FBC01A2
:102F700080810C94C216CF93DF93CDB7DEB79E014C
:102F80002B5F3F4FF901419151919F0160E870E043
:102F900083E592E00E94A93363E572E088E194E062
:102FA0000E947911DF91CF910895CF93DF93EC01C7
:102FB0008091D3026CE281116BE788E194E00E947A
:102FC000B0041092D30262E288E194E00E94B0045F
:102FD000DF93CF930E94BB1762E288E194E00E94E6
:102FE000B0040F900F906AE388E194E0DF91CF91F5
:102FF0000C94B004CF93C62F0E94D51762E288E1EB
:1030000094E00E94B0046C2F88E194E00E94B00428
:1030100062E288E194E0CF910C94B004E091070360
:10302000F0910803E60FF11D60810C94FA17CF931D
:10303000DF93EB010E94D517BE0188E194E0DF9198
:10304000CF910C947911EF92FF920F931F93CF932E
:10305000DF93CDB7DEB72C970FB6F894DEBF0FBE67
:10306000CDBF7C01E0910703F0910803E60FF11D4D
:10307000A081B181AD010B2E000C660B770B809106
:10308000A1038634C1F477FD2DC049E12AE530E083
:103090000E943637042F440F110B220B330B600FA5
:1030A000711F821F931F22E330E040E050E00E9436
:1030B000FA36BA01A9010CE023E0CE0101960E9484
:1030C0004B16BC01C7010E9417182C960FB6F89436
:1030D000DEBF0FBECDBFDF91CF911F910F91FF904B
:1030E000EF90089547EED2CFEF92FF920F93CF93D8
:1030F000DF93CDB7DEB72C970FB6F894DEBF0FBEC7
:10310000CDBF7C01E0910703F0910803E60FF11DAC
:1031100040815181052E000C660B770B0CE023E0FB
:10312000CE0101960E944B16BC01C7010E941718E0
:103130002C960FB6F894DEBF0FBECDBFDF91CF91B6
:103140000F91FF90EF900895CF93DF93E0910703E5
:10315000F0910803E60FF11DC081D1810E94D517BF
:10316000DF93CF938BE993E09F938F930E94BB17DC
:103170000F900F900F900F90DF91CF910895CF9304
:10318000E0910703F0910803E60FF11DC0810E9452
:10319000D5171F92CF938BE993E09F938F930E9453
:1031A000BB170F900F900F900F90CF910895CF9273
:1031B000DF92EF92FF920F931F93CF93DF93EC0177
:1031C000122FCA019058029778F466E675E0CE0196
:1031D0000E946133CE01DF91CF911F910F91FF903B
:1031E000EF90DF90CF9008958091A103863421F570
:1031F0009A01AB0122573C474F4F5F4FE9E157FD22
:10320000E7EEAAE5B0E00E943D37CE2EEE0FDD08D6
:10321000EE08FF086C0D7D1D8E1D9F1D22E330E022
:1032200040E050E00E94FA36BA01A901212FCE01F8
:103230000E944B16EC01CECF505A6F4F7F4FF6CF06
:10324000EF92FF920F93CF93DF93CDB7DEB72C971A
:103250000FB6F894DEBF0FBECDBF7C01E09107032F
:10326000F0910803E60FF11D40815181052E000CFD
:10327000660B770B0CE021E0CE0101960E94D71877
:10328000BC01C7010E9417182C960FB6F894DEBF38
:103290000FBECDBFDF91CF910F91FF90EF900895BA
:1032A000EF92FF920F93CF93DF93CDB7DEB72C97BA
:1032B0000FB6F894DEBF0FBECDBF83E50E94300B82
:1032C0008BE0E82E83E0F82EF701608186E993E039
:1032D0000E94FA17F70141815281052E000C660BFE
:1032E000770B0CE022E0CE0101960E94D718BC01BA
:1032F0008EE893E00E941718F70143815481052E50
:10330000000C660B770B22E0CE0101960E94D718C5
:10331000BC0184E893E00E941718F70145815681AB
:10332000052E000C660B770B23E0CE0101960E9460
:103330004B16BC018CE793E00E941718F7014781F8
:103340005085052E000C660B770B23E0CE0101960D
:103350000E944B16BC0184E793E00E9417180E945C
:1033600096112C960FB6F894DEBF0FBECDBFDF913D
:10337000CF910F91FF90EF900895EF92FF920F93EE
:10338000CF93DF93CDB7DEB729970FB6F894DEBFA2
:103390000FBECDBF7C01AB01770F660B770B09E049
:1033A00022E0CE0101960E94D718C7010E94D517CE
:1033B000BE016F5F7F4F88E194E00E9479112996EA
:1033C0000FB6F894DEBF0FBECDBFDF91CF910F9146
:1033D000FF90EF9008950F931F93CF93DF938C018D
:1033E000EB0184E50E94300B0E947608BC018BE65D
:1033F00093E00E94BD1960910C0370910D0383E668
:1034000093E00E94BD198BE593E00E94D51783E2FB
:1034100093E00115110511F088E293E01F930F93DB
:103420009F938F930E94BB170E945B08BC0180E5AD
:1034300093E00E94BD1960910E0370910F0386E422
:1034400093E00E94BD198CE393E00E94D5170F9082
:103450000F900F900F9083E293E0209711F088E295
:1034600093E0DF93CF939F938F930E94BB170E94AB
:103470003E0B8091020190910301DC01ED91FC91E2
:103480000480F581E02D09950F900F900F900F901B
:10349000882339F00E943E0BBC0183E393E00E9435
:1034A000BD19C0912703D0912803DD278DE293E059
:1034B0000E94D517DF93CF938BE993E09F938F936F
:1034C0000E94BB170F900F900F900F90DF91CF913C
:1034D0001F910F910C949611CF93DF93CDB7DEB768
:1034E000A0970FB6F894DEBF0FBECDBF9E012B5D37
:1034F0003F4FF901419151919F0160E270E0CE018F
:1035000001960E94A933BE016F5F7F4F90E080E07B
:103510000E94EB19A0960FB6F894DEBF0FBECDBF88
:10352000DF91CF9108957F928F929F92AF92BF9239
:10353000CF92DF92EF92FF920F931F93CF93DF937F
:103540008091040190910501DC01ED91FC910190C5
:10355000F081E02D09959091EE02981791F08093FB
:10356000EE02811161C082E295E09F938F9380E328
:1035700095E09F938F930E946C1A0F900F900F907D
:103580000F9080910B03712C8F3641F481E090E015
:1035900090932803809327037724739480910E03DC
:1035A00090910F039058029708F041C010922803A1
:1035B00010922703772473948091DA029091DB02B2
:1035C0000E94A604EC010E9492087C010E948C08D3
:1035D0006C01E091EB02F091EC02EE5BFF4F80801A
:1035E0009180A280B380E091E002F091E102EE5B75
:1035F000FF4F028113810E949C04E0912703F09108
:103600002803EB30F10508F08DC0E75FF44E0C9411
:103610001937351B351B921B2B1CEF1B351B351B1C
:10362000351BEF1B2B1C351B89E295E09ECFE091EB
:10363000EB02F091EC02808191810E943D08882389
:1036400009F4B4CFE091E002F091E1028081918130
:103650000E943D088111B0CF80910B03823609F49E
:10366000A5CF803709F0A8CFA1CF9093DB0280933C
:10367000DA02711057C01092D9021092D8028091CC
:103680000E0390910F032091AE033091AF03280FEA
:10369000391F2A153B050CF05AC0B60188E592E0A7
:1036A0000E94AA0A80910B03863681F5B70188E54E
:1036B00092E00E94AA0A80910C0190910D018F5313
:1036C000954061F08091D8029091D902892BE1F167
:1036D00085E090E09093280380932703809127034F
:1036E0009091280303970297E8F48091EA028823D7
:1036F00009F46CC0B70188E097E00E94AA0A87E04D
:1037000090E090932803809327030CC080910C03D2
:1037100090910D030F968017910794F01092280353
:1037200010922703DF91CF911F910F91FF90EF909F
:10373000DF90CF90BF90AF909F908F907F90089533
:10374000B7018CE291E0B5CF84E090E0C3CF209147
:10375000B0033091B103820F931FA816B906F4F697
:10376000B70188E592E00E94AA0AB6018CE291E0D6
:103770000E94AA0A80910B03863641F080910C03C7
:1037800090910D030F970817190744F680910A01CD
:1037900090910B018F53954069F48091C403882365
:1037A00009F49CCF80910801909109018F539540B5
:1037B00009F494CF8091D8029091D902892B19F005
:1037C00086E090E087CF83E090E084CF8091ED02A7
:1037D000882309F4A7CFB60184E893E08ECF21E0D7
:1037E0002093EA029093DD028093DC026091120341
:1037F00070911303AE018091BC039091BD030E94B0
:10380000980884E090E09093280380932703209108
:10381000FD023091FE0280910E0390910F038217FA
:10382000930774F480910B03863609F47BCF809163
:103830000C0390910D034097081719070CF072CFF5
:10384000C53BD10528F0309300032093FF0266CFDB
:1038500088E090E056CF21E02093ED029093DF02C4
:103860008093DE026091100370911103AE0180918C
:10387000BA039091BB030E94980883E090E0909374
:103880002803809327032091FD023091FE0280914E
:103890000E0390910F032817390774F480910B03DE
:1038A000863609F43FCF80910C0390910D0340962A
:1038B000801791070CF036CF89E090E0C53BD10529
:1038C00008F41FCF309302032093010327CF909376
:1038D0000F0380930E031092ED021092EA020E94F1
:1038E000CD080E94931A0C945412CF93DF93EC01ED
:1038F00080910C0390910D03D0930D03C0930C03A2
:103900008C1B9D0B97FF03C0919581959109813088
:10391000914024F01092ED021092EA020E94CD082C
:103920000E94931A80910B03803771F480910903F0
:1039300090910A038C1B9D0B97FF03C09195819575
:1039400091098138910524F0DF91CF910C945412A4
:10395000DF91CF9108950F931F93CF93DF9300D002
:10396000CDB7DEB7182F092F682F792FCE0101961A
:103970000E9484158823E9F080910B038636A9F410
:1039800083E194E09F938F930F931F938AE194E0D8
:103990009F938F9381E294E09F938F930E946C1A80
:1039A0000FB6F894DEBF0FBECDBF89819A810E9409
:1039B000671C0F900F90DF91CF911F910F91089589
:1039C000CF93DF93EC0160E088810E94651283E170
:1039D00094E09F938F93DF93CF938EEF93E09F9329
:1039E0008F9381E294E09F938F930E946C1A8DB71E
:1039F0009EB708960FB6F8949EBF0FBE8DBFDF919D
:103A0000CF910895CF93DF93CDB7DEB7A0970FB6D0
:103A1000F894DEBF0FBECDBF9E012B5D3F4FF90175
:103A2000419151919F0160E270E0CE0101960E94A8
:103A3000A93370E060E0CE0101960E94EB19A096D8
:103A40000FB6F894DEBF0FBECDBFDF91CF910895C2
:103A50000F931F93CF93DF9300D0CDB7DEB7182F0E
:103A6000092F682F792FCE0101960E948415882393
:103A700069F180910B03803781F589819A812091CA
:103A80000C0330910D03821B930B97FF03C091959C
:103A90008195910985369105ACF083E094E09F9380
:103AA0008F930F931F938EE094E09F938F9381E207
:103AB00094E09F938F930E94021D0FB6F894DEBF8F
:103AC0000FBECDBF89819A810E94751C0F900F9007
:103AD000DF91CF911F910F91089583E194E0DFCFA3
:103AE0006F927F928F929F92AF92BF92DF92EF92EE
:103AF000FF920F931F93CF93DF93CDB7DEB7299734
:103B00000FB6F894DEBF0FBECDBF6B8C7C8C84E407
:103B10000E94300B698D8DE992E00E94FA1787E9C7
:103B200092E00E94D5171F928A8D8F938BE993E0C4
:103B30009F938F930E94BB1780E992E09F938F938E
:103B40000E94BB178E01035E1F4F0F900F900F90C6
:103B50000F900F900F90D12C88E8E82E82E0F82E7D
:103B60009DE8A92E92E0B92EF301ED0DF11D8081A3
:103B7000882309F45BC0863609F446C07CF4843699
:103B800021F1D394F301ED0DF11D8081882361F3C0
:103B90006CE288E194E00E94B004E6CF833741F103
:103BA000843779F74801F2E08F0E911CF8014081CB
:103BB0005181052E000C660B770B0CE021E0CE0145
:103BC00001960E94D7189F931BC0480182E0880E7F
:103BD000911CF80181818F9380818F93BF92AF9266
:103BE0000E94BB170F900F900F900F908401C9CFC8
:103BF0004801F2E08F0E911CF80181818F93808142
:103C00008F93FF92EF92ECCF4801F2E08F0E911C60
:103C1000F80140815181052E000C660B770B0CE0FA
:103C200023E0CE0101960E944B16CDCF6DE588E1D1
:103C300094E00E94B0040E94961129960FB6F89461
:103C4000DEBF0FBECDBFDF91CF911F910F91FF90CF
:103C5000EF90DF90BF90AF909F908F907F906F908C
:103C60000895CF92DF92EF92FF920F931F93CF931D
:103C7000DF9300D000D000D0CDB7DEB7F82EE92E0C
:103C8000D62EC72E7F936F939F938F938DE392E0F1
:103C90009F938F938CE08F9389E48F930E94701D84
:103CA0000CE314E00FB6F894DEBF0FBECDBF46E0C4
:103CB00050E0B801CE0101960E944F3369817A81AC
:103CC0008F2D9E2D0E945833892BB1F46B817C81FE
:103CD000ED81FE818D2D9C2D099526960FB6F894C9
:103CE000DEBF0FBECDBFDF91CF911F910F91FF902F
:103CF000EF90DF90CF9008950A5F1F4F94E00A3E47
:103D00001907A9F68EE192E09F938F931F9287E5A2
:103D10008F930E94701D0F900F900F900F90DDCF2A
:103D2000DF92EF92FF920F931F93CF93DF93CDB764
:103D3000DEB761970FB6F894DEBF0FBECDBF7C0132
:103D4000D62E8E010F5F1F4FB80106960E945903B1
:103D5000D7011F96DC921F971296ED91FC91DD2002
:103D600009F11F930F9386851F928F9380E492E051
:103D70009F938F931F9289E48F930E94701D0FB6BB
:103D8000F894DEBF0FBECDBF61960FB6F894DEBFCC
:103D90000FBECDBFDF91CF911F910F91FF90EF909C
:103DA000DF9008951F930F9386851F928F9380E471
:103DB00092E09F938F9382E08F9387E5DDCFEF9220
:103DC000FF920F931F93CF93DF93FC012785C0E0F1
:103DD000D0E82223D9F07C018C010A5F1F4FB80183
:103DE000848195810E940611EC0181159048B1F4FF
:103DF000F7018785882321F060E0C7010E94901EAB
:103E0000B801F701848195810E944D10CE01DF91A8
:103E1000CF911F910F91FF90EF900895F701868544
:103E20009E01280F311D87FD3A95C90193508230BC
:103E300030E8930754F08115E4E09E0714F08FEF0B
:103E400093E08115FCEF9F0714F480E09CEFEC01F8
:103E500085E0CC0FDD1F8A95E1F7D2CF7F936F937A
:103E600025E432E03F932F938F9385E48F930E9454
:103E7000701D0F900F900F900F900F900F9008955E
:103E8000CF92DF92EF92FF920F931F93CF937C011B
:103E9000FC018081682F70E0853038F49181692FB2
:103EA00070E0973078F085E001C084E00E942E1F1A
:103EB000C0E08C2FCF911F910F91FF90EF90DF907A
:103EC000CF90089562817381603110F086E0EECF6B
:103ED0006115710509F45EC0693071050CF456C0B6
:103EE000992369F16150710910E000E06C307105AF
:103EF00028F468547E4FFB01008110E0F701C48074
:103F0000D580B601C8010E942A10C82F811131C086
:103F1000DF92CF921F930F9384E492E09F938F934D
:103F200088E08F9385E48F930E94701D8DB79EB7B4
:103F300008960FB6F8949EBF0FBE8DBFBACF22E091
:103F40001F928F931F929F931F922F9383E492E06F
:103F50009F938F9387E08F9385E48F930E94701DCA
:103F60008DB79EB70A960FB6F8949EBF0FBE8DBF51
:103F70009FCF92E0C916D10409F09BCFF70166816B
:103F800070E089E06E3009F494CF90CF8111AACF10
:103F900021E0D6CF911103C0882309F4A3CF20E0FC
:103FA000CFCFCF92DF92EF92FF921F93CF93DF9309
:103FB000CDB7DEB7EC970FB6F894DEBF0FBECDBF1E
:103FC0007C016B0119821F8E0E94DF0A8B379105DD
:103FD00091F0BC018AE00E942E1FEC960FB6F89477
:103FE000DEBF0FBECDBFDF91CF911F91FF90EF904D
:103FF000DF90CF900895CE0101960E94010B182FFB
:10400000882329F0CE014F960E94010B182F8F8D27
:10401000882359F08981882341F0A601BE01615EA1
:104020007F4FCE010196F70109951111E4CFD5CF4D
:10403000CF93DF9310922803109227038FE680938B
:104040000B0360E081EC94E00E945A118091E00241
:104050009091E102892B21F582EF90E00E94503788
:10406000EC0102960E942C0FCE01805B9F4F0E94B4
:104070002C0FCE0182569F4F0E942C0FFE01E4515F
:10408000FF4F8FEF808320E031E03983288335961E
:104090008083D093E102C093E002CE010E949C0D88
:1040A0008091EB029091EC02892B21F582EF90E058
:1040B0000E945037EC0102960E942C0FCE01805BCB
:1040C0009F4F0E942C0FCE0182569F4F0E942C0FB3
:1040D000FE01E451FF4F8FEF808320E031E0398310
:1040E000288335968083D093EC02C093EB02CE01F7
:1040F0000E949C0D0E94BC0E1092ED021092EA02EA
:104100001092DF021092DE021092DD021092DC02A9
:10411000DF91CF910895EF92FF920F931F93CF936A
:10412000DF938C01FC01848195818130910529F018
:10413000029789F1D0E0C0E014C0F780168184E0D6
:1041400090E062307105A9F40E945037EC0186E3DB
:1041500091E09983888362E0812F0E94FC03FA82B8
:104160001B83CE01DF91CF911F910F91FF90EF90B4
:1041700008950E945037EC0180E491E09983888390
:10418000FA821B8360E0CE010E94101061E0812F53
:104190000E94FC03E6CF8681F12CE12C8E3021F4C5
:1041A0008DECE82E84E0F82E80E190E00E945037FC
:1041B000EC01F80191892EEA31E039832883FB82F2
:1041C000EA821D821C8281E08F87DE011696399675
:1041D00088E001900D928A95E1F79E87C2CFEF9219
:1041E000FF920F931F93CF93DF93EC018A819B8102
:1041F000019710E000E08C30910528F488549E4F20
:10420000DC010C9110E0CE010E94400F7C01892B53
:1042100051F08885811107C00130110559F018F05F
:1042200004301105C8F1DF91CF911F910F91FF90DC
:10423000EF90089561E070E0CE010E948B208C0128
:10424000F70180819181892B29F46A817B8182E049
:104250000E942E1F8A819B81069761F4D801ED91FF
:10426000FC910680F781E02DC8010995F7011183C3
:104270000083D9CFD7018D919C91FC0111830083DC
:10428000EF50FF4F2FEF2083DF91CF911F910F91C0
:10429000FF90EF900C949C0DB801CE010E948B20F2
:1042A000D7018D939C93BFCF0F931F93CF938C0116
:1042B000C62F90E080E00E946336843091F4C031D4
:1042C00080F484E1C89FB001112462557E4F44E11F
:1042D00050E0C8010E94533681E0CF911F910F91A9
:1042E000089580E0FACF0F931F93CF938C01C62FD0
:1042F00090E080E00E946336843091F4C03180F415
:1043000084E1C89FB001112462557E4F44E150E022
:10431000C8010E946B3681E0CF911F910F910895E3
:1043200080E0FACF1F93CF93DF93CDB7DEB76497CA
:104330000FB6F894DEBF0FBECDBF90E080E00E94C4
:1043400063368430F1F00E9489120E94B4130E94F7
:10435000CA0F8EE192E09F938F9383E08F9387E55E
:104360008F930E94701D0F900F900F900F90649686
:104370000FB6F894DEBF0FBECDBFDF91CF911F9176
:1043800008950E94CA0F47E250E066E070E081EABB
:1043900093E00E9453360E94F20E49E050E06EE234
:1043A00070E08BE093E00E94533680910C03909173
:1043B0000D0390930A038093090361E080910B033E
:1043C0000E94651210E0612FCE0101960E945421D7
:1043D000882369F2CE0101960E94401F811107C017
:1043E000FE01319685E1815041F01192FCCFCE0162
:1043F00001960E94EF201F5FE6CF612FCE0101964C
:104400000E947321F8CFBF92CF92DF92EF92FF927A
:104410000F931F93CF93DF93CDB7DEB76A970FB695
:10442000F894DEBF0FBECDBF7C016C0126E0C20E4A
:10443000D11C8E010F5F1F4FB801C6010E945903A6
:10444000F70184819581892B09F085C082E090E095
:104450000E945037F70122813381FC013183208390
:10446000F70195838483892B09F075C01F930F93FF
:1044700081E492E09F938F931F9285E48F930E9433
:10448000701DF701848195810F900F900F900F9010
:104490000F900F90009709F061C0B12CF70187854C
:1044A000B81621F06B2DC7010E94901E8B2D6A96C5
:1044B0000FB6F894DEBF0FBECDBFDF91CF911F9135
:1044C0000F91FF90EF90DF90CF90BF900895B12CA7
:1044D00085C0B11088C081E08C8B4EE4B601C80164
:1044E0000E946610F801808191816C890B960E9470
:1044F0009E0BF801808191816D890B960E949E0B25
:10450000F801808191816E890B960E949E0BF801C3
:10451000808191810E944410B601F70184819581C8
:104520000E944D106EEE72E080E090E00E945D040B
:10453000B601F701848195810E940611811590488A
:1045400009F4ABCFB601F701848195810E944D102B
:10455000BB24B394A3CFF70184819581B6010E9457
:1045600006118115904871F7F7010481158144EB1C
:10457000B601C8010E946610F801808191810B96F6
:104580000E94490BB82EF801808191810E9444104D
:10459000BB2009F482CFF801808191810E944410F0
:1045A000B601F801808191810E94F30BF8018081AE
:1045B000918168EB0B960E949E0BAE014E5E5F4FA1
:1045C000B601C8010E948210B82E882309F466CF74
:1045D0008E898F3709F47BCF8FE78E8B8C89882368
:1045E00009F477CF1C8A4EE4B601C8010E94661018
:1045F000F801808191816C890B960E949E0BF801D5
:10460000808191816D890B960E949E0BF8018081BB
:1046100091816E890B960E949E0BF8018081918199
:104620000E944410B601F801808191810E94F30B31
:10463000F8018081918168E40B960E949E0BF8013D
:10464000808191810E94441046CF0F931F93CF9396
:104650008C01C62F0E94160C6C2F6460C8010E944A
:10466000160C6C2F6B7FC8010E94160C83EC90E037
:104670000197F1F7CF911F910F9108950F931F9319
:10468000CF93DF938C01D62FC42F607F642B0E94C1
:10469000252380E1D89FB00111246C2BC801DF9144
:1046A000CF911F910F910C942523CF93DF93CDB71A
:1046B000DEB728970FB6F894DEBF0FBECDBF98E0E7
:1046C000ECE1F1E0DE01119601900D929A95E1F78F
:1046D0009091E204961710F46FEF690F6093E30472
:1046E0008093E404262F30E0220F331F41E050E096
:1046F0004C0F5D1F240F351FF9016081680F606842
:1047000040E08CED94E028960FB6F894DEBF0FBE23
:10471000CDBFDF91CF910C943E2340E061E08CED62
:1047200094E00E943E236091E6045091E504E52F59
:10473000F0E0E452FB4F2CED34E040E070E264170F
:1047400089F090E080E0851738F4D901A80FB91FEF
:104750001F967C930196F7CF17864F5F75962B5E59
:104760003F4FEDCF8BE39FE10197F1F70895CF9392
:10477000DF93823028F09091DF0498609093DF04FB
:104780008093E2041092E3041092E40462E370E088
:1047900080E090E00E945D046091E7048CED94E07D
:1047A0000E94160C68EE73E080E090E00E945D04C9
:1047B00060E38CED94E00E942523CBE4D6E4CE01A7
:1047C0000197F1F760E38CED94E00E942523219797
:1047D000F1F760E38CED94E00E94252383E592E0FD
:1047E0000197F1F760E28CED94E00E94252360913F
:1047F000DF04606240E08CED94E00E943E2384E0A0
:104800008093E00440E06CE08CED94E00E943E2355
:104810000E948D2382E08093E10440E066E08CED0D
:1048200094E00E943E2340E062E08CED94E00E9420
:104830003E238BE39FE10197F1F7DF91CF9108953C
:10484000CF93DF938FEF8093520282E08093E80250
:104850001092E9041092E80410924E0310924D0356
:104860000E94EB0581E197E09093710380937003C0
:1048700082E197E09093750380937403C8E0D1E0E0
:10488000D093F403C09316041092F503109217040A
:104890000E942A06811109C0C093DE0461E070E025
:1048A00080E090E00E945D04C8E7CF5FC83740F326
:1048B0001092DF048091E6040E94B72388E0809381
:1048C000E70460E08CED94E00E94160C84E00E9406
:1048D000B723DF91CF910C948D23FC0180859781C4
:1048E000DF0125E1929FA00DB11D1124A80FB11D7C
:1048F0001F966C938F5F80878685811104C0CF01DE
:1049000041E00E943E2390E080E008950F931F93C2
:10491000CF938C01C0E08C2F90E0F8010190002033
:10492000E9F73197E01BF10B8E179F0750F4800FCA
:10493000911FFC0160818CED94E00E946D24CF5F9B
:10494000EACFCF911F910F910895EF92FF920F93AD
:104950001F93CF938C010E9468337C01C0E0EC2F41
:10496000F0E0EE15FF0548F4E00FF11F64918CEDC7
:1049700094E00E946D24CF5FF2CFCF911F910F91F1
:10498000FF90EF900895CF93DF93EA010E945523A3
:10499000CE01DF91CF910C94A5240E94BB0A45EF74
:1049A00052E0682F80E00C94C32445EA52E060E0B6
:1049B00087E00C94C324682F82E10E9455236FED99
:1049C0008CED94E00E946D246091A1038CED94E045
:1049D0000C946D2449E252E060E080E00E94C32420
:1049E00045E552E061E080E00E94C3248091E80246
:1049F00042E652E080FF02C042E252E062E080E024
:104A00000E94C32481E00E94DB2482E00C94DB241A
:104A1000FC0180818093A1030E94EA240C94381346
:104A2000EF92FF920F931F93CF93DF93CDB7DEB733
:104A30002A970FB6F894DEBF0FBECDBF8091EE026D
:104A400010912703811112E080915202811759F1D0
:104A50001093520287E7E82E82E0F82E48E752E0F2
:104A60001A3070F4812F90E0880F991FFC01E658EE
:104A7000FE4F408151818A599E4FFC01E080F180B8
:104A800063E080E00E94C324C7010E94A5249091A6
:104A9000E4048091E504981730F460E28CED94E032
:104AA0000E946D24F4CF8091DA029091DB020E9483
:104AB000A6049C01111153C00E9492088C010E940F
:104AC0008C080817190708F047C00E9492089C013B
:104AD0002F3F3207A1F1C90160E17EE00E94C43698
:104AE0007B01ECE3F0E0C901BF010E94C4369F9353
:104AF0008F93CB01BF010E94C4369F938F93FF9287
:104B0000EF928AE692E09F938F938E010F5F1F4F83
:104B10001F930F930E9486330FB6F894DEBF0FBE2B
:104B2000CDBFEF2819F402970E5F1F4F63E094E1A9
:104B3000981B892F0E945523C8010E9486242A961B
:104B40000FB6F894DEBF0FBECDBFDF91CF911F919E
:104B50000F91FF90EF9008950E948C08B8CF8DEFD1
:104B6000810F823008F4B4CF183039F484EB90E030
:104B7000AC01421B530B9A01ABCF193039F484EBD3
:104B800090E0FC01E21BF30B9F01A2CF1550123005
:104B9000B0F62091D8023091D9029ACF60E087E038
:104BA0000E94552380910B038F3669F13CF48236C5
:104BB00001F1863651F08EE292E00DC08037E1F0CF
:104BC0008437C9F78BE392E006C082E692E00E9448
:104BD000A5248BE592E00E94A5249091E4048091A5
:104BE000E504981798F460E28CED94E00E946D243F
:104BF000F4CF85E592E0EBCF85E592E00E94A52415
:104C00008DE492E0E8CF89E492E0E5CF0895EF9259
:104C1000FF920F931F93CF93DF93CDB7DEB7299702
:104C20000FB6F894DEBF0FBECDBF7A010E945523A8
:104C3000C7019058029788F48BE192E00E94A52466
:104C400029960FB6F894DEBF0FBECDBFDF91CF918E
:104C50001F910F91FF90EF900895A701FF0C660B35
:104C6000770B09E021E0CE0101967C010E94D71864
:104C7000F70101900020E9F70E2D0E1B0A5F10E0EE
:104C800010173CF460E28CED94E00E946D241F5FED
:104C9000F7CFC7010E948624D3CF2F923F924F9225
:104CA0005F926F927F928F929F92AF92BF92CF92BC
:104CB000DF92EF92FF920F931F93CF93DF93CDB7C5
:104CC000DEB72D970FB6F894DEBF0FBECDBF7B8742
:104CD0006A871A013D872C87E02EFC0109958C011B
:104CE0006090A2037090A3036091A4037091A50348
:104CF0009058029710F400E018EC072E000C880B77
:104D0000990B0E94F1076C01B301770C880B990B8A
:104D10000E94F1073C01B801012E000C880B990B91
:104D20000E94F1079C019FB7F8943093E70220930B
:104D3000E6027092E5026092E402D092E302C09231
:104D4000E2029FBF0E949C046C01F12C3AE0432ECA
:104D5000512C612C712C4AE5842E912CA12CB12C64
:104D6000C6010E94A6040A9708F076C00E94400C73
:104D7000882309F492C00E949C046C010E94BB0A23
:104D8000BC01990F880B990B29E0660F771F881FCC
:104D9000991F2A95D1F76B5F7F4F8F4F9F4FA301CC
:104DA00092010E94FA366091A1036634B9F430543E
:104DB00041095109EDE257FDE3EDA2E3B0E00E94A5
:104DC0003D370E2FEE0F110B220B330B600F711FAF
:104DD000821F931FA50194010E94FA3689019A014E
:104DE0001056210931090230F0E81F07FFEF2F07A5
:104DF0003F070CF44CC0011580E818072105310568
:104E00000CF048C0A8016E2D8CE00E94072680910E
:104E1000E9028823D1F11092E902C801EA85FB85F5
:104E20000995A801110F660B770B09E021E0CE016F
:104E300001960E94D7189F938F933F922F928CEFE9
:104E400092E09F938F93EC85FD8509950F900F90CD
:104E50000F900F900F900F902D960FB6F894DEBF25
:104E60000FBECDBFDF91CF911F910F91FF90EF90BB
:104E7000DF90CF90BF90AF909F908F907F906F907A
:104E80005F904F903F902F900895F12C69CF02E0F2
:104E900010E8B8CF0FEF1FE7B5CFF1100DC0A80194
:104EA0006E2D8CE00E940726F39463E070E080E0B2
:104EB00090E00E945D0454CFF0E8FF12F5CF45EF7B
:104EC00052E06E2D8CE00E94C324EECF0F931F930F
:104ED00001E010E022E03DE14EE153E065E77CE1D6
:104EE00081E798E00E944D261F910F9108950F933E
:104EF0001F9302E010E02CE63AE147E153E067E659
:104F00007CE186E598E00E944D261F910F9108955F
:104F1000CF930E94BB0A8130910579F182309105CF
:104F2000A9F1892BE1F5C0910B036C2F87E492E086
:104F30000E94461190E02FB7F8949093E702809377
:104F4000E6021092E5021092E40283E090E0909372
:104F5000E3028093E2022FBF21ED37E245ED54E2F8
:104F60006EEC75E28EE992E10E94670C811117C028
:104F700060E08C2FCF910C94651260E082E60E9475
:104F800065120E94CE25CF910C94662760E086E6DC
:104F90000E9465120E94CE25CF910C947727CF9165
:104FA000089580910B03823611F40C94662786369F
:104FB00011F40C947727803749F484ED92E09F93A5
:104FC0008F930E94021D0F900F9008958F36E9F77E
:104FD00083EB92E0F4CF8091E80281FF1CC00E9435
:104FE0009C0483FD49C08091020190910301DC0182
:104FF000ED91FC910480F581E02D09959091E802F6
:10500000292F2170281739F08823C1F191609093DE
:10501000E8020E94EA240E947608AC0161E086E082
:105020000E94072640910C0350910D0361E08CE033
:105030000E9407268091E80280FF22C08091020131
:1050400090910301DC01ED91FC910084F185E02D4C
:105050000995AC0162E086E00E94072640910E03AC
:1050600050910F038091E80280FF02C041E050E8B8
:1050700062E08CE00C94072680E0C0CF9E7FC7CF13
:105080000E945B08E6CFCF9360914A05662321F02A
:105090006091470581E0682785E495E00E9428112A
:1050A0008091E902882371F11092E902C091E8022F
:1050B0008C2F8C7F8093E8020E94EA240E94EB27C9
:1050C0008FB7F8941092E7021092E6021092E50270
:1050D0001092E40222E030E03093E3022093E202F7
:1050E0008FBF28E837E24DEC54E26AEE74E289E9BA
:1050F00097E00E94670CC093E8020E94EA24CF91D7
:105100000C94EB27CF9108950C94EC37FC0184812B
:1051100095810C94EC37AF92BF92CF92DF92EF92D1
:10512000FF920F931F93CF93DF93CDB7DEB7A19775
:105130000FB6F894DEBF0FBECDBF7C018B016A01B4
:10514000FB018481882339F1F70164817581082E80
:10515000000C990B01978C309105D0F488549E4F28
:10516000FC01808190E00E942A10811114C0A19658
:105170000FB6F894DEBF0FBECDBFDF91CF911F9168
:105180000F91FF90EF90DF90CF90BF90AF90089578
:1051900090E080E0E8CFB12C6B2DCE0101960E940B
:1051A0005421882371F1F701248135814D815E817D
:1051B0002417350721F521303105D1F02230310592
:1051C00011F59A859923A1F098E0915088F0292F44
:1051D00030E0F701E20FF31F4AE050E04C0F5D1F93
:1051E000240F351F4185F9012081421771F380E0BA
:1051F000F70126819F81291302C0811104C0B39455
:10520000CBCFBB24BA94F601B0821182B7FC08C0A0
:10521000F80183818111ABCF6B2DC7010E9454210E
:10522000F8018281882309F443C0F70184819581C4
:105230000297F1F55601FFEFAF1ABF0A8DE0F701B3
:105240003696DE01559601900D928A95E1F7F701A9
:1052500086818E3091F190E080E02EEA31E03A8351
:1052600029839C838B831E821D8281E0888B88E04A
:10527000FE017896DE01179601900D928A95E1F76E
:105280001F86CE0101960E9403228823C9F0CE0119
:1052900001960E94DF1EAC01990F660B770B09E0A7
:1052A00023E0C5010E94D718CE0101960E948628EE
:1052B000B601C7010E94B1175ACF8DEC94E0CDCF53
:1052C00080E090E8E8CFCF93DF93EC010E9486283E
:1052D000CE01DF91CF910C94EC370C94EC370C9409
:1052E000EC370C94EC370C94EC370C94EC370C94B2
:1052F000EC371F920F920FB60F9211242F933F930A
:105300008F939F93AF93BF9380919803909199034C
:10531000A0919A03B0919B033091970323E0230F50
:105320002D3758F50196A11DB11D20939703809349
:10533000980390939903A0939A03B0939B03809151
:105340009C0390919D03A0919E03B0919F030196B1
:10535000A11DB11D80939C0390939D03A0939E0378
:10536000B0939F03BF91AF919F918F913F912F91E8
:105370000F900FBE0F901F90189526E8230F0296EE
:10538000A11DB11DD2CF1F920F920FB60F92112403
:105390002F933F934F935F936F937F938F939F933D
:1053A000AF93BF93EF93FF9388E194E00E942B05A6
:1053B000FF91EF91BF91AF919F918F917F916F91ED
:1053C0005F914F913F912F910F900FBE0F901F90C3
:1053D00018951F920F920FB60F9211242F938F934F
:1053E0009F93EF93FF93E0912804F091290480812B
:1053F000E0912E04F0912F0482FD1BC090818091DA
:1054000031048F5F8F7320913204821741F0E09155
:105410003104F0E0E85EFB4F958F80933104FF91FB
:10542000EF919F918F912F910F900FBE0F901F9032
:1054300018958081F4CF1F920F920FB60F9211240E
:105440002F933F934F935F936F937F938F939F938C
:10545000AF93BF93EF93FF938091B900887F80361D
:1054600009F44AC0F0F5883209F4A7C018F5803174
:1054700009F49BC0B8F4882309F4F9C0883009F412
:1054800094C0FF91EF91BF91AF919F918F917F91C8
:105490006F915F914F913F912F910F900FBE0F90A1
:1054A0001F901895883109F488C0803251F7809395
:1054B000EC0314C0803409F49DC040F48033B9F388
:1054C0008833F9F68093EC0385ECB0C0803509F49D
:1054D00085C0883509F496C0883499F60E949D11DC
:1054E000D0CF883909F48CC038F5883729F050F4CA
:1054F000883611F0803729F683E08093EE0310920E
:10550000960357C0883809F47BC0803919F0803879
:1055100009F0B7CF80919603803208F071C0E09116
:10552000960381E08E0F809396038091BB00F0E09C
:10553000EA58FC4F80833DC0803B39F0E0F4803A6C
:1055400009F479C0883A09F09CCF84E08093EE0397
:105550001092730310927203E0917003F091710343
:1055600009958091720381110FC081E080937203CD
:105570001092500309C0803C09F4A6CF883C09F47E
:10558000A3CF883B09F07DCFE091730381E08E0FBC
:1055900080937303F0E0E05BFC4F80818093BB005D
:1055A000909173038091720329C08091C903809305
:1055B000BB0085EC8093BC0064CF9091EB0380919D
:1055C000EA03981758F5E091EB0381E08E0F809382
:1055D000EB03F0E0E653FC4F8081E9CFE091EB0371
:1055E00081E08E0F8093EB038091BB00F0E0E653E7
:1055F000FC4F80839091EB038091EA039817C8F2E7
:1056000085E8D8CFE091EB0381E08E0F8093EB0328
:105610008091BB00F0E0E653FC4F80838091ED0366
:1056200081115CCF81E08093C80384EA8093BC0041
:105630001092EE0326CF85EC8093BC001092EE030F
:1056400080919603803230F4E0919603F0E0EA58BE
:10565000FC4F10826091960370E0E0917403F0912A
:10566000750386E793E00995109296030ACF10928E
:10567000EC0334CF1F920F920FB60F9211242F9389
:105680003F934F935F938F939F93EF93FF93E3B178
:1056900093B1969581E09827292F217030E0C901B8
:1056A000880F991FE095E1708E2BE091D402EF7086
:1056B00094E0E99F900111249091C503E82F880F91
:1056C000FF0BE20FF31F992381F1EA5FFA4FE49198
:1056D000E093D4022091D4022073D1F08091E602AD
:1056E0009091E702203121F501964091E20250911C
:1056F000E3022091E4023091E5024817590724F0B3
:1057000082179307BCF09C013093E7022093E602D6
:10571000FF91EF919F918F915F914F913F912F91C9
:105720000F900FBE0F901F901895E651FB4FCFCFF3
:105730000197DBCF9A01E8CF1F920F920FB60F921D
:1057400011248F934F9903C081E08093E9028F91D8
:105750000F900FBE0F901F9018950F931F93CF932C
:10576000DF93E8E1F4E01382128288EE93E0A0E098
:10577000B0E084839583A683B78328EC31E031833E
:10578000208325EC30E03587248724EC30E0378710
:10579000268720EC30E0318B208B21EC30E0338BFE
:1057A000228B22EC30E0358B248B26EC30E0378BDB
:1057B000268B118E128E138E148EE5EBF4E013827D
:1057C000128284839583A683B7838AED91E09183C7
:1057D0008083AAECB4E004E112E011961C930E93CE
:1057E00012961C921297E1ECF4E08CEE91E091831A
:1057F000808388E592E095838483B783A683CDEC8C
:10580000D4E08EE08E8760E00E94FC03E6E5F6E0DF
:10581000E491EB87E2E4F6E0E491F0E0EE0FFF1FA5
:10582000E65DF94F859194919D878C8718861A863D
:1058300019861F821E821D821C821B821A82198277
:105840001882ECEDF4E088EF91E09183808312827E
:1058500084E1818784E082871386E2E4F5E08EEFBD
:1058600091E0918380831282EFE3F5E0118300835E
:105870001282E5E4F5E0128288E092E09183808371
:10588000E8E4F5E0118300831282DF91CF911F914C
:105890000F910895CDB7DEB7E097DEBFCDBF789406
:1058A00084B5826084BD84B5816084BD85B5826025
:1058B00085BD85B5816085BD80916E0081608093D6
:1058C0006E0010928100809181008260809381003F
:1058D000809181008160809381008091800081604F
:1058E000809380008091B10084608093B1008091AA
:1058F000B00081608093B00080917A0084608093D2
:105900007A0080917A00826080937A0080917A0098
:10591000816080937A0080917A00806880937A0019
:105920001092C10061E083E00E94FC0381E2809359
:10593000B0008BE08093B1008DE78093B3008EE3DD
:105940008093B4008091B00080628093B00064EFD7
:1059500071E080E090E00E945D048091B0008F7D56
:105960008093B00064EF71E080E090E00E945D04FD
:105970008091B00080628093B00064EF71E080E0BD
:1059800090E00E945D048091B0008F7D8093B00014
:105990000E9420240E94C30AE0912804F091290467
:1059A00082E08083E0912804F09129041082E09144
:1059B0002404F09125041082E0912604F09127043C
:1059C00080E1808310923004E0912C04F0912D044A
:1059D00086E08083E0912A04F0912B04808180612D
:1059E0008083E0912A04F0912B0480818860808379
:1059F000E0912A04F0912B04808180688083E091FB
:105A00002A04F0912B0480818F7D80830E941820CE
:105A10000E9492210E9490046B017C010E949004DC
:105A2000C616D706E806F90619F40E944328F6CFF1
:105A30000E94EA240E94102562E087E00E94FC0395
:105A400087E00E94A50321E0019709F020E0209360
:105A5000A0039E012A5E3F4F790134EBA32E35E06F
:105A6000B32E0E9443280E949C04B0E0A0E0409125
:105A7000290350912A0360912B0370912C03841BFE
:105A8000950BA60BB70B80319E40A105B105A0F088
:105A90000E949C04B0E0A0E08093290390932A0325
:105AA000A0932B03B0932C030E9420240E94EA248D
:105AB0000E9410250E94C30A0E94900400910E01CA
:105AC00010910F012091100130911101601B710B99
:105AD000820B930B683E73408105910508F410C159
